:020000040800F2
:10000000C8A5002079020008517D00088524000859
:100010004D7D0008C91C0008F78C00080000000096
:100020000000000000000000000000008D800008BB
:10003000791E000800000000D97D0008A181000899
:10004000930200089302000893020008930200083C
:10005000930200089302000893020008930200082C
:10006000930200089302000893020008930200081C
:10007000930200089302000893020008930200080C
:1000800093020008930200089302000893020008FC
:1000900093020008930200089302000893020008EC
:1000A00093020008930200089302000893020008DC
:1000B0009302000805820008CD8200089302000820
:1000C00093020008930200089302000893020008BC
:1000D00093020008A18800082989000893020008FB
:1000E000930200089302000893020008930200089C
:1000F000930200089302000893020008930200088C
:10010000930200089302000893020008930200087B
:10011000930200089302000893020008930200086B
:10012000930200089302000893020008930200085B
:1001300000F002F800F090F80AA090E8000C824469
:100140008344AAF10107DA4501D100F085F8AFF246
:10015000090EBAE80F0013F0010F18BFFB1A43F0A5
:1001600001031847BCB60000DCB60000103A24BFFB
:1001700078C878C1FAD8520724BF30C830C144BF0C
:1001800004680C607047000000230024002500264E
:10019000103A28BF78C1FBD8520728BF30C148BFEA
:1001A0000B6070476E2900F01F83702900F05F819B
:1001B000662909F07686652909F07386672909F0B2
:1001C00070866129AFF3008003681B0A28BF41F0E5
:1001D0008001692900F0D080642900F0CD80752964
:1001E00000F0CA806F2900F01784782900F02B8175
:1001F000E92900F0B183E42900F0AE83F52900F08D
:10020000AB83EF2900F01484F82900F02A810368F9
:10021000DB0928BF41F08001632900F020837329A6
:1002200000F02583E32900F06986F32900F06E864B
:10023000002070471FB500F0BFFE04000020002121
:1002400009F004FB401C60600020002109F0E8FA7E
:10025000E0601FBD10B510BD00F080FE1146FFF735
:10026000E9FF09F073F900F059FF03B4FFF7F2FF5B
:1002700003BC08F05DFD00000948804709480047BD
:10028000FEE7FEE7FEE7FEE7FEE7FEE7FEE7FEE746
:10029000FEE7FEE704480549054A064B70470000A3
:1002A000A581000831010008C89F0020C8A50020D2
:1002B000C8A10020C8A10020704700001CB50C4652
:1002C000064B7B4469460090204600F0A6FA04469F
:1002D0000020694600F0B4FA20461CBD7B050000F2
:1002E0000FB4044910B503AA029800F0C5FA10BC77
:1002F0005DF814FB380000200FB41CB5084B06AAAB
:100300007B4469460090059800F087FA0446002077
:10031000694600F095FA20461CBC5DF814FB00000D
:100320003D05000070B50C460546012A05D0287829
:10033000800600D5EA69002302E0012305E05B1C8A
:10034000934202D2E05C0028F9D1A869E618C01AED
:10035000A861286A18442862284600F0B3F904E02E
:10036000D5E9012114F8010B9047B442F8D328468F
:1003700000F0BEF970BD00002DE9F04106460024F2
:1003800010687529314616A510D000F0C2F9002872
:1003900002DA404213A507E031688A0701D512A5A9
:1003A00002E0490704D511A5012401E000F0BAF9E3
:1003B00000210A2206F1240709E0B0FBF2FCB0FBA1
:1003C000F2F302FB1C00303078541846491C002818
:1003D000F3D123462A463046BDE8F04100F0ABB9E0
:1003E000000000002D0000002B0000002000000095
:1003F000F0B40D460188090502D5214C7C4402E089
:100400001F4C7C440E34002100F1240608E002F069
:100410000F071209E75D42EA03721B097754491C72
:1004200052EA0307F3D102780023120704D5702D96
:1004300006D009B1022311342246F0BC00F07BB98A
:1004400001231034F8E770B504460D4621461068C4
:1004500000F068F9024629462046BDE870400023B6
:10046000C6E7D21D22F00703D3E90023C0E70368E3
:10047000126843F0200303600823C3610023B7E739
:10048000B8B200002DE9F05F894604464FF0000A3B
:10049000DFF874B1FB44C0F820A02046E16888472B
:1004A000002874D0252806D0D4E901219047206A7D
:1004B000401C2062F1E700265F462046E16888473D
:1004C0002028054607DB312D05D2781910F8200CBD
:1004D00008B10643F1E7B00701D526F00406C4F8D9
:1004E0001CA00027C4F818A02A2D09D0284608F01F
:1004F00018FC38B304EB8708303DC8F8185019E0F1
:1005000059F8041B204604EB87029161E168884793
:10051000012F054618D1E069002820DA26F02006D0
:100520001DE0D8F8180000EB800005EB40003038E3
:10053000C8F818002046E1688847054608F0F1FB36
:100540000028EED1012F0AD02E2D08D12046E168D7
:1005500088477F1C0546022F46F02006C4DBA069B1
:10056000002803DA404246F00106A061F00701D0FE
:1005700026F010066C2D0BD0682D09D04C2D39D0EB
:100580006A2D35D0742D35D07A2D33D016E038E071
:10059000E1682F4620468847B842054609D16C2FAE
:1005A00026D04FF48060E168064320468847054620
:1005B00004E06C2F1AD04FF4807006430DB3A5F100
:1005C0004100192802D8203546F400664A462946DB
:1005D000204626604E46FFF7E5FD80B101280BD08E
:1005E000F61D26F0070000F1080956E74020E4E771
:1005F0008020D8E70020D6E706F104094DE7284619
:1006000052E7206ABDE8F09F48B2000030B50546C9
:100610000B462A4613F8014B12F8010B08B1A04211
:10062000F8D01CB1002802D06D1CF1E7284630BD7F
:1006300010B5431C02E010F8011B71B18107FAD11B
:100640004FF0013202C88C1A8C4314EAC211F9D05F
:10065000C01A0A0603D0C01E10BDC01A10BD0A047D
:1006600001D0801E10BD0902FCD0401E10BD4FF00D
:10067000000200B5134694469646203922BFA0E8F2
:100680000C50A0E80C50B1F12001BFF4F7AF0907FE
:1006900028BFA0E80C5048BF0CC05DF804EB8900EF
:1006A00028BF40F8042B08BF704748BF20F8022B32
:1006B00011F0804F18BF00F8012B7047704770474A
:1006C0007047704770B5044685690068C10601D55A
:1006D000302600E02026C00707D070BDD4E90121F4
:1006E00030469047206A401C20626D1EF6D570BDD2
:1006F00070B5044685690078C00707D170BDD4E99C
:10070000012120209047206A401C20626D1EF6D5F2
:1007100070BD09684A0501D540B27047C905FCD5CE
:1007200000B2704709684A0501D5C0B27047C905D3
:10073000FCD580B270472DE9F0470D4699469246A8
:10074000044600F124080168880604D5E06921F018
:100750001001216000E00120A84201DD471B00E0FC
:100760000027A1697A1902EB0900081AA061207814
:10077000C00602D42046FFF7A5FF002608E0D4E912
:1007800001211AF806009047206A401C761C20625E
:100790004E45F4DB2078C0060AD52046FFF792FFCD
:1007A00006E0D4E9012130209047206A401C2062F5
:1007B000381EA7F10107F4DC07E0D4E9012118F89D
:1007C00005009047206A401C2062281EA5F1010503
:1007D000F3DC2046FFF78CFF2078000602D50220CC
:1007E000BDE8F0870120FBE711680268006A530545
:1007F00001D508700AE0D30501D5088006E013068C
:1008000003D5C217C1E9000200E00860012070476B
:1008100001694A1C02610878704700B58FB0CDE9C4
:1008200001310021059105497944CDE903101146B4
:100830006846FFF727FE0FB000BD0000E5FFFFFF91
:100840000A6802F8010B0A60704710B5436913B1DA
:10085000AFF3008001E0FFF765FD012010BD1278C5
:1008600000F124010A7000224A700122EDE71168AC
:100870004FF0FF32E9E70000074B70B50D467B44AF
:10088000FFF7CBFF0446284600F044FB10B14FF0C1
:10089000FF3070BD204670BDAF8C00002DE9FF5FBA
:1008A00015468A460446DFF8AC80F8440027D8E9AC
:1008B00000103E46CDE9001010E03AF816106A46E6
:1008C00002A800F02BFB411C07D02178890603D534
:1008D000E269391891420DD80744761C20788006C9
:1008E00002D5E069B84205DDAE42E6DB3AF8160013
:1008F0000028E2D1A069C01BA0612046FFF7E2FEFC
:10090000D8E90010CDE90010002017E03AF81810DF
:100910006A4602A800F002FBB0F1FF3F81460BD00F
:1009200000250DF1080B05E0D4E901211BF80500B5
:1009300090476D1C4D45F7D308F10100B042804649
:10094000E4DB206A384420622046FFF7D1FEBDE890
:10095000FF9F000046AE00002DE9F0418046D21D09
:1009600022F007020025D2E90002F52915A614D0CD
:10097000011E72F1000106DA0023D0EB030063EBE5
:10098000020211A608E0D8F800108B0701D50FA6C7
:1009900002E0490701D50EA601251146002408F101
:1009A000240704E000F04EF830323A55641C50EA57
:1009B0000102F7D12B46324621464046BDE8F041C0
:1009C000FFF7B9BE000000002D0000002B00000062
:1009D0002000000030B4002100F1240408E002F0FF
:1009E0000705D208303542EA4372DB086554491CDA
:1009F00052EA0305F3D10468002310A2250708D5A5
:100A000004F020040C4304D0C46901230CA2641E2A
:100A1000C46130BCFFF78FBE10B504462146106894
:100A2000FFF780FE02462046BDE810400023D1E7D4
:100A3000D21D22F00701D1E90023CBE7000000001E
:100A40003000000030B5B0F10A024FEA900E71F1AB
:100A500000034EEA817EB0EB0E0061EB91014FEA9C
:100A6000101E4EEA017E10EB0E0041EB11114FEA11
:100A7000102E4EEA016E10EB0E0041EB11214FEAF1
:100A8000104E4EEA014E10EB0E0041EB11414018A2
:100A900041F100014FEAD00040EA41704FEAD10134
:100AA00010EB80054FEA810444EA907444EB0104A2
:100AB0006D1944EB0404521BA3414FF0000348BFDF
:100AC0000A3200D530BD401C41F1000130BD7047F5
:100AD0002DE9FF4F0C461E464FF0FF378BB0D2E991
:100AE0000001DDF860800A908A46C1F30A5505B915
:100AF0003D46002108464FF00000BAF1000F00F417
:100B0000400005DA00EB80004FF4400101EA50009C
:100B10004FEA9059B9F1010F00DDB9460A9850EA41
:100B20004A000ED044F61050A5F2FF3545432F146D
:100B3000B8F1000F1ED07542291E1EDDC9F100025A
:100B40001CE0B8F1010F4FF0000001D0302103E0AC
:100B5000F24305E02154401CB042FBDB304600224A
:100B6000002121540B99C1F80880C1E900200FB081
:100B7000BDE8F08FBD1B6D1CDEE74A4600DA694216
:100B800006A800F05DFA06AB93E8070003AB83E824
:100B9000070050460A9900F00FFB8DE80700A0F50A
:100BA00000501F3800900398002D09DD42F21F010C
:100BB0004A46084403A90390684600F06EFD08E029
:100BC000A0F500504A461F3803A90390684600F07C
:100BD00078FD8DE807000004000C03D04FF0FF30D3
:100BE000410800E01046B8F1000F03D00022009247
:100BF00015461EE0751E05D4FFF724FF30326255FE
:100C00006D1EF9D5B3460122084302D000227F1C95
:100C100004E02078302801D100227F1E002A0997A5
:100C200086D01DE0112D07DAFFF70CFF3032625538
:100C30006D1C50EA0102F5D1084302D00098C8B1FA
:100C40000EE00021681E05E0235C625C63542254C0
:100C5000401E491C8142F7DBAB46A81B401E099091
:100C6000002004F80B000B98099AC0F80880C0E92E
:100C7000002B7CE711264FF0000859E72DE9F04FD3
:100C800088460446D21D22F0070191B0D1E9000147
:100C9000CDE90A0108F031F802460B98C00F01D0E7
:100CA0002D2007E02068810701D52B2002E02021BC
:100CB00001EAC000032A099001D0072A05DB034698
:100CC0004146204600F07CF90BE12078800601D5F2
:100CD000E06900E00620B8F1650F814606D0B8F162
:100CE000660F18D0B8F1670F70D131E00020B9F16C
:100CF000110F009001DB112301E009F101030AAAA1
:100D000001A90CA8FFF7E4FEDDE90C70002609F14B
:100D10000105834647E001204B4600904FF0004715
:100D20000AAA01A90CA8FFF7D3FEDDE90DB00C99C2
:100D30005D46002610B909F101000D18B9EB050058
:100D400003D4C0F1FF3609F10105A5EB09002BE042
:100D5000B9F1010F01DA4FF001090020B9F1110FCB
:100D60000090484601DD112300E003460AAA01A9CC
:100D70000CA8FFF7ADFEDDE90C704D46002683465A
:100D8000207800070AD4AB4500DA5D4601A8012DA2
:100D900004DD411911F8011C302907D04F4502DA52
:100DA00017F1040F04DA012082460FE06D1EEEE712
:100DB000002F02DCED1B3E4403E0781CA84200DD5E
:100DC0007D1CB81B00F1010A4FF000472078000796
:100DD00003D4AA4501DB4FF0FF3A0021B7F1004FE1
:100DE0000DF143088DF8431024D002202B23002F4F
:100DF00001DA7F422D230A21021EA0F1010000DC4E
:100E00005FB197FBF1FC97FBF1F201FB1C7C1746ED
:100E10000CF1300C08F801CDEEE7A8F101000370E9
:100E20002188090501D5452100E06521A0F10108CF
:100E300000F8011C09980FA9A1EB0807FF1D00B1DC
:100E40000120411901EBEA70A1693844081A401EDB
:100E5000A0612078C00602D42046FFF733FC099831
:100E600028B1D4E901219047206A401C20622078F3
:100E7000C00622D52046FFF725FC1EE0002E04DB2D
:100E8000B34502DD01A8805D00E03020D4E90121F6
:100E90009047206A401C2062761CAAF101005FEA9C
:100EA000000A0AD100F088F8C0680168405CD4E903
:100EB00001219047206A401C2062281EA5F10105EF
:100EC000DCDC07E0D4E9012118F8010B9047206A27
:100ED000401C2062381EA7F10107F3DC2046FFF713
:100EE00007FC032011B043E610B5436913B1AFF31B
:100EF000008001E0FFF7D2FC012010BD128800F154
:100F0000240182840022C2840122EDE711684FF09F
:100F1000FF32E9E7007B00F08000704770B51646AD
:100F20000C46054600F040F8036893F801010128DB
:100F300006D0FF2C0FD8185D68B101202C7070BD51
:100F4000D3F807013246214603F20713034428462B
:100F5000BDE8704018474FF0FF3070BD754600F097
:100F6000E7F8AE4605006946534620F0070085467F
:100F700018B020B5FFF78EF9BDE820404FF000060D
:100F80004FF000074FF000084FF0000B21F0070171
:100F9000AC46ACE8C009ACE8C009ACE8C009ACE8B4
:100FA000C0098D467047000010B500F005F8001D1F
:100FB00010BD00BF9988000000487047889F00203E
:100FC0002DE9F0411F46044603260168072A01F473
:100FD000006004DB08B116A505E016A503E008B122
:100FE00015A500E015A521F010002060A069C01E25
:100FF000A0610FB1401EA0612046FFF763FB4FB117
:10100000D4E9012138469047206A401C2062C01C68
:10101000206206E0206AFAE7D4E9012115F8010B05
:101020009047761EF8D22046FFF762FBBDE8F081BC
:101030004E414E006E616E00494E4600696E66007C
:101040002DE9F047814616468AB0334878440DC8EA
:101050008DE80D0030487844801C03AC0DC884E84E
:101060000D0041F69B300844372190FBF1F290FBD4
:10107000F1F5A5F1800501FB12041B3C02D5644289
:10108000012000E00020DFF890A080460027FA440D
:10109000AAF1BE0A0DE0E00709D03246684607EB28
:1010A00047010AEB810100F00CFB8DE8070064109A
:1010B0007F1C002CEFD1184F7F44AC3F18E0E807AD
:1010C00014D007EB04100DF1180A90E80E008AE81E
:1010D0000E00C068F04201D198190890324606A966
:1010E00003A800F0EEFA03AB83E807006D10641C60
:1010F000002DE4D132466946B8F1000F03A802D0B2
:1011000000F0CBFA01E000F0DCFAC9E90001C9F80F
:1011100008200AB0BDE8F08728A7000010B50446F3
:10112000AFF300802046BDE81040FFF79EB80000F6
:1011300000487047689F00204FF0013C50F8042B96
:1011400051F8043B9A4221D1A2EB0C03934313EADA
:10115000CC1317D150F8042B51F8043B9A4215D107
:10116000A2EB0C03934313EACC130BD150F8042BDE
:1011700051F8043B9A4209D1A2EB0C03934313EAC2
:10118000CC13DBD04FF00000704700BFD01A01BA7B
:10119000B1FA81F101F0180122FA01F0CB40C1F15E
:1011A0002001DBB2C0B2C01A2CFA01F3D11A91436C
:1011B00011EAC311E6D170475FEA400C08BF91F015
:1011C000000F4FEA8C234FEAC12243EA51514FEA04
:1011D0001C5018BF00F5F0404FEA300018BF41F036
:1011E00000415FEA6C5C00F02980BCF1FF3F08BF62
:1011F00040F080407047130C06BF12044FF0100CF3
:101200004FF0000C130E04BF12020CF1080C130F68
:1012100004BF12010CF1040C930F04BF92000CF1F7
:10122000020CD30F04BF52000CF1010C11464FF019
:101230000002A0F11F00A0EB0C00704711F0004F5E
:1012400008BF704731F000413FF4D5AF0B0C06BF2B
:1012500009044FF0100C4FF0000C0B0E04BF0902F4
:101260000CF1080C0B0F04BF09010CF1040C8B0FDF
:1012700004BF89000CF1020CCB0F04BF49000CF134
:10128000010CCCF12003A0EB0C0022FA03F302FACC
:101290000CF241EA030100F10100704720F07F4C9D
:1012A00080EA030023F07F47ACEB070303F57C5390
:1012B00000F0004003F1FF032DE980494FEA154B90
:1012C00009B44FEA144325EA0B4E24EA03480FF20F
:1012D000042606EB132749083E785FEA320203FB37
:1012E0000667C7F5000707FB06F64FEA54374FEAD3
:1012F000D64606F1020607FB066CCCF1005C4FEA0D
:101300001C472CEA074C07FB06F40CFB06F504EB24
:1013100015464FEA961634BF00204FF000404FEAC2
:10132000D13706FB07FC4FEA1C4C0CFB0BF7D21B1A
:1013300003FB0CF761EB07010CFB0EF7B0EB07406A
:1013400072EB17420CFB08F734BFA2EB0742B2EB7B
:10135000074261EB17414FEA0C444FEA910706FB45
:1013600007FC4FEA1C4C0CFB0BF7B0EBC74072EBD1
:10137000573203FB0CF734BFA2EBC742B2EBC742B4
:1013800061EB57310CFB0EF7B0EBC70072EB5772F5
:101390000CFB08F734BFA2EBC702B2EBC70261EB4C
:1013A0005771039F4FEA816141EA921104EBCC042B
:1013B0004FEAD1374FEA826206FB07FC42EA9012FD
:1013C0004FEA80604FEA1C4C0CFB0BF7D21B03FB6F
:1013D0000CF761EB07010CFB0EF7B0EB074072EB6B
:1013E00017420CFB08F734BFA2EB0742B2EB0742EF
:1013F00061EB17414FEA8C554FEA910704EB9C24AF
:1014000006FB07FC4FEA1C4C0CFB0BF7B0EBC7408C
:1014100072EB573203FB0CF734BFA2EBC742B2EBBF
:10142000C74261EB57310CFB0EF7B0EBC70072EB14
:1014300057720CFB08F734BFA2EBC702B2EBC7022E
:1014400061EB577115EB4C254FEA816141EA92112E
:101450004FEA82624FEAD13742EA901206FB07FC5C
:1014600044F100044FEA80604FEA1C4C0CFB0BF780
:10147000D21B03FB0CF761EB07010CFB0EF7B0EB83
:10148000074072EB17420CFB08F734BFA2EB074290
:10149000B2EB074261EB174115EB1C154FEA8131A6
:1014A00041EA92414FEA823242EA90424FEA80306A
:1014B0004FEA0C7644F1000448EA03434EEA0B4835
:1014C0004FF0000EB2EB080C71EB030724BF62462D
:1014D00039464EEB0E0E4FF0000B001852414941B9
:1014E0004BEB0B0BB2EB080C71EB03077BF1000B22
:1014F00024BF624639464EEB0E0E4FF0000B00182B
:10150000524149414BEB0B0BB2EB080C71EB03075B
:101510007BF1000B24BF624639464EEB0E0E51EABA
:10152000020718BF46F0010616EB0E7655F10002D1
:1015300054F1000103D5BDE88901BDE80088BDE88C
:101540008901BDE80048B619524141EB0101A3F100
:101550000103704780807F7E7D7C7B7A7978777607
:1015600076757473727171706F6E6E6D6C6C6B6A80
:101570006A6968686766666564646363626161601E
:10158000605F5F5E5E5D5D5C5C5B5B5A5A5959589B
:101590005857575656555555545453535252525105
:1015A000515050504F4F4F4E4E4D4D4D4C4C4C4B5B
:1015B0004B4B4A4A4A4949494848484747474746A2
:1015C00046464545454444444443434343424242DE
:1015D00042414141002B26D4770021D01CB54FEA6F
:1015E000370703B44FF010004FF010014FF0000028
:1015F0000FBCBDE810400BF1010BBBF1010F08BFA0
:101600005FEA170722BF12F1010211F101014FF049
:10161000004143F1000300F0004043EA000070473E
:10162000F9D35708DAE746EA064613F1400F4FEAC6
:1016300016461FDD13F1200FDFBF16430A460021B7
:1016400020335B42C8D0C3F1200746EA064602FABF
:1016500007F74FEA164646EA0706C3F1200722FAC3
:1016600003F201FA07F721FA03F14FF0000342EA0F
:101670000702B1E746EA020646EA06464FEA164680
:1016800046EA0106BCBF46EA0646360C4FF00003A8
:101690004FF000024FF000019EE72DE9C04893464D
:1016A00030B491E8380007C831EA400C48BF34EA4A
:1016B000430C03D5FFF7F2FDFFF78CFFF0BCBDE84C
:1016C00000882DE9C048934630B491E8380007C837
:1016D00010F0804F08BF13F0804F03D100F005F8E1
:1016E000FFF778FFF0BCBDE8008820F07F4780EA74
:1016F000030023F07F4C07EB0C03A3F57C5300F0B1
:101700000040A3F1FE0392F0000F00F0B38095F0CB
:10171000000F00F077802DE901494FEA11404FEAB0
:10172000144621EA004800FB06FC24EA064708FBB1
:1017300006F607FB08F800FB07F718EB06484CEB2A
:10174000164C4FEA124B18EB07484FEA15464CEB84
:10175000174022EA0B4E0BFB06FC25EA06470EFB60
:1017600006F607FB0EFE0BFB07F71EEB064E4CEBD7
:10177000164C4FF000061EEB074E4CEB174B18EBC8
:101780000B0840F1000018EB0E0B58EB000840F17D
:1017900000008F1A4FF000013CBFC943661B14BF05
:1017A000B5EB040C00213CBFC943F61B4FEA1744BC
:1017B0004EEA8E0E27EA04454FEA1C4704FB0762F7
:1017C0002CEA074C05FB07F70CFB05F604FB0CFCA9
:1017D00016EB074642EB174216EB0C4642EB1C4257
:1017E0001BEB060658EB0202414146EA9E0601D574
:1017F000BDE80189B619524141EB0101A3F1010392
:10180000BDE801894FEA14454FEA114724EA05462D
:1018100021EA074C05FB07F406FB07F70CFB06F172
:1018200005FB0CFC11EB074144EB17444FEA124750
:1018300011EB0C4144EB1C4422EA074C05FB07F278
:1018400006FB07F70CFB06F605FB0CFC16EB074640
:1018500042EB174216EB0C4642EB1C456A1854F15A
:10186000000148BF7047B619524141EB0101A3F195
:101870000103704795F0000F37D04FEA11424FEA4D
:10188000144721EA024624EA074C02FB07F106FB53
:1018900007F70CFB06F402FB0CFC14EB074441EBCE
:1018A00017414FEA154714EB0C4441EB1C4125EA64
:1018B000074C02FB07F506FB07F70CFB06F602FBDD
:1018C0000CFC16EB074645EB174516EB0C4645EBB3
:1018D0001C42121951F1000148BF7047B61952411C
:1018E00041EB0101A3F1010370474FEA14454FEAB0
:1018F000114724EA054621EA074C05FB07F106FBE0
:1019000007F70CFB06F24FF0000605FB0CFC12EB90
:10191000074241EB174112EB0C4251EB1C4148BF0F
:101920007047921841EB0101A3F1010370470000D9
:1019300010B5ADF5467DC820C5904FF43C7109A89F
:10194000FEF795FE00200890079006900590049001
:1019500003907BE1C820C59000200890039006907A
:101960001BE0002005900FE00020BDF81810C1EB2F
:10197000011109AA02EB4101BDF814208854BDF8F9
:101980001400401C80B20590BDF814001E28EBDB4B
:10199000BDF81800401C80B20690BDF81800192848
:1019A000DFDB00200790069005900490A84908709E
:1019B000A84908800120A8490870A8A007F0C0FE27
:1019C00015E0192007F068FDA248008800F40040E7
:1019D00068B10020A04908709E480088C0F30E003E
:1019E000049000209A49BDF81020885406E09DF824
:1019F0001403401EC0B2C5900028E2D100BF9DF87C
:101A0000140318B998A0FEF76BFC1FE100200790A3
:101A10004DE08F48BDF81C10405C222825D1BDF850
:101A20001C00C01E8A49085C282802D101200890A9
:101A30001BE09DF82000C0B100200890BDF81810F0
:101A4000C1EB011109AA02EB4101BDF81420885431
:101A5000BDF81800401C80B2069000200590BDF82B
:101A60001C001C3080B207901CE09DF82000C0B123
:101A70007749BDF81C00401C085C222811D00A469A
:101A8000BDF81C10491C525CBDF81400411C89B201
:101A90000591BDF81810C1EB011109AB03EB410131
:101AA0000A5400BFBDF81C00401C80B20790BDF86E
:101AB0001C00BDF810108842ABDB4FF6FF702F23DF
:101AC000EF2200210090084601F0CAFA1F206C495D
:101AD00008806CA010210B46F022CDE900100F21E8
:101AE000084605F04DFE4EF6EE6040F23F13EF2241
:101AF00030210090002001F0B3FA002060490880F6
:101B00003023EF22194601F081F8002007903FE0D2
:101B1000BDF81C00C0EB001009A901EB4002BDF8A4
:101B20001C105DA0FEF7DCFBBDF81C00C0EB001034
:101B300009A901EB40001021CDE90010BDF81C00FF
:101B400000EB800080003C3081B21023F0223C206A
:101B500005F016FEBDF81800401EBDF81C108842A6
:101B600011D0BDF81C0000EB800080004E3083B225
:101B7000BDF81C0000EB800080004E3081B2EF22E7
:101B80003C2001F043F8BDF81C00401C80B20790D7
:101B9000BDF81C00BDF818108842B9DBBDF81C0068
:101BA00000EB80008000443083B2BDF81C0000EBE5
:101BB00080008000443081B2EF22002001F026F83E
:101BC00041E03948416800208847374890F82000B4
:101BD00000F0800050B33448808934490988884235
:101BE00031DA3148C08A3149498888422BDA2E4897
:101BF000C08A3C2819DD2C48C08A3C38142190FB4F
:101C0000F1F4C4EB041009A901EB40002849086075
:101C10000846016827A0FEF763FB4FF4967007F0B3
:101C20003BFC00200DF5467D10BD0CE00A2007F0BE
:101C300033FCBDF80C00401C80B2039040F25231DE
:101C4000884200D100E0BCE700BF00BF82E6000090
:101C5000B80500208E000020EC00002041542B43EA
:101C6000574C41503D0D0A0041636B204572726F25
:101C7000722E2E2E5265747279696E670D0A0000FD
:101C800090000020506C656173652073656C65631E
:101C90007420776966693A0041505F5441425B2580
:101CA000645D3A25730D0A0054000020680A002084
:101CB000B0000020776966697374615F737369644B
:101CC0003A25730D0A00000000BFFEE721B102684B
:101CD00042F00102026004E002684FF6FE731A400F
:101CE0000260704701684FF6FE72114001600021EA
:101CF000016041608160C1604B49884208D14A4916
:101D00000839496841F00F01474A083A51608AE0B2
:101D100045491431884208D143490839496841F09E
:101D2000F001414A083A51607DE03F49283188423C
:101D300008D13D490839496841F470613A4A083A86
:101D4000516070E038493C31884208D13649083941
:101D5000496841F47041344A083A516063E03249BD
:101D60005031884208D130490839496841F470211E
:101D70002D4A083A516056E02B496431884208D117
:101D800029490839496841F47001274A083A5160E5
:101D900049E025497831884208D123490839496802
:101DA00041F07061204A083A51603CE01F49884286
:101DB00006D1011F096841F00F01021F116032E0D6
:101DC0001A491431884208D11849091F096841F09D
:101DD000F001164A121F116025E01449283188428B
:101DE00008D11249091F096841F470610F4A121F96
:101DF000116018E00D493C31884208D10B49091F98
:101E0000096841F47041094A121F11600BE007494B
:101E10005031884207D10549091F096841F47021F2
:101E2000024A121F11607047080002400804024075
:101E30000146486880B2704710B50022026847F634
:101E4000F0739A430C6A8B6823430C6923434C69F3
:101E500023438C692343CC6923434C6A23438C6A14
:101E600023431A430260CB6843600B6883604B686E
:101E7000C36010BD416070477047000010B586B068
:101E800000200590049001200390002002904FF65E
:101E9000FF7000F097FD1F20ED490880EDA0102194
:101EA0000B46C822CDE900101421402005F068FC43
:101EB000ED48006810210B46C822CDE9001028210A
:101EC000402005F05DFC4FF47840E14908804EF673
:101ED000EE60E64908803223342219210090002068
:101EE00001F0BEF8E2A010210B463222CDE900102D
:101EF0001E21022005F044FC48F23040D4490880FD
:101F00004EF6EE603223EF2219210090CB2001F033
:101F1000A7F8D9A010210B462322CDE900101E21DD
:101F2000CD2005F02DFC0020C94908804FF6FF7038
:101F3000CE4908804B23EF221946002000F066FEB0
:101F4000CFA010210B46C822CDE90010502114204B
:101F500005F016FC6523EF221946002000F056FE1E
:101F6000002000F033FC4FF6FF70C04908806EE19E
:101F7000C548416800208847C34890F8200000F019
:101F8000800000287ED09DF80C000028FAD0BE48C2
:101F90008089BE490988884275DABB48C08ABB4936
:101FA00049888842F8DAB848C08A19282EDBB64832
:101FB000C08A32282ADCB4488089342814DA4FF4E5
:101FC000C87007F069FA4FF6FF7000F0FBFCB0A094
:101FD00018210B46C822CDE900109621192005F0E2
:101FE000CFFB012006B010BDA7488089CB280DDDAE
:101FF000AC480078082809DBAB49ACA0FEF770F9C3
:102000004FF4967007F048FA0020EBE79E48C08A2C
:10201000782838DD002003909B48C08A7838322128
:1020200090FBF1F0C0B2059097488089502190FB59
:10203000F1F0C0B204909DF8140000EB4000A149FB
:1020400008449DF81010405C302863DB9DF81400B4
:1020500000EB40009B4908449DF81010405C392873
:1020600058DC002000909DF8141001EB4101954BC5
:1020700019449DF81030CA5C8A49097801EB810146
:102080003C2301E0B6E0B7E003EB41001023502110
:1020900005F0E2FA9DF8141001EB4101894A114460
:1020A0009DF810208A5C7F490878411C7D4B19708F
:1020B0007D490A5400201A461278885482A0FEF7FF
:1020C0000FF97848007808281FDB4FF47840604902
:1020D00008804EF6EE60654908803223EF22192110
:1020E0000090CB2000F0BCFF63A010210B46232200
:1020F000CDE900101E21CD2005F042FB00205449FF
:1021000008804FF6FF70594908804FF4967007F029
:10211000C3F971E09DF8140000EB400069490844E0
:102120009DF81010405C41280ED105F0A1FB04463B
:102130000CB9002056E7012C03D1002000F046FB2B
:1021400001E001204EE757E056480078002804DD02
:1021500054480078401E53490870002051490090AF
:10216000097801EB81013C2202EB4100102320227F
:10217000502105F071FA00204A490090097801EBDE
:102180008101462202EB410010232022502105F05C
:1021900063FA00204449434A127888544AA0FEF763
:1021A0009FF84048007808281FDA48F23040284954
:1021B00008804EF6EE602D4908803223EF22192167
:1021C0000090CB2000F04CFF2BA010210B462322C7
:1021D000CDE900101E21CD2005F0D2FA00201C49C7
:1021E00008804FF6FF70214908804FF4967007F081
:1021F00053F901E0012003900A2007F04DF99DF802
:102200000800401CC0B2029032280DD100202549A0
:102210000090097801EB81013C2202EB4100102380
:102220007C22502105F018FA9DF8080064280ED190
:10223000002002901B490090097801EB81013C22AB
:1022400002EB410010232022502105F005FA8FE611
:1022500090000020456E74657220546865205057C8
:1022600044206F6600000000B000002092000020B3
:1022700043616E63656C00004A6F696E0000000088
:102280005057443A0000000054000020680A002023
:1022900077696669207363616E6E696E672E2E2E94
:1022A00000000000B4000020489F002077696669A4
:1022B0007374615F70617373776F72643A25730D25
:1022C0000A00000066B600085057445F54656D7000
:1022D0003A25730D0A0000002DE9F0410246002561
:1022E0000026002000230024002791F803C00CF0F2
:1022F0000F0591F803C00CF0100CBCF1000F03D0D7
:1023000091F802C04CEA050591F800C0BCF1000F3D
:1023100031D0146800202BE04FF0010C0CFA00F3D0
:10232000B1F800C00CEA03069E4220D183004FF0B2
:102330000F0C0CFA03F7BC4305FA03FC4CEA040447
:1023400091F803C0BCF1280F06D14FF0010C0CFA34
:1023500000FCC2F814C00AE091F803C0BCF1480FB9
:1023600005D14FF0010C0CFA00FCC2F810C0401C63
:102370000828D1D31460B1F800C0BCF1FF0F34DDE0
:10238000546800202EE000F1080C4FF0010808FA14
:102390000CF3B1F800C00CEA03069E4221D1830081
:1023A0004FF00F0C0CFA03F7BC4305FA03FC4CEAA0
:1023B000040491F803C0BCF1280F05D100F1080C0A
:1023C00008FA0CF8C2F8148091F803C0BCF1480F69
:1023D00007D100F1080C4FF0010808FA0CF8C2F818
:1023E0001080401C0828CED35460BDE8F081000066
:1023F000F0B50A46002300240021002500F0004625
:10240000B6F1004F02D11D4EF16901E01B4E71681B
:10241000C0F3034583B200F44016B6F5401F08D15F
:1024200021F07061154E766826F07066134F7E605D
:1024300012E000F48016B6F5801F06D1032606FAD6
:1024400005F4A14341F0706106E0460D360103FA40
:1024500006F6B14341F0706122B1460D360103FA30
:1024600006F6314300F00046B6F1004F02D1034EAC
:10247000F16101E0014E7160F0BD0000000001401B
:102480000161704700BFFEE77FB50446002003905E
:1024900002904EF6EE6040F23F13EF22662100906C
:1024A000002000F0DDFD4EF6EE60BE490880002001
:1024B000BD490880002C7DD00390AFE00020029041
:1024C000A2E09DF80C0003281CDA002000909DF883
:1024D0000C30C3EBC303B54D2B449DF808505A5D37
:1024E0009DF80C3003EB8303DB0003F178019DF8CA
:1024F000083003EB03135B0003F10E00102305F01B
:10250000ABF87BE09DF80C00032824D19DF808006F
:1025100018B19DF80800062800D170E00020009056
:102520009DF80C30C3EBC303A04D2B449DF808501D
:102530005A5D9DF80C3003EB8303DB0003F1780157
:102540009DF8083003EB03135B0003F10E0010232A
:1025500005F082F852E09DF80C00C0EBC0009449F1
:1025600008449DF80810405C31280FD191A010213B
:10257000CDE900109DF80C0000EB8000C00000F1D8
:1025800078011023C8221C2005F0FAF89DF80C00F1
:10259000C0EBC000864908449DF80810405C2B2819
:1025A00011D185A01021CDE900109DF80C0000EBA1
:1025B000800000E038E0C00000F178011023C8225C
:1025C000642005F0DDF89DF80C00C0EBC0007849F0
:1025D00008449DF80810405C32280FD178A01021E3
:1025E000CDE900109DF80C0000EB8000C00000F168
:1025F00078011023C822BC2005F0C2F800BF9DF866
:102600000800401CC0B202909DF808000728FFF6A1
:1026100058AF9DF80C00401CC0B203909DF80C0010
:102620000528FFF64BAFB5E000200390ADE0002099
:102630000290A0E09DF80C0003281CDA0020009016
:102640009DF80C30C3EBC303594D2B449DF8085043
:102650005A5D9DF80C3003EB8303DB0003F1780136
:102660009DF8083003EB03135B0003F10E00102309
:1026700004F0F2FF79E09DF80C00032824D19DF8C6
:10268000080018B19DF80800062800D16EE000206F
:1026900000909DF80C30C3EBC303454D2B449DF8CF
:1026A00008505A5D9DF80C3003EB8303DB0003F107
:1026B00078019DF8083003EB03135B0003F10E0073
:1026C000102304F0C9FF50E09DF80C00C0EBC000DF
:1026D000374908449DF80810405C31280FD135A0D7
:1026E0001021CDE900109DF80C0000EB8000C00027
:1026F00000F178011023C8221C2005F041F89DF854
:102700000C00C0EBC0002A4908449DF80810405C4A
:102710002B280FD12BA01021CDE900109DF80C0023
:1027200000EB8000C00000F178011023C822642073
:1027300005F026F89DF80C00C0EBC0001C490844C9
:102740009DF80810405C32280FD11DA01021CDE962
:1027500000109DF80C0000EB8000C00000F1780133
:102760001023C822BC2005F00BF800BF9DF808001C
:10277000401CC0B202909DF808000728FFF65AAF2F
:102780009DF80C00401CC0B203909DF80C00052879
:10279000FFF64DAF4FF6FF7002490880002004B0ED
:1027A00070BD0000920000209000002095B6000847
:1027B00072B6000831323300736869667400000035
:1027C00064656C0053686966740000007FB5044658
:1027D0000020039002904EF6EE6040F23F13EF228D
:1027E00066210090002000F03BFC4EF6EE606F4941
:1027F000088000206E490880039090E0002002903D
:1028000083E09DF80C0000EB40006A4908449DF805
:102810000810405C302826DB9DF80C0000EB4000DF
:10282000644908449DF80810405C39281BDC0020EE
:1028300000909DF80C3003EB43035E4D2B449DF854
:1028400008505A5D9DF80C3032256B4303F1780136
:102850009DF8083003EB83031B0103F124001023D0
:1028600004F0FAFE4CE09DF80C0000EB40005149EA
:1028700008449DF80810405C41282CD1ACB14EA012
:102880001021CDE900109DF80C2032235A4302F1AB
:1028900078019DF8082002EB8202120102F11C006F
:1028A0001023C82204F06CFF2AE044A01021CDE9D7
:1028B00000109DF80C2032235A4302F178019DF854
:1028C000082002EB8202120102F11C001023C82230
:1028D00004F056FF14E03AA01021CDE900109DF855
:1028E0000C2032235A4302F178019DF8082002EBB4
:1028F0008202120102F11C001023C82204F040FFE2
:102900009DF80800401CC0B202909DF80800032802
:10291000FFF677AF9DF80C00401CC0B203909DF805
:102920000C000428FFF66AAF0020039013E09DF826
:102930000C003222504300F199039DF80C005043E3
:1029400000F19901EF22002000F060F99DF80C00E1
:10295000401CC0B203909DF80C000328E7DB002068
:10296000039017E09DF80C1001EB8101090101F1C2
:1029700050029DF80C1001EB8101090101F150009A
:1029800040F23F13652100F041F99DF80C00401C16
:10299000C0B203909DF80C000228E3DB4FF6FF70F5
:1029A00002490880002004B070BD000092000020A1
:1029B0009000002066B60008202E2000414243000F
:1029C00064656C0070B5044600261D480588408883
:1029D00045431B48808846F60401884216D11848B2
:1029E0008079012812D10020154988712A20488158
:1029F0002B2088810021084604F050FC012010495A
:102A000088712B2048812A20888103E00021084614
:102A100004F044FC04F00CFF00260DE04FF480703D
:102A20000849086140004861074804608020486107
:102A3000086180000861761CAE42EFD370BD0000D3
:102A4000680A0020001001400C0C014010B504463B
:102A5000002C66D16C498871F02008804FF4A0707A
:102A600048800846808849F2413188420BD0664848
:102A7000808846F60401884205D06348808845F284
:102A8000103188421AD12C205F4908812A204881C0
:102A90002B2088810846808846F60401884205D0AC
:102AA0005948808845F21031884206D14FF4A07011
:102AB000554908804FF4F0704880A1E05248808862
:102AC00045F21051884210D14FF430504E490881E0
:102AD0004FF4285048814FF42C5088814FF4F07007
:102AE00008804FF4487048808AE04748808841F663
:102AF000631188420DD12C20434908812B20488145
:102B00002A2088814FF4F07008804FF44870488084
:102B100076E022203C4908812020488121208881BC
:102B20006EE00120384988714FF4A0700880F020D1
:102B300048800846808849F24131884205D03248B1
:102B4000808845F21031884207D12C202E49088117
:102B50002A2048812B2088813FE02B48808846F638
:102B60000401884207D12C20274908812B20488165
:102B70002A20888131E02448808845F2105188421B
:102B800010D14FF43050204908814FF4285048812B
:102B90004FF42C5088814FF4487008804FF4F07047
:102BA00048801AE01848808841F6631188420DD1A8
:102BB0002C20154908812A2048812B2088814FF438
:102BC000487008804FF4F070488006E022200E49DB
:102BD000088121204881202088810B48808846F682
:102BE0000401884205D00848808845F210318842A7
:102BF00006D14FF4F070044908804FF4A07048806B
:102C0000002004F01FF910BD680A00202DE9FF4FD5
:102C100084B081468A460020039002900698A0EB7B
:102C200009050798A0EB0A06CDF80490CDF800A09E
:102C3000002D01DD012705E00DB9002702E04FF06E
:102C4000FF376D42002E02DD4FF0010806E016B995
:102C50004FF0000802E04FF0FF387642B54201DD48
:102C60002C4600E034464FF0000B21E0009A91B270
:102C7000019A90B200F022F8039828440390029839
:102C8000304402900398A04205DD0398001B039096
:102C90000198384401900298A04205DD0298001B7B
:102CA00002900098404400900BF101001FFA80FB55
:102CB000601C8345DADD08B0BDE8F08F30B504460E
:102CC0000D462946204604F0E9FA04F0B1FD4FF420
:102CD000807007490861400048610648008806493D
:102CE000086080200249486108618000086130BDA9
:102CF00000100140900000200C0C014070B504460B
:102D00000D461646D348808849F24131884205D0A5
:102D1000D048808845F21031884240D1CD49488959
:102D200004F074FD4FF48070CB49086140004861A5
:102D30002012CA4908608020C749486108618000A4
:102D400008614010086140004861E0B2C349086072
:102D50008020C1494861086180000861BD498889B7
:102D600004F054FD4FF48070BB4908614000486195
:102D70002812BA4908608020B7494861086180007C
:102D800008614010086140004861E8B2B34908603A
:102D90008020B14948610861800008613DE1AD488B
:102DA000808845F21051884250D1AA49488904F0E0
:102DB0002DFD4FF48070A849086140004861201241
:102DC000A64908608020A449486108618000086124
:102DD000A0494989491C88B204F018FD4FF480705D
:102DE0009D49086140004861E0B29C49086080202C
:102DF000994948610861800008619649888904F012
:102E000005FD4FF480709449086140004861281224
:102E100092490860802090494861086180000861FB
:102E20008C498989491C88B204F0F0FC4FF4807009
:102E30008949086140004861E8B2884908608020FB
:102E400085494861086180000861E6E08148808822
:102E500041F6631188427DD17E48807920B97D4852
:102E60000088401E001B84B27A49488904F0CEFCD9
:102E70004FF480707849086140004861201277491A
:102E80000860802074494861086180000861401032
:102E9000086140004861E0B27049086080206E49D6
:102EA0004861086180000861401008614000486185
:102EB00020126A49086080206749486108618000E3
:102EC00008614010086140004861E0B26349086051
:102ED0008020614948610861800008615D498889F6
:102EE00004F094FC4FF480705B4908614000486135
:102EF00028125A49086080205749486108618000BB
:102F000008614010086140004861E8B25349086018
:102F100080205149486108618000086140100861C3
:102F20004000486128124D49086080204A494861A4
:102F30000861800008614010086140004861E8B203
:102F40004649086080204449486108618000086162
:102F500063E0FFE73F48808846F60401884249D194
:102F60003C488079012804D13A480088401E001B63
:102F700084B23849488904F049FC4FF480703649DE
:102F800008614000486120123449086080203249BD
:102F90004861086180000861401008614000486194
:102FA000E0B22E49086080202B494861086180000A
:102FB00008612849888904F029FC4FF4807026496B
:102FC0000861400048612812244908608020224995
:102FD0004861086180000861401008614000486154
:102FE000E8B21E49086080201B49486108618000E2
:102FF000086112E017488079012804D1154800883B
:10300000401E001B84B213494889214604F018FC75
:1030100010498889294604F013FC4FF480700E494A
:103020004861400048610B4800890C4908608020D5
:10303000094948610861800008614010086140004A
:103040004861064806608020486108618000086188
:1030500070BD0000680A0020001001400C0C014007
:103060002DE9FC4F05460E4617469846DDF82C9094
:10307000002001902C48808846F60401884229D11E
:1030800029488079012825D1AB4635462648008855
:10309000C01B401E86B2474623480088A0EB0B00A9
:1030A000401E1FFA80F800201F4988712A2048819D
:1030B0002B20888143463A4631462846CDF8009079
:1030C000FFF7CEFF0120184988712B2048812A2064
:1030D000888127E0781B401C80B2019034461FE0B5
:1030E0002146284604F0DAF804F0A2FB4FF0000A6B
:1030F00011E04FF480700D490861400048610C48B0
:10310000C0F80090802048610861800008610AF1E1
:1031100001001FFA80FA01988245EADB601C84B244
:103120004445DDDDBDE8FC8F680A00200010014049
:103130000C0C014008B50121192004F07FFE01218B
:10314000FE48FFF755F94FF4F860ADF80000102085
:103150008DF8030003208DF802006946F848FFF758
:10316000BBF84FF4F861F648FFF78AF94FF6FF70A5
:10317000ADF800006946F348FFF7AEF84FF6FF716F
:10318000F048FFF77DF9322006F086F90121002092
:1031900004F056FB322006F07FF9002003F0E0FD3A
:1031A000E949888008468088FF280ADB084680882D
:1031B0004FF6FF71884204D0E3488088B0F5134F82
:1031C0007ED1D32004F022FB03F092FD03F090FDAA
:1031D00003F08EFDDC498880084680884FF6FF7139
:1031E00001EA0020D849888003F082FDD649898809
:1031F0000843D54988800846808849F24131884291
:103200005ED0BF2004F002FB03F072FD03F070FDFE
:1032100003F06EFD03F06CFDCB4988800846808882
:103220004FF6FF7101EA0020C749888003F060FD76
:10323000C54989880843C44988800846808846F67D
:103240000401884274D0D42004F0E0FA03F050FD69
:1032500003F04EFD03F04CFDBB4988800846808892
:103260004FF6FF7101EA0020B749888003F040FD66
:10327000B54989880843B44988800846808845F262
:103280001031884254D04FF45A4004F0BFFA03F092
:103290002FFD4FF45B4004F0B9FA03F029FDAA4971
:1032A0008880084680884FF6FF7101EA0020A64911
:1032B00088804FF45C4004F0A9FA03F019FD00E0A7
:1032C00036E0A149898808439F498880084680885C
:1032D000B0F5004F02D145F2105088809A4880889E
:1032E00045F21051884223D0A12004F08FFA03F058
:1032F000FFFC9549888003F0FBFC934988800846D1
:1033000080884FF6FF7101EA00208F49888003F022
:10331000EFFC8D49898808438B498880084680885E
:1033200045F26171884203D141F663108649888075
:103330008548818885A0FCF7D3FF8348808849F2BF
:10334000413188427ED1CF2004F060FA002004F0A1
:103350004BFAC12004F048FA302004F045FAED2081
:1033600004F054FA642004F03FFA032004F03CFA1D
:10337000122004F039FA812004F036FAE82004F033
:1033800045FA852004F030FA102004F02DFA7A2056
:1033900004F02AFACB2004F039FA392004F024FA98
:1033A0002C2004F021FA002004F01EFA342004F04E
:1033B0001BFA022004F018FAF72004F027FA202064
:1033C00004F012FAEA2004F021FA002004F00CFACA
:1033D000002004F009FAC02004F018FA1B2004F0C1
:1033E00003FAC12004F012FA012004F0FDF9C5200F
:1033F00004F00CFA302004F0F7F9302004F0F4F96E
:10340000C72004F003FAB72004F0EEF9362004F0E8
:10341000FDF9482004F0E8F93A2004F0F7F95520C6
:1034200004F0E2F9B12004F0F1F9002004F0DCF935
:103430001A2004F0D9F9B62004F0E8F90A2004F0C3
:10344000D3F900E0A9E0A22004F0CEF9F22004F0C4
:10345000DDF9002004F0C8F9262004F0D7F9012096
:1034600004F0C2F9E02004F0D1F90F2004F0BCF917
:103470002A2004F0B9F9282004F0B6F9082004F055
:10348000B3F90E2004F0B0F9082004F0ADF954208F
:1034900004F0AAF9A92004F0A7F9432004F0A4F944
:1034A0000A2004F0A1F90F2004F09EF9002004F096
:1034B0009BF9002004F098F9002004F095F9002011
:1034C00004F092F9E12004F0A1F9002004F08CF955
:1034D000152004F089F9172004F086F9072004F07C
:1034E00083F9112004F080F9062004F07DF92B20E7
:1034F00004F07AF9562004F077F93C2004F074F9CE
:10350000052004F071F9102004F06EF90F2004F08A
:103510006BF93F2004F068F93F2004F065F90F20B3
:1035200004F062F92B2004F071F9002004F05CF93A
:10353000002004F059F9012010E0000000023000E2
:1035400000100140000C0140680A0020204C434458
:103550002049443A25780D0A0000000004F044F99F
:103560003F2004F041F92A2004F050F9002004F033
:103570003BF9002004F038F9002004F035F9EF2081
:1035800004F032F9112004F041F9782005F084FFAD
:10359000292004F03BF903F09ABBFE48808846F6E8
:1035A000040188427ED1112004F030F9142005F086
:1035B00073FFD02004F02AF9072004F015F9422007
:1035C00004F012F91D2004F00FF9D12004F01EF9C7
:1035D000002004F009F91A2004F006F9092004F08B
:1035E00003F9D22004F012F9012004F0FDF82220A2
:1035F00004F0FAF8C02004F009F9102004F0F4F8FF
:103600003B2004F0F1F8002004F0EEF8022004F072
:10361000EBF8112004F0E8F8C52004F0F7F80320D7
:1036200004F0E2F8C82004F0F1F8002004F0DCF81F
:10363000252004F0D9F8212004F0D6F8052004F064
:10364000D3F8002004F0D0F80A2004F0CDF865206B
:1036500004F0CAF8252004F0C7F8772004F0C4F875
:10366000502004F0C1F80F2004F0BEF8002004F050
:10367000BBF8F82004F0CAF8012004F0B5F8FE20E9
:1036800004F0C4F8002004F0AFF8022004F0ACF815
:10369000202004F0BBF8362004F0B8F8082004F02D
:1036A000A3F800E02AE03A2004F0B0F8552004F036
:1036B0009BF82B2004F0AAF8002004F095F80020D5
:1036C00004F092F8012004F08FF83F2004F08CF809
:1036D0002A2004F09BF8002004F086F8002004F073
:1036E00083F8012004F080F8DF2004F07DF87820D2
:1036F00005F0D2FE292004F089F84CE7A54880881F
:1037000045F21031884240F07C87ED2004F07EF8CD
:10371000012004F069F8FE2004F066F8EE2004F0C1
:1037200075F8DE2004F060F8212004F05DF8F12047
:1037300004F06CF8012004F057F8DF2004F066F87C
:10374000102004F051F8C42004F060F88F2004F039
:103750004BF8C62004F05AF8002004F045F8E220A7
:1037600004F042F8E22004F03FF8E22004F03CF8D4
:10377000BF2004F04BF8AA2004F036F8B02004F083
:1037800045F80D2004F030F8002004F02DF80D204D
:1037900004F02AF8002004F027F8112004F024F89F
:1037A000002004F021F8192004F01EF8002004F095
:1037B0001BF8212004F018F8002004F015F82D2043
:1037C00004F012F8002004F00FF83D2004F00CF88B
:1037D000002004F009F85D2004F006F8002004F051
:1037E00003F85D2004F000F8002003F0FDFFB12095
:1037F00004F00CF8802003F0F7FF002003F0F4FF42
:103800008B2003F0F1FF002003F0EEFF962003F081
:10381000EBFF002003F0E8FFB22003F0F7FF0020E9
:1038200003F0E2FF002003F0DFFF022003F0DCFFE3
:10383000002003F0D9FF032003F0D6FF002003F09F
:10384000D3FFB32003F0E2FF002003F0CDFF002000
:1038500003F0CAFF002003F0C7FF002003F0C4FFFD
:10386000002003F0C1FF002003F0BEFF002003F0A2
:10387000BBFF002003F0B8FF002003F0B5FF0020DD
:1038800003F0B2FF002003F0AFFF002003F0ACFF15
:10389000002003F0A9FF002003F0A6FF002003F0A2
:1038A000A3FF002003F0A0FF002003F09DFF0020F5
:1038B00003F09AFF002003F097FF002003F094FF2D
:1038C000002003F091FF002003F08EFF002003F0A2
:1038D0008BFF002003F088FFB42003F097FF8B20BC
:1038E00003F082FF002003F07FFF962003F07CFFAF
:1038F000002003F079FFA12003F076FF002003F001
:1039000073FFB52003F082FF022003F06DFF00205B
:1039100003F06AFF032003F067FF002003F064FF59
:10392000042003F061FF002003F05EFFB62003F0E7
:103930006DFF002003F058FF002003F055FFB72073
:1039400003F064FF002003F04FFF002003F04CFF62
:103950003F2003F049FF002003F046FF5E2003F004
:1039600043FF002003F040FF642003F03DFF0020F0
:1039700003F03AFF8C2003F037FF002003F034FF00
:10398000AC2003F031FF002003F02EFFDC2003F019
:103990002BFF01E0680A0020002003F025FF7020C3
:1039A00003F022FF002003F01FFF902003F01CFF14
:1039B000002003F019FFEB2003F016FF002003F0B6
:1039C00013FFDC2003F010FF002003F00DFFB820F0
:1039D00003F01CFF002003F007FF002003F004FFAA
:1039E000002003F001FF002003F0FEFE002003F0A2
:1039F000FBFE002003F0F8FE002003F0F5FE00209F
:103A000003F0F2FEBA2003F001FF242003F0ECFEE5
:103A1000002003F0E9FE002003F0E6FE002003F0A2
:103A2000E3FEC12003F0F2FE202003F0DDFE0020C3
:103A300003F0DAFE542003F0D7FE002003F0D4FE9A
:103A4000FF2003F0D1FE002003F0CEFEC22003F0E1
:103A5000DDFE0A2003F0C8FE002003F0C5FE0420AE
:103A600003F0C2FE002003F0BFFEC32003F0CEFE31
:103A70003C2003F0B9FE002003F0B6FE3A2003F02C
:103A8000B3FE002003F0B0FE392003F0ADFE0020AD
:103A900003F0AAFE372003F0A7FE002003F0A4FEE7
:103AA0003C2003F0A1FE002003F09EFE362003F030
:103AB0009BFE002003F098FE322003F095FE0020CC
:103AC00003F092FE2F2003F08FFE002003F08CFE07
:103AD0002C2003F089FE002003F086FE292003F04D
:103AE00083FE002003F080FE262003F07DFE0020F0
:103AF00003F07AFE242003F077FE002003F074FE2A
:103B0000242003F071FE002003F06EFE232003F05A
:103B10006BFE002003F068FE3C2003F065FE0020F1
:103B200003F062FE362003F05FFE002003F05CFE2F
:103B3000322003F059FE002003F056FE2F2003F040
:103B400053FE002003F050FE2C2003F04DFE002019
:103B500003F04AFE292003F047FE002003F044FE54
:103B6000262003F041FE002003F03EFE242003F057
:103B70003BFE002003F038FE242003F035FE002039
:103B800003F032FE232003F02FFE002003F02CFE72
:103B9000C42003F03BFE622003F026FE002003F069
:103BA00023FE052003F020FE002003F01DFE8420EC
:103BB00003F01AFE002003F017FEF02003F014FEBD
:103BC000002003F011FE182003F00EFE002003F089
:103BD0000BFEA42003F008FE002003F005FE1820D1
:103BE00003F002FE002003F0FFFD502003F0FCFD77
:103BF000002003F0F9FD0C2003F0F6FD002003F097
:103C0000F3FD172003F0F0FD002003F0EDFD9520FB
:103C100003F0EAFD002003F0E7FDF32003F0E4FDEC
:103C2000002003F0E1FDE62003F0DEFD002003F0BC
:103C3000DBFDC52003F0EAFD322003F0D5FD0020B6
:103C400003F0D2FD442003F0CFFD002003F0CCFDB3
:103C5000652003F0C9FD002003F0C6FD762003F0C7
:103C6000C3FD002003F0C0FD882003F0BDFD00204F
:103C700003F0BAFDC62003F0C9FD202003F0B4FD17
:103C8000002003F0B1FD172003F0AEFD002003F08B
:103C9000ABFD012003F0A8FD002003F0A5FDC72027
:103CA00003F0B4FD002003F09FFD002003F09CFD15
:103CB000002003F099FD002003F096FDC82003F0DA
:103CC000A5FD002003F090FD002003F08DFD0020F5
:103CD00003F08AFD002003F087FDC92003F096FD64
:103CE000002003F081FD002003F07EFD002003F0A2
:103CF0007BFD002003F078FD002003F075FD00201F
:103D000003F072FD002003F06FFD002003F06CFD56
:103D1000002003F069FD002003F066FD002003F0A1
:103D200063FD002003F060FD002003F05DFD002036
:103D300003F05AFD002003F057FD002003F054FD6E
:103D4000E02003F063FD162003F04EFD002003F099
:103D50004BFD1C2003F048FD002003F045FD212011
:103D600003F042FD002003F03FFD362003F03CFD50
:103D7000002003F039FD462003F036FD002003F05B
:103D800033FD522003F030FD002003F02DFD6420B0
:103D900003F02AFD002003F027FD7A2003F024FD24
:103DA000002003F021FD8B2003F01EFD002003F016
:103DB0001BFD992003F018FD002003F015FDA8203D
:103DC00003F012FD002003F00FFDB92003F00CFDFD
:103DD000002003F009FDC42003F006FD002003F0DD
:103DE00003FDCA2003F000FD002003F0FDFCD220FB
:103DF00003F0FAFC002003F0F7FCD92003F0F4FCF8
:103E0000002003F0F1FCE02003F0EEFC002003F0C2
:103E1000EBFCF32003F0E8FC002003F0E5FCE120DC
:103E200003F0F4FC162003F0DFFC002003F0DCFCC0
:103E30001C2003F0D9FC002003F0D6FC222003F064
:103E4000D3FC002003F0D0FC362003F0CDFC002092
:103E500003F0CAFC452003F0C7FC002003F0C4FCBB
:103E6000522003F0C1FC002003F0BEFC642003F0EC
:103E7000BBFC002003F0B8FC7A2003F0B5FC002066
:103E800003F0B2FC8B2003F0AFFC002003F0ACFC8D
:103E9000992003F0A9FC002003F0A6FCA82003F061
:103EA000A3FC002003F0A0FCB92003F09DFC00203F
:103EB00003F09AFCC42003F097FC002003F094FC6C
:103EC000CA2003F091FC002003F08EFCD22003F006
:103ED0008BFC002003F088FCD82003F085FC002038
:103EE00003F082FCE02003F07FFC002003F07CFC68
:103EF000F32003F079FC002003F076FCE22003F0CD
:103F000085FC052003F070FC002003F06DFC0B2005
:103F100003F06AFC002003F067FC1B2003F064FC44
:103F2000002003F061FC342003F05EFC002003F06D
:103F30005BFC442003F058FC002003F055FC4F20AC
:103F400003F052FC002003F04FFC612003F04CFC16
:103F5000002003F049FC792003F046FC002003F028
:103F600043FC882003F040FC002003F03DFC972038
:103F700003F03AFC002003F037FCA62003F034FCE9
:103F8000002003F031FCB72003F02EFC002003F0EA
:103F90002BFCC22003F028FC002003F025FCC720E6
:103FA00003F022FC002003F01FFCD12003F01CFCD6
:103FB000002003F019FCD62003F016FC002003F0CB
:103FC00013FCDD2003F010FC002003F00DFCF320B7
:103FD00003F00AFC002003F007FCE32003F016FCCA
:103FE000052003F001FC002003F0FEFB0A2003F093
:103FF000FBFB002003F0F8FB1C2003F0F5FB002086
:1040000003F0F2FB332003F0EFFB002003F0ECFBA6
:10401000442003F0E9FB002003F0E6FB502003F00E
:10402000E3FB002003F0E0FB622003F0DDFB002057
:1040300003F0DAFB782003F0D7FB002003F0D4FB79
:10404000882003F0D1FB002003F0CEFB972003F083
:10405000CBFB002003F0C8FBA62003F0C5FB00202B
:1040600003F0C2FBB72003F0BFFB002003F0BCFB52
:10407000C22003F0B9FB002003F0B6FBC72003F019
:10408000B3FB002003F0B0FBD12003F0ADFB002018
:1040900003F0AAFBD52003F0A7FB002003F0A4FB4C
:1040A000DD2003F0A1FB002003F09EFBF32003F0D2
:1040B0009BFB002003F098FBE42003F0A7FB01200A
:1040C00003F092FB002003F08FFB012003F08CFB38
:1040D000002003F089FB022003F086FB002003F0A0
:1040E00083FB2A2003F080FB002003F07DFB3C20B3
:1040F00003F07AFB002003F077FB4B2003F074FB06
:10410000002003F071FB5D2003F06EFB002003F044
:104110006BFB742003F068FB002003F065FB842038
:1041200003F062FB002003F05FFB932003F05CFBD5
:10413000002003F059FBA22003F056FB002003F0FF
:1041400053FBB32003F050FB002003F04DFBBE20D7
:1041500003F04AFB002003F047FBC42003F044FBBC
:10416000002003F041FBCD2003F03EFB002003F0D4
:104170003BFBD32003F038FB002003F035FBDD20B0
:1041800003F032FB002003F02FFBF32003F02CFBA5
:10419000002003F029FBE52003F038FB002003F0AA
:1041A00023FB002003F020FB002003F01DFB002078
:1041B00003F01AFB022003F017FB002003F014FBAE
:1041C000292003F011FB002003F00EFB3C2003F03C
:1041D0000BFB002003F008FB4B2003F005FB002045
:1041E00003F002FB5D2003F0FFFA002003F0FCFA6D
:1041F000742003F0F9FA002003F0F6FA842003F0AB
:10420000F3FA002003F0F0FA932003F0EDFA002017
:1042100003F0EAFAA22003F0E7FA002003F0E4FA40
:10422000B32003F0E1FA002003F0DEFABE2003F031
:10423000DBFA002003F0D8FAC42003F0D5FA0020FE
:1042400003F0D2FACD2003F0CFFA002003F0CCFA2D
:10425000D32003F0C9FA002003F0C6FADC2003F0F3
:10426000C3FA002003F0C0FAF32003F0BDFA0020E7
:1042700003F0BAFAE62003F0C9FA112003F0B4FA09
:10428000002003F0B1FA342003F0AEFA002003F06E
:10429000ABFA562003F0A8FA002003F0A5FA762026
:1042A00003F0A2FA002003F09FFA772003F09CFAB3
:1042B000002003F099FA662003F096FA002003F03C
:1042C00093FA882003F090FA002003F08DFA9920E9
:1042D00003F08AFA002003F087FABB2003F084FA87
:1042E000002003F081FA992003F07EFA002003F009
:1042F0007BFA662003F078FA002003F075FA552067
:1043000003F072FA002003F06FFA552003F06CFA04
:10431000002003F069FA452003F066FA002003F05C
:1043200063FA432003F060FA002003F05DFA4420B2
:1043300003F05AFA002003F057FAE72003F066FA78
:10434000322003F051FA002003F04EFA552003F01A
:104350004BFA002003F048FA762003F045FA0020DB
:1043600003F042FA662003F03FFA002003F03CFA23
:10437000672003F039FA002003F036FA672003F0D3
:1043800033FA002003F030FA872003F02DFA0020E2
:1043900003F02AFA992003F027FA002003F024FA08
:1043A000BB2003F021FA002003F01EFA992003F04D
:1043B0001BFA002003F018FA772003F015FA00200A
:1043C00003F012FA442003F00FFA002003F00CFA75
:1043D000562003F009FA002003F006FA232003F028
:1043E00003FA002003F000FA332003F0FDF9002067
:1043F00003F0FAF9452003F0F7F9002003F0F4F98F
:10440000E82003F003FA002003F0EEF9002003F0A7
:10441000EBF9992003F0E8F9002003F0E5F9872093
:1044200003F0E2F9002003F0DFF9882003F0DCF963
:10443000002003F0D9F9772003F0D6F9002003F02B
:10444000D3F9662003F0D0F9002003F0CDF98820DD
:1044500003F0CAF9002003F0C7F9AA2003F0C4F959
:10446000002003F0C1F9BB2003F0BEF9002003F0E7
:10447000BBF9992003F0B8F9002003F0B5F96620E4
:1044800003F0B2F9002003F0AFF9552003F0ACF9C6
:10449000002003F0A9F9552003F0A6F9002003F04D
:1044A000A3F9442003F0A0F9002003F09DF9442073
:1044B00003F09AF9002003F097F9552003F094F9DE
:1044C000002003F091F9E92003F0A0F9AA2003F0FD
:1044D0008BF9002003F088F9002003F085F9002013
:1044E00003F082F9002003F091F9AA2003F07CF98F
:1044F000CF2003F08BF9002003F076F9002003F0C1
:1045000073F9002003F070F9002003F06DF900202A
:1045100003F06AF9002003F067F9002003F064F962
:10452000002003F061F9002003F05EF9002003F0A1
:104530005BF9002003F058F9002003F055F9002042
:1045400003F052F9002003F04FF9002003F04CF97A
:10455000002003F049F9002003F046F9F02003F0B1
:1045600055F9002003F040F9502003F03DF90020F8
:1045700003F03AF9002003F037F9002003F034F992
:10458000F32003F043F9002003F02EF9F92003F0A3
:104590003DF9062003F028F9102003F025F9292021
:1045A00003F022F9002003F01FF93A2003F02EF95E
:1045B000552003F019F9112003F028F9642004F0C4
:1045C0006BFF292003F022F9352003F01FF90020AA
:1045D00003F00AF9512003F019F9FF2003F004F960
:1045E000532003F013F92C2003F0FEF8552003F0BC
:1045F0000DF9822003F0F8F82C2003F007F902F0FF
:1046000066BBFE48808845F2105188427ED1552114
:104610004FF4704003F014F9AA214FF2010003F0A7
:104620000FF952214FF2020003F00AF908214FF26C
:10463000030003F005F901214FF2040003F000F933
:104640000D214FF4304003F0FBF80D214BF2010037
:1046500003F0F6F80D214BF2020003F0F1F83421DB
:104660004FF4364003F0ECF834214BF2016003F0D4
:10467000E7F834214BF2026003F0E2F80D214FF429
:10468000314003F0DDF80D214BF2011003F0D8F8B2
:104690000D214BF2021003F0D3F834214FF43740D0
:1046A00003F0CEF834214BF2017003F0C9F8342145
:1046B0004BF2027003F0C4F800214FF4324003F0D3
:1046C000BFF800214BF2012003F0BAF800214BF2B1
:1046D000022003F0B5F824214FF4384003F0B0F87D
:1046E00024214BF6010003F0ABF824214BF6020025
:1046F00003F0A6F801214FF43F4003F0A1F80F2189
:104700004FF4334003F09CF80F2100E0FEE34BF23E
:10471000013003F095F80F214BF2023003F090F8CE
:1047200034214FF4394003F08BF834214BF601105B
:1047300003F086F834214BF6021003F081F80821CB
:104740004FF4354003F07CF808214BF2015003F0A0
:1047500077F808214BF2025003F072F803214FF46E
:10476000424003F06DF824214FF43A4003F068F81A
:1047700024214BF6012003F063F824214BF602209C
:1047800003F05EF800214FF43C4003F059F8782123
:104790004BF6014003F054F800214BF6024003F0C1
:1047A0004FF800214FF43D4003F04AF878214BF6D2
:1047B000015003F045F800214BF6025003F040F899
:1047C00000214FF43E4003F03BF864214BF60160BA
:1047D00003F036F800214FF4514003F031F8332153
:1047E0004DF2011003F02CF800214DF2021003F0FD
:1047F00027F834214DF2031003F022F800214DF286
:10480000041003F01DF83A214DF2051003F018F8DA
:1048100000214DF2061003F013F84A214DF2071063
:1048200003F00EF800214DF2081003F009F85C21A6
:104830004DF2091003F004F800214DF20A1002F0C5
:10484000FFFF81214DF20B1002F0FAFF00214DF223
:104850000C1002F0F5FFA6214DF20D1002F0F0FF52
:1048600000214DF20E1002F0EBFFE5214DF20F108A
:1048700002F0E6FF01214DF2101002F0E1FF1321DA
:104880004DF2111002F0DCFF01214DF2121002F086
:10489000D7FF54214DF2131002F0D2FF01214DF247
:1048A000141002F0CDFF82214DF2151002F0C8FF66
:1048B00001214DF2161002F0C3FFCA214DF217106C
:1048C00002F0BEFF02214DF2181002F0B9FF0021E4
:1048D0004DF2191002F0B4FF02214DF21A1002F04D
:1048E000AFFF01214DF21B1002F0AAFF02214DF291
:1048F0001C1002F0A5FF34214DF21D1002F0A0FFA4
:1049000002214DF21E1002F09BFF67214DF21F1095
:1049100002F096FF02214DF2201002F091FF842157
:104920004DF2211002F08CFF02214DF2221002F014
:1049300087FFA4214DF2231002F082FF02214DF2E5
:10494000241002F07DFFB7214DF2251002F078FF10
:1049500002214DF2261002F073FFCF214DF22710F5
:1049600002F06EFF02214DF2281002F069FFDE21F5
:104970004DF2291002F064FF02214DF22A1002F0DC
:104980005FFFF2214DF22B1002F05AFF02214DF28F
:104990002C1002F055FFFE214DF22D1002F050FFB9
:1049A00003214DF22E1002F04BFF10214DF22F107B
:1049B00002F046FF03214DF2301002F041FF332197
:1049C0004DF2311002F03CFF03214DF2321002F0A3
:1049D00037FF6D214DF2331002F032FF00214FF40A
:1049E000524002F02DFF33214DF2012002F028FF4A
:1049F00000214DF2022002F023FF01E0680A0020AE
:104A000034214DF2032002F01BFF00214DF204205F
:104A100002F016FF3A214DF2052002F011FF0021AD
:104A20004DF2062002F00CFF4A214DF2072002F061
:104A300007FF00214DF2082002F002FF5C214DF239
:104A4000092002F0FDFE00214DF20A2002F0F8FEDE
:104A500081214DF20B2002F0F3FE00214DF20C20DB
:104A600002F0EEFEA6214DF20D2002F0E9FE00213B
:104A70004DF20E2002F0E4FEE5214DF20F2002F08F
:104A8000DFFE01214DF2102002F0DAFE13214DF27B
:104A9000112002F0D5FE01214DF2122002F0D0FECD
:104AA00054214DF2132002F0CBFE01214DF21420CF
:104AB00002F0C6FE82214DF2152002F0C1FE012156
:104AC0004DF2162002F0BCFECA214DF2172002F072
:104AD000B7FE02214DF2182002F0B2FE00214DF285
:104AE000192002F0ADFE02214DF21A2002F0A8FEBC
:104AF00001214DF21B2002F0A3FE02214DF21C20E9
:104B000002F09EFE34214DF21D2002F099FE02219A
:104B10004DF21E2002F094FE67214DF21F2002F09C
:104B20008FFE02214DF2202002F08AFE84214DF2F8
:104B3000212002F085FE02214DF2222002F080FEAB
:104B4000A4214DF2232002F07BFE02214DF224200D
:104B500002F076FEB7214DF2252002F071FE02210F
:104B60004DF2262002F06CFECF214DF2272002F0FC
:104B700067FE02214DF2282002F062FEDE214DF296
:104B8000292002F05DFE02214DF22A2002F058FE9B
:104B9000F2214DF22B2002F053FE02214DF22C2087
:104BA00002F04EFEFE214DF22D2002F049FE0321BF
:104BB0004DF22E2002F044FE10214DF22F2002F083
:104BC0003FFE03214DF2302002F03AFE33214DF238
:104BD000312002F035FE03214DF2322002F030FE8A
:104BE0006D214DF2332002F02BFE00214FF4534093
:104BF00002F026FE33214DF2013002F021FE0021A9
:104C00004DF2023002F01CFE34214DF2033002F06E
:104C100017FE00214DF2043002F012FE3A214DF24F
:104C2000053002F00DFE00214DF2063002F008FEC4
:104C30004A214DF2073002F003FE00214DF2083008
:104C400002F0FEFD5C214DF2093002F0F9FD002179
:104C50004DF20A3002F0F4FD81214DF20B3002F0EA
:104C6000EFFD00214DF20C3002F0EAFDA6214DF2DD
:104C70000D3002F0E5FD00214DF20E3002F0E0FDB6
:104C8000E5214DF20F3002F0DBFD01214DF2103035
:104C900002F0D6FD13214DF2113002F0D1FD0121B9
:104CA0004DF2123002F0CCFD54214DF2133002F0DF
:104CB000C7FD01214DF2143002F0C2FD82214DF2F8
:104CC000153002F0BDFD01214DF2163002F0B8FDA5
:104CD000CA214DF2173002F0B3FD02214DF2183017
:104CE00002F0AEFD00214DF2193002F0A9FD0221C3
:104CF0004DF21A3002F0A4FD01214DF21B3002F0FA
:104D00009FFD02214DF21C3002F09AFD34214DF23C
:104D10001D3002F095FD02214DF21E3002F090FD93
:104D200067214DF21F3002F08BFD02214DF2203041
:104D300002F086FD84214DF2213002F081FD022136
:104D40004DF2223002F07CFDA4214DF2233002F01E
:104D500077FD02214DF2243002F072FDB7214DF2B1
:104D6000253002F06DFD02214DF2263002F068FD83
:104D7000CF214DF2273002F063FD02214DF22830A1
:104D800002F05EFDDE214DF2293002F059FD0221D4
:104D90004DF22A3002F054FDF2214DF22B3002F098
:104DA0004FFD02214DF22C3002F04AFDFE214DF262
:104DB0002D3002F045FD03214DF22E3002F040FD72
:104DC00010214DF22F3002F03BFD03214DF2303027
:104DD00002F036FD33214DF2313002F031FD032176
:104DE0004DF2323002F02CFD6D214DF2333002F0E5
:104DF00027FD00214FF4544002F022FD33214DF2F3
:104E0000014002F01DFD00214DF2024002F018FDAC
:104E100034214DF2034002F013FD00214DF2044015
:104E200002F00EFD3A214DF2054002F009FD00218D
:104E30004DF2064002F004FD4A214DF2074002F017
:104E4000FFFC00214DF2084002F0FAFC5C214DF21B
:104E5000094002F0F5FC00214DF20A4002F0F0FC9E
:104E600081214DF20B4002F0EBFC00214DF20C4091
:104E700002F0E6FCA6214DF20D4002F0E1FC00211B
:104E80004DF20E4002F0DCFCE5214DF20F4002F045
:104E9000D7FC01214DF2104002F0D2FC13214DF25B
:104EA000114002F0CDFC01214DF2124002F0C8FC8D
:104EB00054214DF2134002F0C3FC01214DF2144085
:104EC00002F0BEFC82214DF2154002F0B9FC012136
:104ED0004DF2164002F0B4FCCA214DF2174002F028
:104EE000AFFC02214DF2184002F0AAFC00214DF265
:104EF000194002F0A5FC02214DF21A4002F0A0FC7C
:104F000001214DF21B4002F09BFC00E004E3022172
:104F10004DF21C4002F094FC34214DF21D4002F091
:104F20008FFC02214DF21E4002F08AFC67214DF2F7
:104F30001F4002F085FC02214DF2204002F080FC6F
:104F400084214DF2214002F07BFC02214DF22240EF
:104F500002F076FCA4214DF2234002F071FC022104
:104F60004DF2244002F06CFCB7214DF2254002F0D6
:104F700067FC02214DF2264002F062FCCF214DF287
:104F8000274002F05DFC02214DF2284002F058FC5F
:104F9000DE214DF2294002F053FC02214DF22A405D
:104FA00002F04EFCF2214DF22B4002F049FC0221AE
:104FB0004DF22C4002F044FCFE214DF22D4002F057
:104FC0003FFC03214DF22E4002F03AFC10214DF23D
:104FD0002F4002F035FC03214DF2304002F030FC4E
:104FE00033214DF2314002F02BFC03214DF23240CF
:104FF00002F026FC6D214DF2334002F021FC00212D
:105000004FF4554002F01CFC33214DF2015002F0E8
:1050100017FC00214DF2025002F012FC34214DF237
:10502000035002F00DFC00214DF2045002F008FC88
:105030003A214DF2055002F003FC00214DF20650DA
:1050400002F0FEFB4A214DF2075002F0F9FB00216D
:105050004DF2085002F0F4FB5C214DF2095002F0D1
:10506000EFFB00214DF20A5002F0EAFB81214DF2E4
:105070000B5002F0E5FB00214DF20C5002F0E0FB7A
:10508000A6214DF20D5002F0DBFB00214DF20E5037
:1050900002F0D6FBE5214DF20F5002F0D1FB0121C9
:1050A0004DF2105002F0CCFB13214DF2115002F0E2
:1050B000C7FB01214DF2125002F0C2FB54214DF208
:1050C000135002F0BDFB01214DF2145002F0B8FB69
:1050D00082214DF2155002F0B3FB01214DF2165022
:1050E00002F0AEFBCA214DF2175002F0A9FB0221DB
:1050F0004DF2185002F0A4FB00214DF2195002F0BD
:105100009FFB02214DF21A5002F09AFB01214DF251
:105110001B5002F095FB02214DF21C5002F090FB57
:1051200034214DF21D5002F08BFB02214DF21E5036
:1051300002F086FB67214DF21F5002F081FB022135
:105140004DF2205002F07CFB84214DF2215002F000
:1051500077FB02214DF2225002F072FBA4214DF2A6
:10516000235002F06DFB02214DF2245002F068FB47
:10517000B7214DF2255002F063FB02214DF226507B
:1051800002F05EFBCF214DF2275002F059FB0221C5
:105190004DF2285002F054FBDE214DF2295002F06E
:1051A0004FFB02214DF22A5002F04AFBF2214DF250
:1051B0002B5002F045FB02214DF22C5002F040FB37
:1051C000FE214DF22D5002F03BFB03214DF22E50FB
:1051D00002F036FB10214DF22F5002F031FB03217B
:1051E0004DF2305002F02CFB33214DF2315002F0E1
:1051F00027FB03214DF2325002F022FB6D214DF2CC
:10520000335002F01DFB00214FF4564002F018FB12
:1052100033214DF2016002F013FB00214DF20260D8
:1052200002F00EFB34214DF2036002F009FB002175
:105230004DF2046002F004FB3A214DF2056002F0E9
:10524000FFFA00214DF2066002F0FAFA4A214DF20F
:10525000076002F0F5FA00214DF2086002F0F0FA62
:105260005C214DF2096002F0EBFA00214DF20A6078
:1052700002F0E6FA81214DF20B6002F0E1FA002122
:105280004DF20C6002F0DCFAA6214DF20D6002F046
:10529000D7FA00214DF20E6002F0D2FAE5214DF26C
:1052A0000F6002F0CDFA01214DF2106002F0C8FA51
:1052B00013214DF2116002F0C3FA01214DF2126088
:1052C00002F0BEFA54214DF2136002F0B9FA012146
:1052D0004DF2146002F0B4FA82214DF2156002F032
:1052E000AFFA01214DF2166002F0AAFACA214DF27E
:1052F000176002F0A5FA02214DF2186002F0A0FA40
:1053000000214DF2196002F09BFA02214DF21A6061
:1053100002F096FA01214DF21B6002F091FA02218F
:105320004DF21C6002F08CFA34214DF21D6002F047
:1053300087FA02214DF21E6002F082FA67214DF2D7
:105340001F6002F07DFA02214DF2206002F078FA2F
:1053500084214DF2216002F073FA02214DF22260A5
:1053600002F06EFAA4214DF2236002F069FA0221E4
:105370004DF2246002F064FAB7214DF2256002F08C
:105380005FFA02214DF2266002F05AFACF214DF267
:10539000276002F055FA02214DF2286002F050FA1F
:1053A000DE214DF2296002F04BFA02214DF22A6013
:1053B00002F046FAF2214DF22B6002F041FA02218E
:1053C0004DF22C6002F03CFAFE214DF22D6002F00D
:1053D00037FA03214DF22E6002F032FA10214DF21D
:1053E0002F6002F02DFA03214DF2306002F028FA0E
:1053F00033214DF2316002F023FA03214DF2326085
:1054000002F01EFA6D214DF2336002F019FA5521B7
:105410004FF4704002F014FAAA214FF2010002F09A
:105420000FFA52214FF2020002F00AFA08214FF25D
:10543000030002F005FA00214FF2040002F000FA26
:10544000CC214FF4314002F0FBF900214BF2011066
:1054500002F0F6F905214FF4364002F0F1F970211F
:105460004FF4374002F0ECF970214BF2017002F07A
:10547000E7F901214FF4384002F0E2F903214BF63D
:10548000010002F0DDF903214BF6020002F0D8F929
:1054900003214BF6030002F0D3F902214FF43C4004
:1054A00002F0CEF900214BF6014002F0C9F90021CB
:1054B0004BF6024002F0C4F9D0214FF4494002F00B
:1054C000BFF902214CF6011002F0BAF950214CF656
:1054D000021002F0B5F950214CF6031002F0B0F9B9
:1054E00050214CF6041002F0ABF900214FF4545057
:1054F00002F0A6F955214FF4685002F0A1F94FF4DB
:10550000885002F083F9782003F0ECFF4FF4245028
:1055100002F07CF901F0DBBBFE48808849F22531BE
:1055200088427DD147F6F001E52002F089F94FF479
:105530008071012002F084F94FF4E061022002F052
:105540007FF941F23001032002F07AF900210420B2
:1055500002F076F940F20221082002F071F90021F0
:10556000092002F06DF900210A2002F069F90021FA
:105570000C2002F065F900210D2002F061F90021F4
:105580000F2002F05DF90021102002F059F90721E7
:10559000112002F055F90021122002F051F90021EA
:1055A000132002F04DF90021072002F049F941F2E1
:1055B0009061102002F044F940F22721112002F0FE
:1055C0003FF99D21122002F03BF94FF4C8511320FE
:1055D00002F036F92521292002F032F90D212B2085
:1055E00002F02EF90721302002F02AF940F20331AF
:1055F000312002F025F90321322002F021F940F296
:105600000621352002F01CF90821362002F018F995
:1056100040F20641372002F013F94FF4417100E0E7
:1056200058E0382002F00CF90721392002F008F97F
:1056300040F202613C2002F003F908213D2002F013
:10564000FFF80021502002F0FBF8EF21512002F07A
:10565000F7F80021522002F0F3F840F23F115320F6
:1056600002F0EEF84FF42741602002F0E9F8012142
:10567000612002F0E5F800216A2002F0E1F8002143
:10568000802002F0DDF80021812002F0D9F800210D
:10569000822002F0D5F80021832002F0D1F8002109
:1056A000842002F0CDF80021852002F0C9F81021F5
:1056B000902002F0C5F84FF4C061922002F0C0F8CB
:1056C00040F23311072002F0BBF82221002002F043
:1056D000B7F81FE78F48808849F2283188427DD18A
:1056E00041F28F01EC2002F0ABF841F23421EF20BF
:1056F00002F0A6F84FF48071012002F0A1F84FF4F7
:10570000E061022002F09CF841F23001032002F037
:1057100097F80021042002F093F840F202210820BB
:1057200002F08EF80021092002F08AF800210A20F8
:1057300002F086F801210C2002F082F800210D20F1
:1057400002F07EF800210F2002F07AF800211020EC
:1057500002F076F80721112002F072F800211220E1
:1057600002F06EF80021132002F06AF801210720F0
:1057700002F066F8322003F08FFE41F290411020D3
:1057800002F05EF840F22721112002F059F8322091
:1057900003F082FE8A21122002F052F8322003F038
:1057A0007BFE4FF4D051132002F04AF80621292045
:1057B00002F046F80D212B2002F042F8322003F0CF
:1057C0006BFE0021202002F03BF80021212002F096
:1057D00037F8322003F060FE002100E075E0302051
:1057E00002F02EF840F20461312002F029F840F274
:1057F0000531322002F024F80021352002F020F893
:1058000040F60941362002F01BF84FF401713720B1
:1058100002F016F840F20131382002F011F840F29F
:105820000771392002F00CF800213C2002F008F842
:1058300040F60A213D2002F003F8322003F02CFE4E
:105840000021502001F0FCFFEF21512001F0F8FF72
:105850000021522001F0F4FF40F23F11532001F0EB
:10586000EFFF4FF42741602001F0EAFF01216120A2
:1058700001F0E6FF00216A2001F0E2FF0021802014
:1058800001F0DEFF0021812001F0DAFF00218220FB
:1058900001F0D6FF0021832001F0D2FF00218420F7
:1058A00001F0CEFF0021852001F0CAFF10219020D9
:1058B00001F0C6FF4FF4C061922001F0C1FF40F239
:1058C0003311072001F0BCFF24E61248808849F21A
:1058D000203188427ED10021084601F0B1FF4FF40B
:1058E0008071012001F0ACFF4FF4E061022001F073
:1058F000A7FF41F23001032001F0A2FF00210420A4
:1059000001F09EFF40F20221082001F099FF0021E2
:10591000092001E0680A002001F092FF00210A201E
:1059200001F08EFF01210C2001F08AFF00210D20E3
:1059300001F086FF00210F2001F082FF322003F0EA
:10594000ABFD40F20111072001F07AFF322003F095
:10595000A3FD4FF48651102001F072FF07211120A2
:1059600001F06EFF4FF48871122001F069FF4FF4CF
:105970003061132001F064FF0021292001F060FF55
:1059800044F210012B2001F05BFF0021502001F0B8
:1059900057FFEF21512001F053FF0021522001F069
:1059A0004FFF40F23F11532001F04AFF4FF41C51CA
:1059B000602001F045FF0121612001F041FF00213D
:1059C0006A2001F03DFF0021802001F039FF002115
:1059D000812000E030E001F033FF0021822001F05F
:1059E0002FFF0021832001F02BFF0021842001F0F4
:1059F00027FF0021852001F023FF1021902001F0D6
:105A00001FFF0021922001F01BFF0121932001F0D4
:105A100017FF4FF48871952001F012FF00219720A5
:105A200001F00EFF0021982001F00AFF40F27311EF
:105A3000072001F005FF6DE5FE48808849F231310D
:105A400088427DD141F21401E72001F0F9FE4FF4C4
:105A50008071012001F0F4FE4FF40071022001F08A
:105A6000EFFE41F23801032001F0EAFE40F202218C
:105A7000082001F0E5FE0021092001F0E1FE0021EF
:105A80000A2001F0DDFE00210C2001F0D9FE0021EA
:105A90000D2001F0D5FE00210F2001F0D1FE0021E4
:105AA000102001F0CDFE0721112001F0C9FE0021D8
:105AB000122001F0C5FE0021132001F0C1FEC82014
:105AC00003F0EAFC41F29061102001F0B9FE40F2CF
:105AD0002721112001F0B4FE322003F0DDFC0C215F
