:020000040800F2
:10000000D0A50020790200081D850008CF2C00082B
:1000100019850008F91D00085F9A0008000000001B
:100020000000000000000000000000000F8D00082C
:100030007124000800000000A5850008218E00083A
:10004000930200089302000893020008930200083C
:10005000930200089302000893020008930200082C
:100060009302000893020008A524000893020008E8
:10007000930200089302000893020008930200080C
:1000800093020008930200089302000893020008FC
:1000900093020008930200089302000893020008EC
:1000A00093020008930200089302000893020008DC
:1000B000930200086D8F0008359000089302000835
:1000C00093020008930200089302000893020008BC
:1000D0009302000809960008919600089302000810
:1000E0007524000893020008930200089302000898
:1000F000930200089302000893020008930200088C
:10010000930200089302000893020008930200087B
:10011000930200089302000893020008930200086B
:10012000930200089302000893020008930200085B
:1001300000F002F800F090F80AA090E8000C824469
:100140008344AAF10107DA4501D100F085F8AFF246
:10015000090EBAE80F0013F0010F18BFFB1A43F0A5
:1001600001031847E42B0100042C0100103A24BFBE
:1001700078C878C1FAD8520724BF30C830C144BF0C
:1001800004680C607047000000230024002500264E
:10019000103A28BF78C1FBD8520728BF30C148BFEA
:1001A0000B6070476E2900F01F83702900F05F819B
:1001B00066290AF0768765290AF0738767290AF0AD
:1001C00070876129AFF3008003681B0A28BF41F0E4
:1001D0008001692900F0D080642900F0CD80752964
:1001E00000F0CA806F2900F01684782900F02B8176
:1001F000E92900F0B183E42900F0AE83F52900F08D
:10020000AB83EF2900F01384F82900F02A810368FA
:10021000DB0928BF41F08001632900F020837329A6
:1002200000F02583E32900F06986F32900F06E864B
:10023000002070471FB500F0BFFE04000020002121
:100240000AF004FC401C6060002000210AF0E8FB7A
:10025000E0601FBD10B510BD00F080FE1146FFF735
:10026000E9FF0AF0DDF900F059FF03B4FFF7F2FFF0
:1002700003BC09F011FC0000094880470948004709
:10028000FEE7FEE7FEE7FEE7FEE7FEE7FEE7FEE746
:10029000FEE7FEE704480549054A064B70470000A3
:1002A0000D8F000831010008D09F0020D0A500204C
:1002B000D0A10020D0A10020704700001CB50C4642
:1002C000064B7B4469460090204600F0A6FA04469F
:1002D0000020694600F0B4FA20461CBD7B050000F2
:1002E0000FB4044910B503AA029800F0C5FA10BC77
:1002F0005DF814FB2C0000200FB41CB5084B06AAB7
:100300007B4469460090059800F087FA0446002077
:10031000694600F095FA20461CBC5DF814FB00000D
:100320003D05000070B50C460546012A05D0287829
:10033000800600D5EA69002302E0012305E05B1C8A
:10034000934202D2E05C0028F9D1A869E618C01AED
:10035000A861286A18442862284600F0B3F904E02E
:10036000D5E9012114F8010B9047B442F8D328468F
:1003700000F0BEF970BD00002DE9F04106460024F2
:1003800010687529314616A510D000F0C2F9002872
:1003900002DA404213A507E031688A0701D512A5A9
:1003A00002E0490704D511A5012401E000F0BAF9E3
:1003B00000210A2206F1240709E0B0FBF2FCB0FBA1
:1003C000F2F302FB1C00303078541846491C002818
:1003D000F3D123462A463046BDE8F04100F0ABB9E0
:1003E000000000002D0000002B0000002000000095
:1003F000F0B40D460188090502D5214C7C4402E089
:100400001F4C7C440E34002100F1240608E002F069
:100410000F071209E75D42EA03721B097754491C72
:1004200052EA0307F3D102780023120704D5702D96
:1004300006D009B1022311342246F0BC00F07BB98A
:1004400001231034F8E770B504460D4621461068C4
:1004500000F068F9024629462046BDE870400023B6
:10046000C6E7D21D22F00703D3E90023C0E70368E3
:10047000126843F0200303600823C3610023B7E739
:10048000E22701002DE9F05F894604464FF0000A9B
:10049000DFF874B1FB44C0F820A02046E16888472B
:1004A000002874D0252806D0D4E901219047206A7D
:1004B000401C2062F1E700265F462046E16888473D
:1004C0002028054607DB312D05D2781910F8200CBD
:1004D00008B10643F1E7B00701D526F00406C4F8D9
:1004E0001CA00027C4F818A02A2D09D0284609F01E
:1004F000CCFA38B304EB8708303DC8F8185019E03F
:1005000059F8041B204604EB87029161E168884793
:10051000012F054618D1E069002820DA26F02006D0
:100520001DE0D8F8180000EB800005EB40003038E3
:10053000C8F818002046E1688847054609F0A5FA82
:100540000028EED1012F0AD02E2D08D12046E168D7
:1005500088477F1C0546022F46F02006C4DBA069B1
:10056000002803DA404246F00106A061F00701D0FE
:1005700026F010066C2D0BD0682D09D04C2D39D0EB
:100580006A2D35D0742D35D07A2D33D016E038E071
:10059000E1682F4620468847B842054609D16C2FAE
:1005A00026D04FF48060E168064320468847054620
:1005B00004E06C2F1AD04FF4807006430DB3A5F100
:1005C0004100192802D8203546F400664A462946DB
:1005D000204626604E46FFF7E5FD80B101280BD08E
:1005E000F61D26F0070000F1080956E74020E4E771
:1005F0008020D8E70020D6E706F104094DE7284619
:1006000052E7206ABDE8F09F7227010030B5054629
:100610000B462A4613F8014B12F8010B08B1A04211
:10062000F8D01CB1002802D06D1CF1E7284630BD7F
:1006300010B5431C02E010F8011B71B18107FAD11B
:100640004FF0013202C88C1A8C4314EAC211F9D05F
:10065000C01A0A0603D0C01E10BDC01A10BD0A047D
:1006600001D0801E10BD0902FCD0401E10BD4FF00D
:10067000000200B5134694469646203922BFA0E8F2
:100680000C50A0E80C50B1F12001BFF4F7AF0907FE
:1006900028BFA0E80C5048BF0CC05DF804EB8900EF
:1006A00028BF40F8042B08BF704748BF20F8022B32
:1006B00011F0804F18BF00F8012B7047704770474A
:1006C0007047704770B5044685690068C10601D55A
:1006D000302600E02026C00707D070BDD4E90121F4
:1006E00030469047206A401C20626D1EF6D570BDD2
:1006F00070B5044685690078C00707D170BDD4E99C
:10070000012120209047206A401C20626D1EF6D5F2
:1007100070BD09684A0501D540B27047C905FCD5CE
:1007200000B2704709684A0501D5C0B27047C905D3
:10073000FCD580B270472DE9F0470D4699469246A8
:10074000044600F124080168880604D5E06921F018
:100750001001216000E00120A84201DD471B00E0FC
:100760000027A1697A1902EB0900081AA061207814
:10077000C00602D42046FFF7A5FF002608E0D4E912
:1007800001211AF806009047206A401C761C20625E
:100790004E45F4DB2078C0060AD52046FFF792FFCD
:1007A00006E0D4E9012130209047206A401C2062F5
:1007B000381EA7F10107F4DC07E0D4E9012118F89D
:1007C00005009047206A401C2062281EA5F1010503
:1007D000F3DC2046FFF78CFF2078000602D50220CC
:1007E000BDE8F0870120FBE711680268006A530545
:1007F00001D508700AE0D30501D5088006E013068C
:1008000003D5C217C1E9000200E00860012070476B
:1008100001694A1C02610878704700B58FB0CDE9C4
:1008200001310021059105497944CDE903101146B4
:100830006846FFF727FE0FB000BD0000E5FFFFFF91
:100840000A6802F8010B0A60704710B5436913B1DA
:10085000AFF3008001E0FFF765FD012010BD1278C5
:1008600000F124010A7000224A700122EDE71168AC
:100870004FF0FF32E9E70000074B70B50D467B44AF
:10088000FFF7CBFF0446284600F044FB10B14FF0C1
:10089000FF3070BD204670BD839D00002DE9FF5FD5
:1008A00015468A460446DFF8AC80F8440027D8E9AC
:1008B00000103E46CDE9001010E03AF816106A46E6
:1008C00002A800F02BFB411C07D02178890603D534
:1008D000E269391891420DD80744761C20788006C9
:1008E00002D5E069B84205DDAE42E6DB3AF8160013
:1008F0000028E2D1A069C01BA0612046FFF7E2FEFC
:10090000D8E90010CDE90010002017E03AF81810DF
:100910006A4602A800F002FBB0F1FF3F81460BD00F
:1009200000250DF1080B05E0D4E901211BF80500B5
:1009300090476D1C4D45F7D308F10100B042804649
:10094000E4DB206A384420622046FFF7D1FEBDE890
:10095000FF9F00006E2301002DE9F0418046D21D6B
:1009600022F007020025D2E90002F52915A614D0CD
:10097000011E72F1000106DA0023D0EB030063EBE5
:10098000020211A608E0D8F800108B0701D50FA6C7
:1009900002E0490701D50EA601251146002408F101
:1009A000240704E000F04EF830323A55641C50EA57
:1009B0000102F7D12B46324621464046BDE8F041C0
:1009C000FFF7B9BE000000002D0000002B00000062
:1009D0002000000030B4002100F1240408E002F0FF
:1009E0000705D208303542EA4372DB086554491CDA
:1009F00052EA0305F3D10468002310A2250707D5A6
:100A0000A40600D421B1C46901230DA2641EC461EF
:100A100030BCFFF790BE10B5044621461068FFF7C2
:100A200081FE02462046BDE810400023D2E7D21DD9
:100A300022F00701D1E90023CCE70000000000000C
:100A40003000000030B5B0F10A024FEA900E71F1AB
:100A500000034EEA817EB0EB0E0061EB91014FEA9C
:100A6000101E4EEA017E10EB0E0041EB11114FEA11
:100A7000102E4EEA016E10EB0E0041EB11214FEAF1
:100A8000104E4EEA014E10EB0E0041EB11414018A2
:100A900041F100014FEAD00040EA41704FEAD10134
:100AA00010EB80054FEA810444EA907444EB0104A2
:100AB0006D1944EB0404521BA3414FF0000348BFDF
:100AC0000A3200D530BD401C41F1000130BD7047F5
:100AD0002DE9FF4F0C461E464FF0FF378BB0D2E991
:100AE0000001DDF860800A908A46C1F30A5505B915
:100AF0003D46002108464FF00000BAF1000F00F417
:100B0000400005DA00EB80004FF4400101EA50009C
:100B10004FEA9059B9F1010F00DDB9460A9850EA41
:100B20004A000ED044F61050A5F2FF3545432F146D
:100B3000B8F1000F1ED07542291E1EDDC9F100025A
:100B40001CE0B8F1010F4FF0000001D0302103E0AC
:100B5000F24305E02154401CB042FBDB304600224A
:100B6000002121540B99C1F80880C1E900200FB081
:100B7000BDE8F08FBD1B6D1CDEE74A4600DA694216
:100B800006A800F05DFA06AB93E8070003AB83E824
:100B9000070050460A9900F00FFB8DE80700A0F50A
:100BA00000501F3800900398002D09DD42F21F010C
:100BB0004A46084403A90390684600F06EFD08E029
:100BC000A0F500504A461F3803A90390684600F07C
:100BD00078FD8DE807000004000C03D04FF0FF30D3
:100BE000410800E01046B8F1000F03D00022009247
:100BF00015461EE0751E05D4FFF724FF30326255FE
:100C00006D1EF9D5B3460122084302D000227F1C95
:100C100004E02078302801D100227F1E002A0997A5
:100C200086D01DE0112D07DAFFF70CFF3032625538
:100C30006D1C50EA0102F5D1084302D00098C8B1FA
:100C40000EE00021681E05E0235C625C63542254C0
:100C5000401E491C8142F7DBAB46A81B401E099091
:100C6000002004F80B000B98099AC0F80880C0E92E
:100C7000002B7CE711264FF0000859E72DE9F04FD3
:100C800088460446D21D22F0070191B0D1E9000147
:100C9000CDE90A0108F0E5FE02460B98C00F01D02D
:100CA0002D2007E02068810701D52B2002E02021BC
:100CB00001EAC000032A099001D0072A05DB034698
:100CC0004146204600F07CF90BE12078800601D5F2
:100CD000E06900E00620B8F1650F814606D0B8F162
:100CE000660F18D0B8F1670F70D131E00020B9F16C
:100CF000110F009001DB112301E009F101030AAAA1
:100D000001A90CA8FFF7E4FEDDE90C70002609F14B
:100D10000105834647E001204B4600904FF0004715
:100D20000AAA01A90CA8FFF7D3FEDDE90DB00C99C2
:100D30005D46002610B909F101000D18B9EB050058
:100D400003D4C0F1FF3609F10105A5EB09002BE042
:100D5000B9F1010F01DA4FF001090020B9F1110FCB
:100D60000090484601DD112300E003460AAA01A9CC
:100D70000CA8FFF7ADFEDDE90C704D46002683465A
:100D8000207800070AD4AB4500DA5D4601A8012DA2
:100D900004DD411911F8011C302907D04F4502DA52
:100DA00017F1040F04DA012082460FE06D1EEEE712
:100DB000002F02DCED1B3E4403E0781CA84200DD5E
:100DC0007D1CB81B00F1010A4FF000472078000796
:100DD00003D4AA4501DB4FF0FF3A0021B7F1004FE1
:100DE0000DF143088DF8431024D002202B23002F4F
:100DF00001DA7F422D230A21021EA0F1010000DC4E
:100E00005FB197FBF1FC97FBF1F201FB1C7C1746ED
:100E10000CF1300C08F801CDEEE7A8F101000370E9
:100E20002188090501D5452100E06521A0F10108CF
:100E300000F8011C09980FA9A1EB0807FF1D00B1DC
:100E40000120411901EBEA70A1693844081A401EDB
:100E5000A0612078C00602D42046FFF733FC099831
:100E600028B1D4E901219047206A401C20622078F3
:100E7000C00622D52046FFF725FC1EE0002E04DB2D
:100E8000B34502DD01A8805D00E03020D4E90121F6
:100E90009047206A401C2062761CAAF101005FEA9C
:100EA000000A0AD100F088F8C0680168405CD4E903
:100EB00001219047206A401C2062281EA5F10105EF
:100EC000DCDC07E0D4E9012118F8010B9047206A27
:100ED000401C2062381EA7F10107F3DC2046FFF713
:100EE00007FC032011B043E610B5436913B1AFF31B
:100EF000008001E0FFF7D2FC012010BD128800F154
:100F0000240182840022C2840122EDE711684FF09F
:100F1000FF32E9E7007B00F08000704770B51646AD
:100F20000C46054600F040F8036893F801010128DB
:100F300006D0FF2C0FD8185D68B101202C7070BD51
:100F4000D3F807013246214603F20713034428462B
:100F5000BDE8704018474FF0FF3070BD754600F097
:100F6000E7F8AE4605006946534620F0070085467F
:100F700018B020B5FFF78EF9BDE820404FF000060D
:100F80004FF000074FF000084FF0000B21F0070171
:100F9000AC46ACE8C009ACE8C009ACE8C009ACE8B4
:100FA000C0098D467047000010B500F005F8001D1F
:100FB00010BD00BF999A000000487047909F002024
:100FC0002DE9F0411F46044603260168072A01F473
:100FD000006004DB08B116A505E016A503E008B122
:100FE00015A500E015A521F010002060A069C01E25
:100FF000A0610FB1401EA0612046FFF763FB4FB117
:10100000D4E9012138469047206A401C2062C01C68
:10101000206206E0206AFAE7D4E9012115F8010B05
:101020009047761EF8D22046FFF762FBBDE8F081BC
:101030004E414E006E616E00494E4600696E66007C
:101040002DE9F047814616468AB0334878440DC8EA
:101050008DE80D0030487844801C03AC0DC884E84E
:101060000D0041F69B300844372190FBF1F290FBD4
:10107000F1F5A5F1800501FB12041B3C02D5644289
:10108000012000E00020DFF890A080460027FA440D
:10109000AAF1BE0A0DE0E00709D03246684607EB28
:1010A00047010AEB810100F00CFB8DE8070064109A
:1010B0007F1C002CEFD1184F7F44AC3F18E0E807AD
:1010C00014D007EB04100DF1180A90E80E008AE81E
:1010D0000E00C068F04201D198190890324606A966
:1010E00003A800F0EEFA03AB83E807006D10641C60
:1010F000002DE4D132466946B8F1000F03A802D0B2
:1011000000F0CBFA01E000F0DCFAC9E90001C9F80F
:1011100008200AB0BDE8F087501C010010B5044655
:10112000AFF300802046BDE81040FFF79EB80000F6
:1011300000487047709F00204FF0013C50F8042B8E
:1011400051F8043B9A4221D1A2EB0C03934313EADA
:10115000CC1317D150F8042B51F8043B9A4215D107
:10116000A2EB0C03934313EACC130BD150F8042BDE
:1011700051F8043B9A4209D1A2EB0C03934313EAC2
:10118000CC13DBD04FF00000704700BFD01A01BA7B
:10119000B1FA81F101F0180122FA01F0CB40C1F15E
:1011A0002001DBB2C0B2C01A2CFA01F3D11A91436C
:1011B00011EAC311E6D170475FEA400C08BF91F015
:1011C000000F4FEA8C234FEAC12243EA51514FEA04
:1011D0001C5018BF00F5F0404FEA300018BF41F036
:1011E00000415FEA6C5C00F02980BCF1FF3F08BF62
:1011F00040F080407047130C06BF12044FF0100CF3
:101200004FF0000C130E04BF12020CF1080C130F68
:1012100004BF12010CF1040C930F04BF92000CF1F7
:10122000020CD30F04BF52000CF1010C11464FF019
:101230000002A0F11F00A0EB0C00704711F0004F5E
:1012400008BF704731F000413FF4D5AF0B0C06BF2B
:1012500009044FF0100C4FF0000C0B0E04BF0902F4
:101260000CF1080C0B0F04BF09010CF1040C8B0FDF
:1012700004BF89000CF1020CCB0F04BF49000CF134
:10128000010CCCF12003A0EB0C0022FA03F302FACC
:101290000CF241EA030100F10100704720F07F4C9D
:1012A00080EA030023F07F47ACEB070303F57C5390
:1012B00000F0004003F1FF032DE980494FEA154B90
:1012C00009B44FEA144325EA0B4E24EA03480FF20F
:1012D000042606EB132749083E785FEA320203FB37
:1012E0000667C7F5000707FB06F64FEA54374FEAD3
:1012F000D64606F1020607FB066CCCF1005C4FEA0D
:101300001C472CEA074C07FB06F40CFB06F504EB24
:1013100015464FEA961634BF00204FF000404FEAC2
:10132000D13706FB07FC4FEA1C4C0CFB0BF7D21B1A
:1013300003FB0CF761EB07010CFB0EF7B0EB07406A
:1013400072EB17420CFB08F734BFA2EB0742B2EB7B
:10135000074261EB17414FEA0C444FEA910706FB45
:1013600007FC4FEA1C4C0CFB0BF7B0EBC74072EBD1
:10137000573203FB0CF734BFA2EBC742B2EBC742B4
:1013800061EB57310CFB0EF7B0EBC70072EB5772F5
:101390000CFB08F734BFA2EBC702B2EBC70261EB4C
:1013A0005771039F4FEA816141EA921104EBCC042B
:1013B0004FEAD1374FEA826206FB07FC42EA9012FD
:1013C0004FEA80604FEA1C4C0CFB0BF7D21B03FB6F
:1013D0000CF761EB07010CFB0EF7B0EB074072EB6B
:1013E00017420CFB08F734BFA2EB0742B2EB0742EF
:1013F00061EB17414FEA8C554FEA910704EB9C24AF
:1014000006FB07FC4FEA1C4C0CFB0BF7B0EBC7408C
:1014100072EB573203FB0CF734BFA2EBC742B2EBBF
:10142000C74261EB57310CFB0EF7B0EBC70072EB14
:1014300057720CFB08F734BFA2EBC702B2EBC7022E
:1014400061EB577115EB4C254FEA816141EA92112E
:101450004FEA82624FEAD13742EA901206FB07FC5C
:1014600044F100044FEA80604FEA1C4C0CFB0BF780
:10147000D21B03FB0CF761EB07010CFB0EF7B0EB83
:10148000074072EB17420CFB08F734BFA2EB074290
:10149000B2EB074261EB174115EB1C154FEA8131A6
:1014A00041EA92414FEA823242EA90424FEA80306A
:1014B0004FEA0C7644F1000448EA03434EEA0B4835
:1014C0004FF0000EB2EB080C71EB030724BF62462D
:1014D00039464EEB0E0E4FF0000B001852414941B9
:1014E0004BEB0B0BB2EB080C71EB03077BF1000B22
:1014F00024BF624639464EEB0E0E4FF0000B00182B
:10150000524149414BEB0B0BB2EB080C71EB03075B
:101510007BF1000B24BF624639464EEB0E0E51EABA
:10152000020718BF46F0010616EB0E7655F10002D1
:1015300054F1000103D5BDE88901BDE80088BDE88C
:101540008901BDE80048B619524141EB0101A3F100
:101550000103704780807F7E7D7C7B7A7978777607
:1015600076757473727171706F6E6E6D6C6C6B6A80
:101570006A6968686766666564646363626161601E
:10158000605F5F5E5E5D5D5C5C5B5B5A5A5959589B
:101590005857575656555555545453535252525105
:1015A000515050504F4F4F4E4E4D4D4D4C4C4C4B5B
:1015B0004B4B4A4A4A4949494848484747474746A2
:1015C00046464545454444444443434343424242DE
:1015D00042414141002B26D4770021D01CB54FEA6F
:1015E000370703B44FF010004FF010014FF0000028
:1015F0000FBCBDE810400BF1010BBBF1010F08BFA0
:101600005FEA170722BF12F1010211F101014FF049
:10161000004143F1000300F0004043EA000070473E
:10162000F9D35708DAE746EA064613F1400F4FEAC6
:1016300016461FDD13F1200FDFBF16430A460021B7
:1016400020335B42C8D0C3F1200746EA064602FABF
:1016500007F74FEA164646EA0706C3F1200722FAC3
:1016600003F201FA07F721FA03F14FF0000342EA0F
:101670000702B1E746EA020646EA06464FEA164680
:1016800046EA0106BCBF46EA0646360C4FF00003A8
:101690004FF000024FF000019EE72DE9C04893464D
:1016A00030B491E8380007C831EA400C48BF34EA4A
:1016B000430C03D5FFF7F2FDFFF78CFFF0BCBDE84C
:1016C00000882DE9C048934630B491E8380007C837
:1016D00010F0804F08BF13F0804F03D100F005F8E1
:1016E000FFF778FFF0BCBDE8008820F07F4780EA74
:1016F000030023F07F4C07EB0C03A3F57C5300F0B1
:101700000040A3F1FE0392F0000F00F0B38095F0CB
:10171000000F00F077802DE901494FEA11404FEAB0
:10172000144621EA004800FB06FC24EA064708FBB1
:1017300006F607FB08F800FB07F718EB06484CEB2A
:10174000164C4FEA124B18EB07484FEA15464CEB84
:10175000174022EA0B4E0BFB06FC25EA06470EFB60
:1017600006F607FB0EFE0BFB07F71EEB064E4CEBD7
:10177000164C4FF000061EEB074E4CEB174B18EBC8
:101780000B0840F1000018EB0E0B58EB000840F17D
:1017900000008F1A4FF000013CBFC943661B14BF05
:1017A000B5EB040C00213CBFC943F61B4FEA1744BC
:1017B0004EEA8E0E27EA04454FEA1C4704FB0762F7
:1017C0002CEA074C05FB07F70CFB05F604FB0CFCA9
:1017D00016EB074642EB174216EB0C4642EB1C4257
:1017E0001BEB060658EB0202414146EA9E0601D574
:1017F000BDE80189B619524141EB0101A3F1010392
:10180000BDE801894FEA14454FEA114724EA05462D
:1018100021EA074C05FB07F406FB07F70CFB06F172
:1018200005FB0CFC11EB074144EB17444FEA124750
:1018300011EB0C4144EB1C4422EA074C05FB07F278
:1018400006FB07F70CFB06F605FB0CFC16EB074640
:1018500042EB174216EB0C4642EB1C456A1854F15A
:10186000000148BF7047B619524141EB0101A3F195
:101870000103704795F0000F37D04FEA11424FEA4D
:10188000144721EA024624EA074C02FB07F106FB53
:1018900007F70CFB06F402FB0CFC14EB074441EBCE
:1018A00017414FEA154714EB0C4441EB1C4125EA64
:1018B000074C02FB07F506FB07F70CFB06F602FBDD
:1018C0000CFC16EB074645EB174516EB0C4645EBB3
:1018D0001C42121951F1000148BF7047B61952411C
:1018E00041EB0101A3F1010370474FEA14454FEAB0
:1018F000114724EA054621EA074C05FB07F106FBE0
:1019000007F70CFB06F24FF0000605FB0CFC12EB90
:10191000074241EB174112EB0C4251EB1C4148BF0F
:101920007047921841EB0101A3F1010370470000D9
:1019300010B5ADF5467DC820C5904FF43C7109A89F
:10194000FEF795FE00200890079006900590049001
:101950000390DDE14FF6FF7001F09AFCEDA0182135
:101960000B46C822CDE900109621192006F02EFA68
:10197000F020C59000200890039006901BE0002006
:1019800005900FE00020BDF81810C1EB011109AA65
:1019900002EB4101BDF814208854BDF81400401C2E
:1019A00080B20590BDF814001E28EBDBBDF81800CE
:1019B000401C80B20690BDF818001928DFDB00201B
:1019C0000790069005900490D7490870D749088081
:1019D0000120D7490870D7A008F0B2FF15E0192000
:1019E00008F064FDD148008800F4004068B1002090
:1019F000CF490870CD480088C0F30E000490002045
:101A0000C949BDF81020885406E09DF81403401E13
:101A1000C0B2C5900028E2D100BF9DF81403002891
:101A20003BD1C7A0FEF75CFC4FF6FF7001F030FC25
:101A3000CCA018210B46C822CDE90010782119202E
:101A400006F0C4F9CCA018210B46C822CDE900103D
:101A50009621192006F0BAF94FF47A7008F026FDA5
:101A6000C9A018210B46C822CDE9001096211920E3
:101A700006F0ACF94FF47A7008F018FDC7A01821F1
:101A80000B46C822CDE900109621192006F09EF9D8
:101A90004FF47A7008F00AFD3AE1002007904DE01B
:101AA000A148BDF81C10405C222825D1BDF81C00BF
:101AB000C01E9D49085C282802D1012008901BE027
:101AC0009DF82000C0B100200890BDF81810C1EBAF
:101AD000011109AA02EB4101BDF814208854BDF898
:101AE0001800401C80B2069000200590BDF81C0034
:101AF0001C3080B207901CE09DF82000C0B18A49DC
:101B0000BDF81C00401C085C222811D00A46BDF814
:101B10001C10491C525CBDF81400411C89B205918F
:101B2000BDF81810C1EB011109AB03EB41010A54D8
:101B300000BFBDF81C00401C80B20790BDF81C001F
:101B4000BDF810108842ABDB4FF6FF702F23EF2259
:101B500000210090084601F09BFD1F209449088059
:101B600094A010210B46F022CDE900100F21084669
:101B700006F02CF94EF6EE6040F23F13EF223021D2
:101B80000090002001F084FD002089490880302366
:101B9000EF22194601F0A0FC002007903FE0BDF8BD
:101BA0001C00C0EB001009A901EB4002BDF81C109D
:101BB00085A0FEF795FBBDF81C00C0EB001009A93D
:101BC00001EB40001021CDE90010BDF81C0000EB36
:101BD000800080003C3081B21023F0223C2006F0CF
:101BE000F5F8BDF81800401EBDF81C10884211D051
:101BF000BDF81C0000EB800080004E3083B2BDF8C1
:101C00001C0000EB800080004E3081B2EF223C20AF
:101C100001F062FCBDF81C00401C80B20790BDF8CA
:101C20001C00BDF818108842B9DBBDF81C0000EBA1
:101C300080008000443083B2BDF81C0000EB8000BF
:101C40008000443081B2EF22002001F045FC5CE0CE
:101C500061484168002088475F4890F8200000F004
:101C60008000E8B35C4880895C49098888424CDA86
:101C70005948C08A59494988884246DA5648C08A34
:101C80003C2834DD5448C08A3C38142190FBF1F4E0
:101C9000C4EB041009A901EB4000514908604FF45E
:101CA000784043490880C4EB041009A901EB4000C7
:101CB0001021CDE9001004EB840080003C3081B29B
:101CC0001023F0223C2006F081F8002038490880DB
:101CD0004348016843A0FEF703FB4FF4967000E011
:101CE00006E008F0E3FB00200DF5467D10BD0CE09A
:101CF0000A2008F0DBFBBDF80C00401C80B203900A
:101D000040F2B631884200D100E0A1E700BF00BF39
:101D100020E6000077696669207363616E6E696E04
:101D2000672E2E2E00000000E0050020820000201B
:101D3000FC00002041542B43574C41503D0D0A00FC
:101D400057696669205363616E2041636B20457259
:101D5000726F722E2E2E5265747279696E670D0A3B
:101D6000000000005468657265206973206E6F2062
:101D70007769666921000000526574727920746881
:101D800065207363616E2E005265747279207468E9
:101D900065207363616E2E2E000000005265747220
:101DA0007920746865207363616E2E2E2E0000000A
:101DB00084000020506C656173652073656C6563F9
:101DC0007420776966693A0041505F5441425B254F
:101DD000645D3A25730D0A0048000020900A002037
:101DE000B0000020776966697374615F737369641A
:101DF0003A25730D0A00000000BFFEE710B500F0A1
:101E0000E1F93A2000F004FA10BD10B500F0DAF95B
:101E10003B2000F0FDF910BD10B53B2000F0F6F8B6
:101E200000F07F0010BD000000B587B0012108461A
:101E300006F0F4FC0121102006F0F0FC1020ADF8B3
:101E4000100048208DF8130003208DF8120004A91B
:101E5000414800F05BFE0421022000F037FE102014
:101E6000029000208DF80C000C208DF80D00012050
:101E70008DF80E0002A800F05BFB0A208DF804002C
:101E800002208DF8050001208DF806008DF807006E
:101E900001A806F045FB002000F018FB1020ADF86B
:101EA00010008DF8130004A92C4800F02FFE10211B
:101EB0002A4800F00AFF052008F0F8FA00F0F8F8C8
:101EC0000020069011E0264A9DF8183002EB4302EC
:101ED0005178234A9DF8183012F8130000F0D6F913
:101EE0009DF81800401CC0B206909DF818001728F5
:101EF000E9DB0020069011E019499DF8182011F83F
:101F0000120000F065F805909DF8141015A0FEF77A
:101F1000E7F99DF81800401CC0B206909DF8180023
:101F20001728E9DB0321FF2000F030F94DF2913052
:101F300000F04DF92221132000F0A8F9F821142017
:101F400000F0A4F9082209493E2000F079F90520A3
:101F500008F0ACFA07B000BD0010014000080140D5
:101F6000622B01082025642020000000880000204A
:101F70002DE9F04105460E4617461021134800F0A2
:101F8000A2FE00BF4021114800F094FE0028F9D1C4
:101F900045F0C00006F086FE00240FE04FF0000878
:101FA00003E008F1010000F0FF08B8F1140FF8DBBE
:101FB000FF2006F077FE3055601CC4B2BC42EDDB5A
:101FC0001021024800F081FEBDE8F08100080140C8
:101FD00070B5044610210C4800F075FE00BF40218A
:101FE000094800F067FE0028F9D144F0800006F0AF
:101FF00059FEFF2006F056FE05461021024800F06B
:1020000064FE284670BD00000008014070B504461B
:1020100010210C4800F057FE00BF4021094800F095
:1020200049FE0028F9D144F0C00006F03BFEFF2035
:1020300006F038FE05461021024800F046FE28460C
:1020400070BD000000080140F8B505460026FFF706
:10205000E3FE50B33F20FFF7BBFF04460720FFF726
:10206000B7FF20F0030018B13F20FFF7B1FF06468D
:10207000002C01DD0A2C01DD0020F8BD601EC4B279
:10208000224629463F20FFF773FF022269463F2080
:10209000FFF76EFFFFF7B2FE9DF8010000F0800031
:1020A00008B12046E9E70020E7E70020E5E7000067
:1020B00010B510210C4800F008FE10210A4800F06D
:1020C00002FE00BF4021084800F0F4FD0028F9D1CD
:1020D0001021054800F0F9FD502008F00DFA3020DD
:1020E00000F096F810BD0000000801402DE9F04115
:1020F00007460D4616460EB9002405E0012E03D111
:102100000920FFF765FF044621461AA0FEF7E8F80C
:10211000FFF77BFE0720FFF75BFF20F0030050B1C5
:102120000124681CC1B23F2000F0B0F821463F20D6
:1021300000F0ACF803E029463F2000F0A7F82A465B
:1021400039463F2000F07CF8002000F04CF800BF3A
:1021500010210D4800F0AEFD0028F9D100BF10217C
:10216000094800F0A7FD0028F9D0FFF74EFEBDE8B2
:10217000F08100006C6F63616C5F61646472657311
:10218000733A25640D0A00000010014070B5064640
:102190000C460720FFF71CFF20F0030531460920FD
:1021A00000F074F86CB1012C02D145F0010508E093
:1021B000022C02D145F0020503E0032C01D145F0C9
:1021C000030570BD10B5362000F022F810BD10B523
:1021D0000446C4F30721042000F058F8E1B20520BA
:1021E00000F054F810BD10B504463CB94621022059
:1021F00000F04CF8352000F00BF808E0012C06D177
:102200004621022000F042F8342000F001F810BD11
:1022100010B504461021094800F055FD00BF4021CB
:10222000064800F047FD0028F9D1204606F03AFDA7
:102230001021024800F049FD10BD000000080140D7
:102240002DE9F04105460E46174610210E4800F0D4
:102250003AFD00BF40210C4800F02CFD0028F9D1C8
:1022600045F0400006F01EFD002404E0305D06F05D
:1022700019FD601CC4B2BC42F8DB1021024800F01A
:1022800024FDBDE8F08100000008014070B505465E
:102290000C4610210A4800F016FD00BF40210848F6
:1022A00000F008FD0028F9D1284606F0FBFC204686
:1022B00006F0F8FC1021024800F007FD70BD000098
:1022C0000008014021B1026842F00102026004E00E
:1022D00002684FF6FE731A400260704701684FF6BD
:1022E000FE72114001600021016041608160C160A7
:1022F0004B49884208D14A490839496841F00F01E1
:10230000474A083A51608AE045491431884208D169
:1023100043490839496841F0F001414A083A51609F
:102320007DE03F492831884208D13D490839496854
:1023300041F470613A4A083A516070E038493C31E2
:10234000884208D136490839496841F47041344A15
:10235000083A516063E032495031884208D130492F
:102360000839496841F470212D4A083A516056E015
:102370002B496431884208D129490839496841F418
:102380007001274A083A516049E02549783188426E
:1023900008D123490839496841F07061204A083A58
:1023A00051603CE01F49884206D1011F096841F095
:1023B0000F01021F116032E01A491431884208D11E
:1023C0001849091F096841F0F001164A121F1160EF
:1023D00025E014492831884208D11249091F0968AB
:1023E00041F470610F4A121F116018E00D493C3131
:1023F000884208D10B49091F096841F47041094A14
:10240000121F11600BE007495031884207D105497E
:10241000091F096841F47021024A121F11607047B8
:1024200008000240080402400146486880B2704734
:1024300010B50022026847F6F0739A430C6A8B6865
:1024400023430C6923434C6923438C692343CC69A0
:1024500023434C6A23438C6A23431A430260CB68AC
:1024600043600B6883604B68C36010BD4160704778
:102470007047000010B50A2008F018F808480068F6
:1024800048B907487C30006808B9012000E0002006
:1024900003497C3108604FF4006000F02FF810BD54
:1024A0002C01224210B5102000F02EF8012808D18E
:1024B00004A0FDF715FF012003490870002000F07B
:1024C00005F810BD310D0A009000002010210A4AC5
:1024D000116040B108491439096841F01001064AF9
:1024E000143A116007E004491439096821F0100119
:1024F000014A143A11607047140401400149086010
:102500007047000014040140014600200022074BE0
:102510001B6803EA0102054B14331B680B4013B11F
:102520000AB1012000E000207047000000040140D3
:10253000002123498279002A3AD00A4612680368AA
:102540009A430B461A600A1D126803689A430B1DD2
:102550001A60027911440A6803681A430A60184A2B
:102560000832126803689A43154B08331A601A1D23
:10257000126803689A43124B0C331A604279102A8E
:102580000ED11A1F126803681A430D4B08331A60E4
:102590001A1D126803681A43094B0C331A600DE0C8
:1025A0000749427911440A6803681A430A6005E042
:1025B000027911440A6803689A430A607047000070
:1025C0000004014010B586B0002005900490012061
:1025D0000390002002904FF6FF7000F059FE1F207C
:1025E000FE490880FEA010210B46C822CDE900104C
:1025F0001421402005F0EAFBFE48006810210B463C
:10260000C822CDE900102821402005F0DFFB4FF45F
:102610007840F24908804EF6EE60F7490880322390
:10262000342219210090002001F032F8F3A010218B
:102630000B463222CDE900101E21022005F0C6FB18
:1026400048F23040E54908804EF6EE603223EF2232
:1026500019210090CB2001F01BF8EAA010210B46B5
:102660002322CDE900101E21CD2005F0AFFB002074
:10267000DA4908804FF6FF70DF4908804B23EF22CC
:102680001946002000F028FFE0A010210B46C822C8
:10269000CDE900105021142005F098FB6523EF22AE
:1026A0001946002000F018FF002000F0F5FC4FF65E
:1026B000FF70D149088005E2D6484168002088476C
:1026C000D44890F8200000F0800000287ED09DF8CB
:1026D0000C000028FAD0CF488089CF490988884269
:1026E00075DACC48C08ACC4949888842F8DAC948AA
:1026F000C08A19286CDBC748C08A32287DDCC548EF
:10270000808934283FDA4FF47840B44908804EF687
:10271000EE60B94908804FF6FF7032233422192148
:102720000090002000F0B4FF4EF6EE603423362215
:102730001B210090022000F0ABFFB0A010210B463F
:102740003222CDE900102021042005F03FFB4FF498
:10275000FA7007F0ABFE4FF6FF7000F099FD002015
:102760009E4908804FF6FF70A3490880ABA018214E
:102770000B46C822CDE900109621192005F026FB52
:10278000012006B010BDA3488089CB2835DDA848BC
:102790000078082831DB4EF6EE60974908804FF448
:1027A00078408E4908804FF6FF703223EF221921BE
:1027B0000090CB2000F06CFF4EF6EE603423ED224B
:1027C0001B210090C92000F063FF02E04DE194E07E
:1027D00013E08CA010210B462322CDE9001020210C
:1027E000CB2005F0F3FA934993A0FDF779FD4FF460
:1027F000967007F05BFE0020C3E78648C08A782801
:102800007BDD002003908348C08A7838322190FB1A
:10281000F1F0C0B205907F488089502190FBF1F023
:10282000C0B204909DF8140000EB400088490844B1
:102830009DF81010405C302860DB9DF8140000EB20
:102840004000834908449DF81010405C392855DC4D
:10285000002000909DF8141001EB41017C4B1944BD
:102860009DF81030CA5C7249097801EB81013C2364
:1028700003EB41001023502105F014FA9DF81410C9
:1028800001EB4101724A11449DF810208A5C6849AD
:102890000878411C664B197066490A5400201A4694
:1028A000127888546BA0FDF71BFD6148007808285A
:1028B0001FDB4FF47840494908804EF6EE604E49E0
:1028C00008803223EF2219210090CB2000F0E0FE97
:1028D0004CA010210B462322CDE900101E21CD2053
:1028E00005F074FA00203D4908804FF6FF70424918
:1028F00008804FF4967007F0D9FDB8E09DF81400F9
:1029000000EB4000524908449DF81010405C4128FB
:102910000ED105F031FB04460CB9002031E7012C43
:1029200003D1002000F0B8FB01E0012029E79EE080
:102930003F480078002804DD3D480078401E3C49AF
:10294000087000203A490090097801EB81013C228F
:1029500002EB410010232022502105F0A3F90020B2
:1029600033490090097801EB8101462202EB4100D6
:1029700010232022502105F095F900212D482C4AE2
:1029800012788154014633A0FDF7AAFC284800784C
:1029900008281FDA48F23040104908804EF6EE60F1
:1029A000154908803223EF2219210090CB2000F036
:1029B0006FFE14A010210B462322CDE900101E212A
:1029C000CD2005F003FA0020044908804FF6FF707F
:1029D000094908804FF4967044E00000840000200C
:1029E000456E7465722054686520505744206F66A8
:1029F00000000000B00000208600002043616E63EC
:102A0000656C00004A6F696E000000005057443A40
:102A10000000000048000020900A002077696669E5
:102A2000207363616E6E696E672E2E2E00000000AB
:102A3000C3000020B4000020776966697374615F89
:102A400070617373776F72643A25730D0A0000002A
:102A5000902B01085057445F54656D703A25730DF3
:102A60000A00000007F022FD01E0012003900A2087
:102A700007F01CFD9DF80800401CC0B202903228EF
:102A80000DD1002010490090097801EB81013C2212
:102A900002EB410010237C22502105F003F99DF840
:102AA000080064280ED100200290074900900978A0
:102AB00001EB81013C2202EB410010232022502136
:102AC00005F0F0F8F8E50000C300002030B5002262
:102AD0008B071C0F0F2303FA04F20B4B8C1053F8D7
:102AE00024309343084C8D1044F8253023468C1035
:102AF00053F824308C07240F00FA04F42343024CCB
:102B00008D1044F8253030BD080001402DE9F0411A
:102B1000024600250026002000230024002791F80B
:102B200003C00CF00F0591F803C00CF0100CBCF1C1
:102B3000000F03D091F802C04CEA050591F800C0DF
:102B4000BCF1000F31D0146800202BE04FF0010CD5
:102B50000CFA00F3B1F800C00CEA03069E4220D143
:102B600083004FF00F0C0CFA03F7BC4305FA03FC8B
:102B70004CEA040491F803C0BCF1280F06D14FF0D1
:102B8000010C0CFA00FCC2F814C00AE091F803C072
:102B9000BCF1480F05D14FF0010C0CFA00FCC2F853
:102BA00010C0401C0828D1D31460B1F800C0BCF19B
:102BB000FF0F34DD546800202EE000F1080C4FF0C8
:102BC000010808FA0CF3B1F800C00CEA03069E42B3
:102BD00021D183004FF00F0C0CFA03F7BC4305FA28
:102BE00003FC4CEA040491F803C0BCF1280F05D1A2
:102BF00000F1080C08FA0CF8C2F8148091F803C030
:102C0000BCF1480F07D100F1080C4FF0010808FA99
:102C10000CF8C2F81080401C0828CED35460BDE8E0
:102C2000F0810000F0B50A460023002400210025B1
:102C300000F00046B6F1004F02D11D4EF16901E0EF
:102C40001B4E7168C0F3034583B200F44016B6F51D
:102C5000401F08D121F07061154E766826F070662D
:102C6000134F7E6012E000F48016B6F5801F06D187
:102C7000032606FA05F4A14341F0706106E0460D13
:102C8000360103FA06F6B14341F0706122B1460DF8
:102C9000360103FA06F6314300F00046B6F1004F64
:102CA00002D1034EF16101E0014E7160F0BD000000
:102CB000000001400246002093680B400BB1012048
:102CC00000E000207047416170470161704700BF1C
:102CD000FEE700001FB50121102005F09FFD012136
:102CE000084605F09BFD01211848FFF79BFF4FF4B4
:102CF0000060ADF8000048208DF8030069461448D4
:102D0000FFF704FF0B210220FFF7E0FE4FF4006005
:102D1000029000208DF80C000C208DF80D00012091
:102D20008DF80E0002A8FFF703FC28208DF80400A0
:102D300002208DF8050003208DF8060001208DF893
:102D4000070001A805F0ECFB1FBD000000023000E9
:102D5000001001407FB504460020039002904EF61B
:102D6000EE6040F23F13EF2266210090002000F059
:102D70008FFC4EF6EE60BE4908800020BD490880F9
:102D8000002C7DD00390AFE000200290A2E09DF8DF
:102D90000C0003281CDA002000909DF80C30C3EBD7
:102DA000C303B54D2B449DF808505A5D9DF80C3077
:102DB00003EB8303DB0003F178019DF8083003EB9C
:102DC00003135B0003F10E00102304F06BFF7BE0A4
:102DD0009DF80C00032824D19DF8080018B19DF837
:102DE0000800062800D170E0002000909DF80C300B
:102DF000C3EBC303A04D2B449DF808505A5D9DF8CA
:102E00000C3003EB8303DB0003F178019DF80830FD
:102E100003EB03135B0003F10E00102304F042FFE9
:102E200052E09DF80C00C0EBC000944908449DF8A6
:102E30000810405C31280FD191A01021CDE900107D
:102E40009DF80C0000EB8000C00000F17801102319
:102E5000C8221C2004F0BAFF9DF80C00C0EBC00093
:102E6000864908449DF80810405C2B2811D185A0A4
:102E70001021CDE900109DF80C0000EB800000E06F
:102E800038E0C00000F178011023C822642004F06B
:102E90009DFF9DF80C00C0EBC000784908449DF8E8
:102EA0000810405C32280FD178A01021CDE9001025
:102EB0009DF80C0000EB8000C00000F178011023A9
:102EC000C822BC2004F082FF00BF9DF80800401C0F
:102ED000C0B202909DF808000728FFF658AF9DF891
:102EE0000C00401CC0B203909DF80C000528FFF6B2
:102EF0004BAFB5E000200390ADE000200290A0E0D1
:102F00009DF80C0003281CDA002000909DF80C307E
:102F1000C3EBC303594D2B449DF808505A5D9DF8EF
:102F20000C3003EB8303DB0003F178019DF80830DC
:102F300003EB03135B0003F10E00102304F0B2FE59
:102F400079E09DF80C00032824D19DF8080018B101
:102F50009DF80800062800D16EE0002000909DF842
:102F60000C30C3EBC303454D2B449DF808505A5D0C
:102F70009DF80C3003EB8303DB0003F178019DF82F
:102F8000083003EB03135B0003F10E00102304F081
:102F900089FE50E09DF80C00C0EBC00037490844A2
:102FA0009DF80810405C31280FD135A01021CDE9E3
:102FB00000109DF80C0000EB8000C00000F17801CB
:102FC0001023C8221C2004F001FF9DF80C00C0EB68
:102FD000C0002A4908449DF80810405C2B280FD1F6
:102FE0002BA01021CDE900109DF80C0000EB800013
:102FF000C00000F178011023C822642004F0E6FE2E
:103000009DF80C00C0EBC0001C4908449DF8081056
:10301000405C32280FD11DA01021CDE900109DF891
:103020000C0000EB8000C00000F178011023C822E2
:10303000BC2004F0CBFE00BF9DF80800401CC0B2CD
:1030400002909DF808000728FFF65AAF9DF80C0083
:10305000401CC0B203909DF80C000528FFF64DAF50
:103060004FF6FF7002490880002004B070BD0000D8
:103070008600002084000020BF2B01089C2B010843
:1030800031323300736869667400000064656C0057
:1030900053686966740000007FB504460020039001
:1030A00002904EF6EE6040F23F13EF226621009050
:1030B000002000F0EDFA4EF6EE606F490880002027
:1030C0006E490880039090E00020029083E09DF814
:1030D0000C0000EB40006A4908449DF80810405C71
:1030E000302826DB9DF80C0000EB400064490844C2
:1030F0009DF80810405C39281BDC002000909DF8EA
:103100000C3003EB43035E4D2B449DF808505A5D91
:103110009DF80C3032256B4303F178019DF808309F
:1031200003EB83031B0103F12400102304F0BAFD19
:103130004CE09DF80C0000EB4000514908449DF81C
:103140000810405C41282CD1ACB14EA01021CDE933
:1031500000109DF80C2032235A4302F178019DF8AB
:10316000082002EB8202120102F11C001023C82287
:1031700004F02CFE2AE044A01021CDE900109DF8B7
:103180000C2032235A4302F178019DF8082002EB0B
:103190008202120102F11C001023C82204F016FE64
:1031A00014E03AA01021CDE900109DF80C20322344
:1031B0005A4302F178019DF8082002EB82021201C5
:1031C00002F11C001023C82204F000FE9DF8080044
:1031D000401CC0B202909DF808000328FFF677AFAC
:1031E0009DF80C00401CC0B203909DF80C00042810
:1031F000FFF66AAF0020039013E09DF80C00322226
:10320000504300F199039DF80C00504300F19901DF
:10321000EF22002000F060F99DF80C00401CC0B2C5
:1032200003909DF80C000328E7DB0020039017E0D3
:103230009DF80C1001EB8101090101F150029DF88C
:103240000C1001EB8101090101F1500040F23F1324
:10325000652100F041F99DF80C00401CC0B20390BC
:103260009DF80C000228E3DB4FF6FF70024908804E
:10327000002004B070BD0000860000208400002003
:10328000902B0108202E20004142430064656C0011
:1032900070B5044600261D480588408845431B48F4
:1032A000808846F60401884216D1184880790128A2
:1032B00012D10020154988712A2048812B2088814D
:1032C0000021084604F010FB0120104988712B20D2
:1032D00048812A20888103E00021084604F004FB8D
:1032E00004F02AFE00260DE04FF4807008490861C2
:1032F0004000486107480460802048610861800000
:103300000861761CAE42EFD370BD0000900A002029
:10331000001001400C0C014010B50446002C66D191
:103320006C498871F02008804FF4A07048800846EE
:10333000808849F2413188420BD06648808846F641
:103340000401884205D06348808845F210318842E4
:103350001AD12C205F4908812A2048812B2088819E
:103360000846808846F60401884205D0594880887E
:1033700045F21031884206D14FF4A07055490880BB
:103380004FF4F0704880A1E05248808845F2105117
:10339000884210D14FF430504E4908814FF42850E4
:1033A00048814FF42C5088814FF4F07008804FF41E
:1033B000487048808AE04748808841F66311884217
:1033C0000DD12C20434908812B2048812A20888157
:1033D0004FF4F07008804FF44870488076E0222067
:1033E0003C49088120204881212088816EE001200D
:1033F000384988714FF4A0700880F0204880084652
:10340000808849F24131884205D03248808845F2AF
:103410001031884207D12C202E4908812A2048816A
:103420002B2088813FE02B48808846F604018842A3
:1034300007D12C20274908812B2048812A20888108
:1034400031E02448808845F21051884210D14FF471
:103450003050204908814FF4285048814FF42C50B7
:1034600088814FF4487008804FF4F07048801AE06B
:103470001848808841F6631188420DD12C201549E7
:1034800008812A2048812B2088814FF448700880C9
:103490004FF4F070488006E022200E490881212078
:1034A0004881202088810B48808846F604018842A4
:1034B00005D00848808845F21031884206D14FF483
:1034C000F070044908804FF4A0704880002003F099
:1034D000DFFF10BD900A00202DE9FF4F84B0814628
:1034E0008A460020039002900698A0EB09050798F1
:1034F000A0EB0A06CDF80490CDF800A0002D01DD68
:10350000012705E00DB9002702E04FF0FF376D42BB
:10351000002E02DD4FF0010806E016B94FF000085A
:1035200002E04FF0FF387642B54201DD2C4600E064
:1035300034464FF0000B21E0009A91B2019A90B20C
:1035400000F022F803982844039002983044029037
:103550000398A04205DD0398001B039001983844AE
:1035600001900298A04205DD0298001B029000988D
:10357000404400900BF101001FFA80FB601C834562
:10358000DADD08B0BDE8F08F30B504460D462946B7
:10359000204604F0A9F904F0CFFC4FF480700749ED
:1035A000086140004861064800880649086080209C
:1035B0000249486108618000086130BD0010014087
:1035C000840000200C0C014030B503460C46154623
:1035D0002C49488904F09EFC4FF480702A49086108
:1035E0004000486118122949086080202649486136
:1035F0000861800008614010086140004861D8B24D
:1036000022490860802020494861086180000861E3
:103610001C49888904F07EFC4FF480701A490861C7
:10362000400048612012194908608020164948610D
:103630000861800008614010086140004861E0B204
:1036400012490860802010494861086180000861C3
:1036500040104861400048610A4800890B490860F1
:1036600080200949486108618000086140100861B4
:10367000400048610548056080204861086180007D
:10368000086130BD900A0020001001400C0C014080
:103690002DE9FC4F05460E4617469846DDF82C905E
:1036A000002001902C48808846F60401884229D1E8
:1036B00029488079012825D1AB463546264800881F
:1036C000C01B401E86B2474623480088A0EB0B0073
:1036D000401E1FFA80F800201F4988712A20488167
:1036E0002B20888143463A4631462846CDF8009043
:1036F000FFF7CEFF0120184988712B2048812A202E
:10370000888127E0781B401C80B2019034461FE07E
:103710002146284604F0E8F804F00EFC4FF0000AB9
:1037200011E04FF480700D490861400048610C4879
:10373000C0F80090802048610861800008610AF1AB
:1037400001001FFA80FA01988245EADB601C84B20E
:103750004445DDDDBDE8FC8F900A002000100140EB
:103760000C0C014008B50121192005F057F8012182
:10377000FE48FFF757FA4FF4F860ADF8000010204C
:103780008DF8030003208DF802006946F848FFF722
:10379000BDF94FF4F861F648FFF797FA4FF6FF705E
:1037A000ADF800006946F348FFF7B0F94FF6FF7136
:1037B000F048FFF78AFA322006F078FE0121002057
:1037C00004F0C2FB322006F071FE002003F0EEFD93
:1037D000E949888008468088FF280ADB08468088F7
:1037E0004FF6FF71884204D0E3488088B0F5134F4C
:1037F0007ED1D32004F08EFB03F0A0FD03F09EFDEC
:1038000003F09CFDDC498880084680884FF6FF71F4
:1038100001EA0020D849888003F090FDD6498988C4
:103820000843D54988800846808849F2413188425A
:103830005ED0BF2004F06EFB03F080FD03F07EFD40
:1038400003F07CFD03F07AFDCB4988800846808830
:103850004FF6FF7101EA0020C749888003F06EFD32
:10386000C54989880843C44988800846808846F647
:103870000401884274D0D42004F04CFB03F05EFDB8
:1038800003F05CFD03F05AFDBB4988800846808840
:103890004FF6FF7101EA0020B749888003F04EFD22
:1038A000B54989880843B44988800846808845F22C
:1038B0001031884254D04FF45A4004F02BFB03F0EF
:1038C0003DFD4FF45B4004F025FB03F037FDAA49B2
:1038D0008880084680884FF6FF7101EA0020A649DB
:1038E00088804FF45C4004F015FB03F027FD00E0F6
:1038F00036E0A149898808439F4988800846808826
:10390000B0F5004F02D145F2105088809A48808867
:1039100045F21051884223D0A12004F0FBFA03F0B5
:103920000DFD9549888003F009FD9349888008467C
:1039300080884FF6FF7101EA00208F49888003F0EC
:10394000FDFC8D49898808438B498880084680881A
:1039500045F26171884203D141F66310864988803F
:103960008548818885A0FCF7BBFC8348808849F2A4
:10397000413188427ED1CF2004F0CCFA002004F0FF
:10398000B7FAC12004F0B4FA302004F0B1FAED2007
:1039900004F0C0FA642004F0ABFA032004F0A8FAA3
:1039A000122004F0A5FA812004F0A2FAE82004F025
:1039B000B1FA852004F09CFA102004F099FA7A20DC
:1039C00004F096FACB2004F0A5FA392004F090FA1E
:1039D0002C2004F08DFA002004F08AFA342004F040
:1039E00087FA022004F084FAF72004F093FA2020EA
:1039F00004F07EFAEA2004F08DFA002004F078FA50
:103A0000002004F075FAC02004F084FA1B2004F0B2
:103A10006FFAC12004F07EFA012004F069FAC52093
:103A200004F078FA302004F063FA302004F060FAF1
:103A3000C72004F06FFAB72004F05AFA362004F0D9
:103A400069FA482004F054FA3A2004F063FA552049
:103A500004F04EFAB12004F05DFA002004F048FAB8
:103A60001A2004F045FAB62004F054FA0A2004F0B3
:103A70003FFA00E0A9E0A22004F03AFAF22004F0B4
:103A800049FA002004F034FA262004F043FA012019
:103A900004F02EFAE02004F03DFA0F2004F028FA9A
:103AA0002A2004F025FA282004F022FA082004F045
:103AB0001FFA0E2004F01CFA082004F019FA542012
:103AC00004F016FAA92004F013FA432004F010FAC7
:103AD0000A2004F00DFA0F2004F00AFA002004F086
:103AE00007FA002004F004FA002004F001FA002094
:103AF00004F0FEF9E12004F00DFA002004F0F8F9DA
:103B0000152004F0F5F9172004F0F2F9072004F06D
:103B1000EFF9112004F0ECF9062004F0E9F92B206C
:103B200004F0E6F9562004F0E3F93C2004F0E0F953
:103B3000052004F0DDF9102004F0DAF90F2004F07C
:103B4000D7F93F2004F0D4F93F2004F0D1F90F2039
:103B500004F0CEF92B2004F0DDF9002004F0C8F9C0
:103B6000002004F0C5F9012010E000000002300040
:103B700000100140000C0140900A0020204C4344FA
:103B80002049443A25780D0A0000000004F0B0F9FD
:103B90003F2004F0ADF92A2004F0BCF9002004F025
:103BA000A7F9002004F0A4F9002004F0A1F9EF2007
:103BB00004F09EF9112004F0ADF9782006F076FCAF
:103BC000292004F0A7F903F09ABBFE48808846F646
:103BD000040188427ED1112004F09CF9142006F0E3
:103BE00065FCD02004F096F9072004F081F942200A
:103BF00004F07EF91D2004F07BF9D12004F08AF94D
:103C0000002004F075F91A2004F072F9092004F07C
:103C10006FF9D22004F07EF9012004F069F9222026
:103C200004F066F9C02004F075F9102004F060F982
:103C30003B2004F05DF9002004F05AF9022004F062
:103C400057F9112004F054F9C52004F063F903205A
:103C500004F04EF9C82004F05DF9002004F048F9A2
:103C6000252004F045F9212004F042F9052004F054
:103C70003FF9002004F03CF90A2004F039F96520EE
:103C800004F036F9252004F033F9772004F030F9F8
:103C9000502004F02DF90F2004F02AF9002004F040
:103CA00027F9F82004F036F9012004F021F9FE206C
:103CB00004F030F9002004F01BF9022004F018F998
:103CC000202004F027F9362004F024F9082004F01D
:103CD0000FF900E02AE03A2004F01CF9552004F026
:103CE00007F92B2004F016F9002004F001F9002058
:103CF00004F0FEF8012004F0FBF83F2004F0F8F88F
:103D00002A2004F007F9002004F0F2F8002004F063
:103D1000EFF8012004F0ECF8DF2004F0E9F8782057
:103D200006F0C4FB292004F0F5F84CE7A54880888C
:103D300045F21031884240F07C87ED2004F0EAF82B
:103D4000012004F0D5F8FE2004F0D2F8EE2004F0B3
:103D5000E1F8DE2004F0CCF8212004F0C9F8F120CD
:103D600004F0D8F8012004F0C3F8DF2004F0D2F802
:103D7000102004F0BDF8C42004F0CCF88F2004F02B
:103D8000B7F8C62004F0C6F8002004F0B1F8E2202D
:103D900004F0AEF8E22004F0ABF8E22004F0A8F85A
:103DA000BF2004F0B7F8AA2004F0A2F8B02004F075
:103DB000B1F80D2004F09CF8002004F099F80D20D3
:103DC00004F096F8002004F093F8112004F090F825
:103DD000002004F08DF8192004F08AF8002004F087
:103DE00087F8212004F084F8002004F081F82D20C9
:103DF00004F07EF8002004F07BF83D2004F078F811
:103E0000002004F075F85D2004F072F8002004F042
:103E10006FF85D2004F06CF8002004F069F8B12020
:103E200004F078F8802004F063F8002004F060F8D3
:103E30008B2004F05DF8002004F05AF8962004F07E
:103E400057F8002004F054F8B22004F063F8002082
:103E500004F04EF8002004F04BF8022004F048F87B
:103E6000002004F045F8032004F042F8002004F09C
:103E70003FF8B32004F04EF8002004F039F8002099
:103E800004F036F8002004F033F8002004F030F895
:103E9000002004F02DF8002004F02AF8002004F09F
:103EA00027F8002004F024F8002004F021F8002076
:103EB00004F01EF8002004F01BF8002004F018F8AD
:103EC000002004F015F8002004F012F8002004F09F
:103ED0000FF8002004F00CF8002004F009F800208E
:103EE00004F006F8002004F003F8002004F000F8C5
:103EF000002003F0FDFF002003F0FAFF002003F094
:103F0000F7FF002003F0F4FFB42004F003F88B2047
:103F100003F0EEFF002003F0EBFF962003F0E8FF34
:103F2000002003F0E5FFA12003F0E2FF002003F0F2
:103F3000DFFFB52003F0EEFF022003F0D9FF0020E1
:103F400003F0D6FF032003F0D3FF002003F0D0FFDF
:103F5000042003F0CDFF002003F0CAFFB62003F0D9
:103F6000D9FF002003F0C4FF002003F0C1FFB720F9
:103F700003F0D0FF002003F0BBFF002003F0B8FFE8
:103F80003F2003F0B5FF002003F0B2FF5E2003F0F6
:103F9000AFFF002003F0ACFF642003F0A9FF002076
:103FA00003F0A6FF8C2003F0A3FF002003F0A0FF86
:103FB000AC2003F09DFF002003F09AFFDC2003F00B
:103FC00097FF01E0900A0020002003F091FF70208D
:103FD00003F08EFF002003F08BFF902003F088FF9A
:103FE000002003F085FFEB2003F082FF002003F0A8
:103FF0007FFFDC2003F07CFF002003F079FFB82076
:1040000003F088FF002003F073FF002003F070FF2F
:10401000002003F06DFF002003F06AFF002003F092
:1040200067FF002003F064FF002003F061FF002021
:1040300003F05EFFBA2003F06DFF242003F058FF69
:10404000002003F055FF002003F052FF002003F092
:104050004FFFC12003F05EFF202003F049FF002046
:1040600003F046FF542003F043FF002003F040FF1D
:10407000FF2003F03DFF002003F03AFFC22003F0D1
:1040800049FF0A2003F034FF002003F031FF042031
:1040900003F02EFF002003F02BFFC32003F03AFFB4
:1040A0003C2003F025FF002003F022FF3A2003F01C
:1040B0001FFF002003F01CFF392003F019FF002030
:1040C00003F016FF372003F013FF002003F010FF6A
:1040D0003C2003F00DFF002003F00AFF362003F020
:1040E00007FF002003F004FF322003F001FF00204F
:1040F00003F0FEFE2F2003F0FBFE002003F0F8FE8D
:104100002C2003F0F5FE002003F0F2FE292003F03E
:10411000EFFE002003F0ECFE262003F0E9FE002075
:1041200003F0E6FE242003F0E3FE002003F0E0FEAF
:10413000242003F0DDFE002003F0DAFE232003F04C
:10414000D7FE002003F0D4FE3C2003F0D1FE002077
:1041500003F0CEFE362003F0CBFE002003F0C8FEB5
:10416000322003F0C5FE002003F0C2FE2F2003F032
:10417000BFFE002003F0BCFE2C2003F0B9FE00209F
:1041800003F0B6FE292003F0B3FE002003F0B0FEDA
:10419000262003F0ADFE002003F0AAFE242003F049
:1041A000A7FE002003F0A4FE242003F0A1FE0020BF
:1041B00003F09EFE232003F09BFE002003F098FEF8
:1041C000C42003F0A7FE622003F092FE002003F05B
:1041D0008FFE052003F08CFE002003F089FE842072
:1041E00003F086FE002003F083FEF02003F080FE43
:1041F000002003F07DFE182003F07AFE002003F07B
:1042000077FEA42003F074FE002003F071FE182056
:1042100003F06EFE002003F06BFE502003F068FEFA
:10422000002003F065FE0C2003F062FE002003F086
:104230005FFE172003F05CFE002003F059FE95207E
:1042400003F056FE002003F053FEF32003F050FE6F
:10425000002003F04DFEE62003F04AFE002003F0AC
:1042600047FEC52003F056FE322003F041FE002039
:1042700003F03EFE442003F03BFE002003F038FE36
:10428000652003F035FE002003F032FE762003F0B7
:104290002FFE002003F02CFE882003F029FE0020D2
:1042A00003F026FEC62003F035FE202003F020FE9A
:1042B000002003F01DFE172003F01AFE002003F07B
:1042C00017FE012003F014FE002003F011FEC720AA
:1042D00003F020FE002003F00BFE002003F008FE98
:1042E000002003F005FE002003F002FEC82003F0CA
:1042F00011FE002003F0FCFD002003F0F9FD00207A
:1043000003F0F6FD002003F0F3FDC92003F002FEE8
:10431000002003F0EDFD002003F0EAFD002003F093
:10432000E7FD002003F0E4FD002003F0E1FD0020A4
:1043300003F0DEFD002003F0DBFD002003F0D8FDDC
:10434000002003F0D5FD002003F0D2FD002003F093
:10435000CFFD002003F0CCFD002003F0C9FD0020BC
:1043600003F0C6FD002003F0C3FD002003F0C0FDF4
:10437000E02003F0CFFD162003F0BAFD002003F08B
:10438000B7FD1C2003F0B4FD002003F0B1FD212097
:1043900003F0AEFD002003F0ABFD362003F0A8FDD6
:1043A000002003F0A5FD462003F0A2FD002003F04D
:1043B0009FFD522003F09CFD002003F099FD642036
:1043C00003F096FD002003F093FD7A2003F090FDAA
:1043D000002003F08DFD8B2003F08AFD002003F008
:1043E00087FD992003F084FD002003F081FDA820C3
:1043F00003F07EFD002003F07BFDB92003F078FD83
:10440000002003F075FDC42003F072FD002003F0CE
:104410006FFDCA2003F06CFD002003F069FDD2207F
:1044200003F066FD002003F063FDD92003F060FD7A
:10443000002003F05DFDE02003F05AFD002003F0B2
:1044400057FDF32003F054FD002003F051FDE1205F
:1044500003F060FD162003F04BFD002003F048FD43
:104460001C2003F045FD002003F042FD222003F054
:104470003FFD002003F03CFD362003F039FD002015
:1044800003F036FD452003F033FD002003F030FD3E
:10449000522003F02DFD002003F02AFD642003F0DC
:1044A00027FD002003F024FD7A2003F021FD0020E9
:1044B00003F01EFD8B2003F01BFD002003F018FD10
:1044C000992003F015FD002003F012FDA82003F051
:1044D0000FFD002003F00CFDB92003F009FD0020C2
:1044E00003F006FDC42003F003FD002003F000FDEF
:1044F000CA2003F0FDFC002003F0FAFCD22003F0F8
:10450000F7FC002003F0F4FCD82003F0F1FC0020BD
:1045100003F0EEFCE02003F0EBFC002003F0E8FCED
:10452000F32003F0E5FC002003F0E2FCE22003F0BE
:10453000F1FC052003F0DCFC002003F0D9FC0B208B
:1045400003F0D6FC002003F0D3FC1B2003F0D0FCCA
:10455000002003F0CDFC342003F0CAFC002003F05F
:10456000C7FC442003F0C4FC002003F0C1FC4F2032
:1045700003F0BEFC002003F0BBFC612003F0B8FC9C
:10458000002003F0B5FC792003F0B2FC002003F01A
:10459000AFFC882003F0ACFC002003F0A9FC9720BE
:1045A00003F0A6FC002003F0A3FCA62003F0A0FC6F
:1045B000002003F09DFCB72003F09AFC002003F0DC
:1045C00097FCC22003F094FC002003F091FCC7206C
:1045D00003F08EFC002003F08BFCD12003F088FC5C
:1045E000002003F085FCD62003F082FC002003F0BD
:1045F0007FFCDD2003F07CFC002003F079FCF3203D
:1046000003F076FC002003F073FCE32003F082FC4F
:10461000052003F06DFC002003F06AFC0A2003F083
:1046200067FC002003F064FC1C2003F061FC002008
:1046300003F05EFC332003F05BFC002003F058FC29
:10464000442003F055FC002003F052FC502003F0FE
:104650004FFC002003F04CFC622003F049FC0020DA
:1046600003F046FC782003F043FC002003F040FCFC
:10467000882003F03DFC002003F03AFC972003F073
:1046800037FC002003F034FCA62003F031FC0020AE
:1046900003F02EFCB72003F02BFC002003F028FCD5
:1046A000C22003F025FC002003F022FCC72003F009
:1046B0001FFC002003F01CFCD12003F019FC00209B
:1046C00003F016FCD52003F013FC002003F010FCCF
:1046D000DD2003F00DFC002003F00AFCF32003F0C2
:1046E00007FC002003F004FCE42003F013FC01208D
:1046F00003F0FEFB002003F0FBFB012003F0F8FBBE
:10470000002003F0F5FB022003F0F2FB002003F091
:10471000EFFB2A2003F0ECFB002003F0E9FB3C2038
:1047200003F0E6FB002003F0E3FB4B2003F0E0FB8B
:10473000002003F0DDFB5D2003F0DAFB002003F036
:10474000D7FB742003F0D4FB002003F0D1FB8420BE
:1047500003F0CEFB002003F0CBFB932003F0C8FB5B
:10476000002003F0C5FBA22003F0C2FB002003F0F1
:10477000BFFBB32003F0BCFB002003F0B9FBBE205D
:1047800003F0B6FB002003F0B3FBC42003F0B0FB42
:10479000002003F0ADFBCD2003F0AAFB002003F0C6
:1047A000A7FBD32003F0A4FB002003F0A1FBDD2036
:1047B00003F09EFB002003F09BFBF32003F098FB2B
:1047C000002003F095FBE52003F0A4FB002003F09C
:1047D0008FFB002003F08CFB002003F089FB0020FE
:1047E00003F086FB022003F083FB002003F080FB34
:1047F000292003F07DFB002003F07AFB3C2003F02E
:1048000077FB002003F074FB4B2003F071FB0020CA
:1048100003F06EFB5D2003F06BFB002003F068FBF0
:10482000742003F065FB002003F062FB842003F09A
:104830005FFB002003F05CFB932003F059FB00209A
:1048400003F056FBA22003F053FB002003F050FBC3
:10485000B32003F04DFB002003F04AFBBE2003F021
:1048600047FB002003F044FBC42003F041FB002081
:1048700003F03EFBCD2003F03BFB002003F038FBB0
:10488000D32003F035FB002003F032FBDC2003F0E3
:104890002FFB002003F02CFBF32003F029FB00206A
:1048A00003F026FBE62003F035FB112003F020FB8C
:1048B000002003F01DFB342003F01AFB002003F05E
:1048C00017FB562003F014FB002003F011FB7620A9
:1048D00003F00EFB002003F00BFB772003F008FB36
:1048E000002003F005FB662003F002FB002003F02C
:1048F000FFFA882003F0FCFA002003F0F9FA99206F
:1049000003F0F6FA002003F0F3FABB2003F0F0FA0C
:10491000002003F0EDFA992003F0EAFA002003F0FA
:10492000E7FA662003F0E4FA002003F0E1FA5520EC
:1049300003F0DEFA002003F0DBFA552003F0D8FA8A
:10494000002003F0D5FA452003F0D2FA002003F04E
:10495000CFFA432003F0CCFA002003F0C9FA442038
:1049600003F0C6FA002003F0C3FAE72003F0D2FAFE
:10497000322003F0BDFA002003F0BAFA552003F00C
:10498000B7FA002003F0B4FA762003F0B1FA002061
:1049900003F0AEFA662003F0ABFA002003F0A8FAA9
:1049A000672003F0A5FA002003F0A2FA672003F0C5
:1049B0009FFA002003F09CFA872003F099FA002068
:1049C00003F096FA992003F093FA002003F090FA8E
:1049D000BB2003F08DFA002003F08AFA992003F03F
:1049E00087FA002003F084FA772003F081FA002090
:1049F00003F07EFA442003F07BFA002003F078FAFB
:104A0000562003F075FA002003F072FA232003F019
:104A10006FFA002003F06CFA332003F069FA0020EB
:104A200003F066FA452003F063FA002003F060FA11
:104A3000E82003F06FFA002003F05AFA002003F098
:104A400057FA992003F054FA002003F051FA872016
:104A500003F04EFA002003F04BFA882003F048FAE6
:104A6000002003F045FA772003F042FA002003F01B
:104A70003FFA662003F03CFA002003F039FA882060
:104A800003F036FA002003F033FAAA2003F030FADC
:104A9000002003F02DFABB2003F02AFA002003F0D7
:104AA00027FA992003F024FA002003F021FA662067
:104AB00003F01EFA002003F01BFA552003F018FA49
:104AC000002003F015FA552003F012FA002003F03D
:104AD0000FFA442003F00CFA002003F009FA4420F6
:104AE00003F006FA002003F003FA552003F000FA61
:104AF000002003F0FDF9E92003F00CFAAA2003F0EE
:104B0000F7F9002003F0F4F9002003F0F1F9002098
:104B100003F0EEF9002003F0FDF9AA2003F0E8F914
:104B2000CF2003F0F7F9002003F0E2F9002003F0B2
:104B3000DFF9002003F0DCF9002003F0D9F90020B0
:104B400003F0D6F9002003F0D3F9002003F0D0F9E8
:104B5000002003F0CDF9002003F0CAF9002003F093
:104B6000C7F9002003F0C4F9002003F0C1F90020C8
:104B700003F0BEF9002003F0BBF9002003F0B8F900
:104B8000002003F0B5F9002003F0B2F9F02003F0A3
:104B9000C1F9002003F0ACF9502003F0A9F900207E
:104BA00003F0A6F9002003F0A3F9002003F0A0F918
:104BB000F32003F0AFF9002003F09AF9F92003F095
:104BC000A9F9062003F094F9102003F091F92920A7
:104BD00003F08EF9002003F08BF93A2003F09AF9E4
:104BE000552003F085F9112003F094F9642005F0B5
:104BF0005DFC292003F08EF9352003F08BF90020AD
:104C000003F076F9512003F085F9FF2003F070F9E5
:104C1000532003F07FF92C2003F06AF9552003F0AC
:104C200079F9822003F064F92C2003F073F902F083
:104C300066BBFE48808845F2105188427ED15521DE
:104C40004FF4704003F080F9AA214FF2010003F005
:104C50007BF952214FF2020003F076F908214FF25E
:104C6000030003F071F901214FF2040003F06CF925
:104C70000D214FF4304003F067F90D214BF2010094
:104C800003F062F90D214BF2020003F05DF93421CB
:104C90004FF4364003F058F934214BF2016003F031
:104CA00053F934214BF2026003F04EF90D214FF419
:104CB000314003F049F90D214BF2011003F044F9A2
:104CC0000D214BF2021003F03FF934214FF437402D
:104CD00003F03AF934214BF2017003F035F9342135
:104CE0004BF2027003F030F900214FF4324003F030
:104CF0002BF900214BF2012003F026F900214BF2A1
:104D0000022003F021F924214FF4384003F01CF96C
:104D100024214BF6010003F017F924214BF6020081
:104D200003F012F901214FF43F4003F00DF90F2178
:104D30004FF4334003F008F90F2100E0FEE34BF29B
:104D4000013003F001F90F214BF2023003F0FCF8BF
:104D500034214FF4394003F0F7F834214BF60110B9
:104D600003F0F2F834214BF6021003F0EDF80821BD
:104D70004FF4354003F0E8F808214BF2015003F0FE
:104D8000E3F808214BF2025003F0DEF803214FF460
:104D9000424003F0D9F824214FF43A4003F0D4F80C
:104DA00024214BF6012003F0CFF824214BF60220FA
:104DB00003F0CAF800214FF43C4003F0C5F8782115
:104DC0004BF6014003F0C0F800214BF6024003F01F
:104DD000BBF800214FF43D4003F0B6F878214BF6C4
:104DE000015003F0B1F800214BF6025003F0ACF88B
:104DF00000214FF43E4003F0A7F864214BF6016018
:104E000003F0A2F800214FF4514003F09DF8332144
:104E10004DF2011003F098F800214DF2021003F05A
:104E200093F834214DF2031003F08EF800214DF277
:104E3000041003F089F83A214DF2051003F084F8CC
:104E400000214DF2061003F07FF84A214DF20710C1
:104E500003F07AF800214DF2081003F075F85C2198
:104E60004DF2091003F070F800214DF20A1003F022
:104E70006BF881214DF20B1003F066F800214DF222
:104E80000C1003F061F8A6214DF20D1003F05CF850
:104E900000214DF20E1003F057F8E5214DF20F10EE
:104EA00003F052F801214DF2101003F04DF81321D8
:104EB0004DF2111003F048F801214DF2121003F0E9
:104EC00043F854214DF2131003F03EF801214DF246
:104ED000141003F039F882214DF2151003F034F864
:104EE00001214DF2161003F02FF8CA214DF21710D0
:104EF00003F02AF802214DF2181003F025F80021E2
:104F00004DF2191003F020F802214DF21A1003F0AF
:104F10001BF801214DF21B1003F016F802214DF28F
:104F20001C1003F011F834214DF21D1003F00CF8A1
:104F300002214DF21E1003F007F867214DF21F10F9
:104F400003F002F802214DF2201002F0FDFF84214F
:104F50004DF2211002F0F8FF02214DF2221002F072
:104F6000F3FFA4214DF2231002F0EEFF02214DF2D7
:104F7000241002F0E9FFB7214DF2251002F0E4FF02
:104F800002214DF2261002F0DFFFCF214DF2271053
:104F900002F0DAFF02214DF2281002F0D5FFDE21E7
:104FA0004DF2291002F0D0FF02214DF22A1002F03A
:104FB000CBFFF2214DF22B1002F0C6FF02214DF281
:104FC0002C1002F0C1FFFE214DF22D1002F0BCFFAB
:104FD00003214DF22E1002F0B7FF10214DF22F10D9
:104FE00002F0B2FF03214DF2301002F0ADFF332189
:104FF0004DF2311002F0A8FF03214DF2321002F001
:10500000A3FF6D214DF2331002F09EFF00214FF4FB
:10501000524002F099FF33214DF2012002F094FF3B
:1050200000214DF2022002F08FFF01E0900A0020E3
:1050300034214DF2032002F087FF00214DF20420BD
:1050400002F082FF3A214DF2052002F07DFF00219F
:105050004DF2062002F078FF4A214DF2072002F0BF
:1050600073FF00214DF2082002F06EFF5C214DF22B
:10507000092002F069FF00214DF20A2002F064FFCE
:1050800081214DF20B2002F05FFF00214DF20C2038
:1050900002F05AFFA6214DF20D2002F055FF00212B
:1050A0004DF20E2002F050FFE5214DF20F2002F0EC
:1050B0004BFF01214DF2102002F046FF13214DF26B
:1050C000112002F041FF01214DF2122002F03CFFBD
:1050D00054214DF2132002F037FF01214DF214202C
:1050E00002F032FF82214DF2152002F02DFF012146
:1050F0004DF2162002F028FFCA214DF2172002F0CF
:1051000023FF02214DF2182002F01EFF00214DF274
:10511000192002F019FF02214DF21A2002F014FFAB
:1051200001214DF21B2002F00FFF02214DF21C2045
:1051300002F00AFF34214DF21D2002F005FF02218A
:105140004DF21E2002F000FF67214DF21F2002F0F9
:10515000FBFE02214DF2202002F0F6FE84214DF2EA
:10516000212002F0F1FE02214DF2222002F0ECFE9D
:10517000A4214DF2232002F0E7FE02214DF224206B
:1051800002F0E2FEB7214DF2252002F0DDFE022101
:105190004DF2262002F0D8FECF214DF2272002F05A
:1051A000D3FE02214DF2282002F0CEFEDE214DF288
:1051B000292002F0C9FE02214DF22A2002F0C4FE8D
:1051C000F2214DF22B2002F0BFFE02214DF22C20E5
:1051D00002F0BAFEFE214DF22D2002F0B5FE0321B1
:1051E0004DF22E2002F0B0FE10214DF22F2002F0E1
:1051F000ABFE03214DF2302002F0A6FE33214DF22A
:10520000312002F0A1FE03214DF2322002F09CFE7B
:105210006D214DF2332002F097FE00214FF45340F0
:1052200002F092FE33214DF2013002F08DFE00219A
:105230004DF2023002F088FE34214DF2033002F0CC
:1052400083FE00214DF2043002F07EFE3A214DF241
:10525000053002F079FE00214DF2063002F074FEB6
:105260004A214DF2073002F06FFE00214DF2083066
:1052700002F06AFE5C214DF2093002F065FE002169
:105280004DF20A3002F060FE81214DF20B3002F047
:105290005BFE00214DF20C3002F056FEA6214DF2CD
:1052A0000D3002F051FE00214DF20E3002F04CFEA6
:1052B000E5214DF20F3002F047FE01214DF2103092
:1052C00002F042FE13214DF2113002F03DFE0121A9
:1052D0004DF2123002F038FE54214DF2133002F03C
:1052E00033FE01214DF2143002F02EFE82214DF2E8
:1052F000153002F029FE01214DF2163002F024FE95
:10530000CA214DF2173002F01FFE02214DF2183073
:1053100002F01AFE00214DF2193002F015FE0221B2
:105320004DF21A3002F010FE01214DF21B3002F056
:105330000BFE02214DF21C3002F006FE34214DF22C
:105340001D3002F001FE02214DF21E3002F0FCFD84
:1053500067214DF21F3002F0F7FD02214DF220309F
:1053600002F0F2FD84214DF2213002F0EDFD022128
:105370004DF2223002F0E8FDA4214DF2233002F07C
:10538000E3FD02214DF2243002F0DEFDB7214DF2A3
:10539000253002F0D9FD02214DF2263002F0D4FD75
:1053A000CF214DF2273002F0CFFD02214DF22830FF
:1053B00002F0CAFDDE214DF2293002F0C5FD0221C6
:1053C0004DF22A3002F0C0FDF2214DF22B3002F0F6
:1053D000BBFD02214DF22C3002F0B6FDFE214DF254
:1053E0002D3002F0B1FD03214DF22E3002F0ACFD64
:1053F00010214DF22F3002F0A7FD03214DF2303085
:1054000002F0A2FD33214DF2313002F09DFD032167
:105410004DF2323002F098FD6D214DF2333002F042
:1054200093FD00214FF4544002F08EFD33214DF2E4
:10543000014002F089FD00214DF2024002F084FD9E
:1054400034214DF2034002F07FFD00214DF2044073
:1054500002F07AFD3A214DF2054002F075FD00217F
:105460004DF2064002F070FD4A214DF2074002F075
:105470006BFD00214DF2084002F066FD5C214DF20B
:10548000094002F061FD00214DF20A4002F05CFD8E
:1054900081214DF20B4002F057FD00214DF20C40EE
:1054A00002F052FDA6214DF20D4002F04DFD00210B
:1054B0004DF20E4002F048FDE5214DF20F4002F0A2
:1054C00043FD01214DF2104002F03EFD13214DF24B
:1054D000114002F039FD01214DF2124002F034FD7D
:1054E00054214DF2134002F02FFD01214DF21440E2
:1054F00002F02AFD82214DF2154002F025FD012126
:105500004DF2164002F020FDCA214DF2174002F084
:105510001BFD02214DF2184002F016FD00214DF254
:10552000194002F011FD02214DF21A4002F00CFD6B
:1055300001214DF21B4002F007FD00E004E30221CF
:105540004DF21C4002F000FD34214DF21D4002F0EE
:10555000FBFC02214DF21E4002F0F6FC67214DF2E9
:105560001F4002F0F1FC02214DF2204002F0ECFC61
:1055700084214DF2214002F0E7FC02214DF222404D
:1055800002F0E2FCA4214DF2234002F0DDFC0221F6
:105590004DF2244002F0D8FCB7214DF2254002F034
:1055A000D3FC02214DF2264002F0CEFCCF214DF279
:1055B000274002F0C9FC02214DF2284002F0C4FC51
:1055C000DE214DF2294002F0BFFC02214DF22A40BB
:1055D00002F0BAFCF2214DF22B4002F0B5FC0221A0
:1055E0004DF22C4002F0B0FCFE214DF22D4002F0B5
:1055F000ABFC03214DF22E4002F0A6FC10214DF22F
:105600002F4002F0A1FC03214DF2304002F09CFC3F
:1056100033214DF2314002F097FC03214DF232402C
:1056200002F092FC6D214DF2334002F08DFC00211E
:105630004FF4554002F088FC33214DF2015002F046
:1056400083FC00214DF2025002F07EFC34214DF229
:10565000035002F079FC00214DF2045002F074FC7A
:105660003A214DF2055002F06FFC00214DF2065038
:1056700002F06AFC4A214DF2075002F065FC00215D
:105680004DF2085002F060FC5C214DF2095002F02E
:105690005BFC00214DF20A5002F056FC81214DF2D4
:1056A0000B5002F051FC00214DF20C5002F04CFC6A
:1056B000A6214DF20D5002F047FC00214DF20E5094
:1056C00002F042FCE5214DF20F5002F03DFC0121B9
:1056D0004DF2105002F038FC13214DF2115002F03F
:1056E00033FC01214DF2125002F02EFC54214DF2F8
:1056F000135002F029FC01214DF2145002F024FC59
:1057000082214DF2155002F01FFC01214DF216507E
:1057100002F01AFCCA214DF2175002F015FC0221CA
:105720004DF2185002F010FC00214DF2195002F019
:105730000BFC02214DF21A5002F006FC01214DF241
:105740001B5002F001FC02214DF21C5002F0FCFB48
:1057500034214DF21D5002F0F7FB02214DF21E5094
:1057600002F0F2FB67214DF21F5002F0EDFB022127
:105770004DF2205002F0E8FB84214DF2215002F05E
:10578000E3FB02214DF2225002F0DEFBA4214DF298
:10579000235002F0D9FB02214DF2245002F0D4FB39
:1057A000B7214DF2255002F0CFFB02214DF22650D9
:1057B00002F0CAFBCF214DF2275002F0C5FB0221B7
:1057C0004DF2285002F0C0FBDE214DF2295002F0CC
:1057D000BBFB02214DF22A5002F0B6FBF2214DF242
:1057E0002B5002F0B1FB02214DF22C5002F0ACFB29
:1057F000FE214DF22D5002F0A7FB03214DF22E5059
:1058000002F0A2FB10214DF22F5002F09DFB03216C
:105810004DF2305002F098FB33214DF2315002F03E
:1058200093FB03214DF2325002F08EFB6D214DF2BD
:10583000335002F089FB00214FF4564002F084FB04
:1058400033214DF2016002F07FFB00214DF2026036
:1058500002F07AFB34214DF2036002F075FB002167
:105860004DF2046002F070FB3A214DF2056002F047
:105870006BFB00214DF2066002F066FB4A214DF2FF
:10588000076002F061FB00214DF2086002F05CFB52
:105890005C214DF2096002F057FB00214DF20A60D5
:1058A00002F052FB81214DF20B6002F04DFB002112
:1058B0004DF20C6002F048FBA6214DF20D6002F0A3
:1058C00043FB00214DF20E6002F03EFBE5214DF25C
:1058D0000F6002F039FB01214DF2106002F034FB41
:1058E00013214DF2116002F02FFB01214DF21260E5
:1058F00002F02AFB54214DF2136002F025FB012136
:105900004DF2146002F020FB82214DF2156002F08E
:105910001BFB01214DF2166002F016FBCA214DF26D
:10592000176002F011FB02214DF2186002F00CFB2F
:1059300000214DF2196002F007FB02214DF21A60BE
:1059400002F002FB01214DF21B6002F0FDFA022180
:105950004DF21C6002F0F8FA34214DF21D6002F0A5
:10596000F3FA02214DF21E6002F0EEFA67214DF2C9
:105970001F6002F0E9FA02214DF2206002F0E4FA21
:1059800084214DF2216002F0DFFA02214DF2226003
:1059900002F0DAFAA4214DF2236002F0D5FA0221D6
:1059A0004DF2246002F0D0FAB7214DF2256002F0EA
:1059B000CBFA02214DF2266002F0C6FACF214DF259
:1059C000276002F0C1FA02214DF2286002F0BCFA11
:1059D000DE214DF2296002F0B7FA02214DF22A6071
:1059E00002F0B2FAF2214DF22B6002F0ADFA022180
:1059F0004DF22C6002F0A8FAFE214DF22D6002F06B
:105A0000A3FA03214DF22E6002F09EFA10214DF20E
:105A10002F6002F099FA03214DF2306002F094FAFF
:105A200033214DF2316002F08FFA03214DF23260E2
:105A300002F08AFA6D214DF2336002F085FA5521A9
:105A40004FF4704002F080FAAA214FF2010002F0F8
:105A50007BFA52214FF2020002F076FA08214FF24F
:105A6000030002F071FA00214FF2040002F06CFA18
:105A7000CC214FF4314002F067FA00214BF20110C3
:105A800002F062FA05214FF4364002F05DFA70210F
:105A90004FF4374002F058FA70214BF2017002F0D7
:105AA00053FA01214FF4384002F04EFA03214BF62D
:105AB000010002F049FA03214BF6020002F044FA19
:105AC00003214BF6030002F03FFA02214FF43C4061
:105AD00002F03AFA00214BF6014002F035FA0021BB
