:020000040800F2
:10000000D0A500207902000815860008DF2D000821
:1000100011860008F91D0008EF9B00080000000091
:10002000000000000000000000000000CB8E00086F
:1000300081250008000000009D860008DD8F000873
:10004000930200089302000893020008930200083C
:10005000930200089302000893020008930200082C
:100060009302000893020008B525000893020008D7
:10007000930200089302000893020008930200080C
:1000800093020008930200089302000893020008FC
:1000900093020008930200089302000893020008EC
:1000A00093020008930200089302000893020008DC
:1000B00093020008FD900008C59100089302000813
:1000C00093020008930200089302000893020008BC
:1000D00093020008999700082198000893020008ED
:1000E0008525000893020008930200089302000887
:1000F000930200089302000893020008930200088C
:10010000930200089302000893020008930200087B
:10011000930200089302000893020008930200086B
:10012000930200089302000893020008930200085B
:1001300000F002F800F090F80AA090E8000C824469
:100140008344AAF10107DA4501D100F085F8AFF246
:10015000090EBAE80F0013F0010F18BFFB1A43F0A5
:1001600001031847F428010014290100103A24BFA4
:1001700078C878C1FAD8520724BF30C830C144BF0C
:1001800004680C607047000000230024002500264E
:10019000103A28BF78C1FBD8520728BF30C148BFEA
:1001A0000B6070476E2900F01F83702900F05F819B
:1001B00066290BF03E8065290BF03B8067290BF028
:1001C00038806129AFF3008003681B0A28BF41F023
:1001D0008001692900F0D080642900F0CD80752964
:1001E00000F0CA806F2900F01684782900F02B8176
:1001F000E92900F0B183E42900F0AE83F52900F08D
:10020000AB83EF2900F01384F82900F02A810368FA
:10021000DB0928BF41F08001632900F020837329A6
:1002200000F02583E32900F06986F32900F06E864B
:10023000002070471FB500F0BFFE04000020002121
:100240000AF0CCFC401C6060002000210AF0B0FCE9
:10025000E0601FBD10B510BD00F080FE1146FFF735
:10026000E9FF0AF0A5FA00F059FF03B4FFF7F2FF27
:1002700003BC09F0D9FC0000094880470948004741
:10028000FEE7FEE7FEE7FEE7FEE7FEE7FEE7FEE746
:10029000FEE7FEE704480549054A064B70470000A3
:1002A0009D90000831010008D09F0020D0A50020BB
:1002B000D0A10020D0A10020704700001CB50C4642
:1002C000064B7B4469460090204600F0A6FA04469F
:1002D0000020694600F0B4FA20461CBD7B050000F2
:1002E0000FB4044910B503AA029800F0C5FA10BC77
:1002F0005DF814FB2C0000200FB41CB5084B06AAB7
:100300007B4469460090059800F087FA0446002077
:10031000694600F095FA20461CBC5DF814FB00000D
:100320003D05000070B50C460546012A05D0287829
:10033000800600D5EA69002302E0012305E05B1C8A
:10034000934202D2E05C0028F9D1A869E618C01AED
:10035000A861286A18442862284600F0B3F904E02E
:10036000D5E9012114F8010B9047B442F8D328468F
:1003700000F0BEF970BD00002DE9F04106460024F2
:1003800010687529314616A510D000F0C2F9002872
:1003900002DA404213A507E031688A0701D512A5A9
:1003A00002E0490704D511A5012401E000F0BAF9E3
:1003B00000210A2206F1240709E0B0FBF2FCB0FBA1
:1003C000F2F302FB1C00303078541846491C002818
:1003D000F3D123462A463046BDE8F04100F0ABB9E0
:1003E000000000002D0000002B0000002000000095
:1003F000F0B40D460188090502D5214C7C4402E089
:100400001F4C7C440E34002100F1240608E002F069
:100410000F071209E75D42EA03721B097754491C72
:1004200052EA0307F3D102780023120704D5702D96
:1004300006D009B1022311342246F0BC00F07BB98A
:1004400001231034F8E770B504460D4621461068C4
:1004500000F068F9024629462046BDE870400023B6
:10046000C6E7D21D22F00703D3E90023C0E70368E3
:10047000126843F0200303600823C3610023B7E739
:10048000F32401002DE9F05F894604464FF0000A8D
:10049000DFF874B1FB44C0F820A02046E16888472B
:1004A000002874D0252806D0D4E901219047206A7D
:1004B000401C2062F1E700265F462046E16888473D
:1004C0002028054607DB312D05D2781910F8200CBD
:1004D00008B10643F1E7B00701D526F00406C4F8D9
:1004E0001CA00027C4F818A02A2D09D0284609F01E
:1004F00094FB38B304EB8708303DC8F8185019E076
:1005000059F8041B204604EB87029161E168884793
:10051000012F054618D1E069002820DA26F02006D0
:100520001DE0D8F8180000EB800005EB40003038E3
:10053000C8F818002046E1688847054609F06DFBB9
:100540000028EED1012F0AD02E2D08D12046E168D7
:1005500088477F1C0546022F46F02006C4DBA069B1
:10056000002803DA404246F00106A061F00701D0FE
:1005700026F010066C2D0BD0682D09D04C2D39D0EB
:100580006A2D35D0742D35D07A2D33D016E038E071
:10059000E1682F4620468847B842054609D16C2FAE
:1005A00026D04FF48060E168064320468847054620
:1005B00004E06C2F1AD04FF4807006430DB3A5F100
:1005C0004100192802D8203546F400664A462946DB
:1005D000204626604E46FFF7E5FD80B101280BD08E
:1005E000F61D26F0070000F1080956E74020E4E771
:1005F0008020D8E70020D6E706F104094DE7284619
:1006000052E7206ABDE8F09F8324010030B505461B
:100610000B462A4613F8014B12F8010B08B1A04211
:10062000F8D01CB1002802D06D1CF1E7284630BD7F
:1006300010B5431C02E010F8011B71B18107FAD11B
:100640004FF0013202C88C1A8C4314EAC211F9D05F
:10065000C01A0A0603D0C01E10BDC01A10BD0A047D
:1006600001D0801E10BD0902FCD0401E10BD4FF00D
:10067000000200B5134694469646203922BFA0E8F2
:100680000C50A0E80C50B1F12001BFF4F7AF0907FE
:1006900028BFA0E80C5048BF0CC05DF804EB8900EF
:1006A00028BF40F8042B08BF704748BF20F8022B32
:1006B00011F0804F18BF00F8012B7047704770474A
:1006C0007047704770B5044685690068C10601D55A
:1006D000302600E02026C00707D070BDD4E90121F4
:1006E00030469047206A401C20626D1EF6D570BDD2
:1006F00070B5044685690078C00707D170BDD4E99C
:10070000012120209047206A401C20626D1EF6D5F2
:1007100070BD09684A0501D540B27047C905FCD5CE
:1007200000B2704709684A0501D5C0B27047C905D3
:10073000FCD580B270472DE9F0470D4699469246A8
:10074000044600F124080168880604D5E06921F018
:100750001001216000E00120A84201DD471B00E0FC
:100760000027A1697A1902EB0900081AA061207814
:10077000C00602D42046FFF7A5FF002608E0D4E912
:1007800001211AF806009047206A401C761C20625E
:100790004E45F4DB2078C0060AD52046FFF792FFCD
:1007A00006E0D4E9012130209047206A401C2062F5
:1007B000381EA7F10107F4DC07E0D4E9012118F89D
:1007C00005009047206A401C2062281EA5F1010503
:1007D000F3DC2046FFF78CFF2078000602D50220CC
:1007E000BDE8F0870120FBE711680268006A530545
:1007F00001D508700AE0D30501D5088006E013068C
:1008000003D5C217C1E9000200E00860012070476B
:1008100001694A1C02610878704700B58FB0CDE9C4
:1008200001310021059105497944CDE903101146B4
:100830006846FFF727FE0FB000BD0000E5FFFFFF91
:100840000A6802F8010B0A60704710B5436913B1DA
:10085000AFF3008001E0FFF765FD012010BD1278C5
:1008600000F124010A7000224A700122EDE71168AC
:100870004FF0FF32E9E70000074B70B50D467B44AF
:10088000FFF7CBFF0446284600F044FB10B14FF0C1
:10089000FF3070BD204670BD139F00002DE9FF5F43
:1008A00015468A460446DFF8AC80F8440027D8E9AC
:1008B00000103E46CDE9001010E03AF816106A46E6
:1008C00002A800F02BFB411C07D02178890603D534
:1008D000E269391891420DD80744761C20788006C9
:1008E00002D5E069B84205DDAE42E6DB3AF8160013
:1008F0000028E2D1A069C01BA0612046FFF7E2FEFC
:10090000D8E90010CDE90010002017E03AF81810DF
:100910006A4602A800F002FBB0F1FF3F81460BD00F
:1009200000250DF1080B05E0D4E901211BF80500B5
:1009300090476D1C4D45F7D308F10100B042804649
:10094000E4DB206A384420622046FFF7D1FEBDE890
:10095000FF9F00007E2001002DE9F0418046D21D5E
:1009600022F007020025D2E90002F52915A614D0CD
:10097000011E72F1000106DA0023D0EB030063EBE5
:10098000020211A608E0D8F800108B0701D50FA6C7
:1009900002E0490701D50EA601251146002408F101
:1009A000240704E000F04EF830323A55641C50EA57
:1009B0000102F7D12B46324621464046BDE8F041C0
:1009C000FFF7B9BE000000002D0000002B00000062
:1009D0002000000030B4002100F1240408E002F0FF
:1009E0000705D208303542EA4372DB086554491CDA
:1009F00052EA0305F3D10468002310A2250707D5A6
:100A0000A40600D421B1C46901230DA2641EC461EF
:100A100030BCFFF790BE10B5044621461068FFF7C2
:100A200081FE02462046BDE810400023D2E7D21DD9
:100A300022F00701D1E90023CCE70000000000000C
:100A40003000000030B5B0F10A024FEA900E71F1AB
:100A500000034EEA817EB0EB0E0061EB91014FEA9C
:100A6000101E4EEA017E10EB0E0041EB11114FEA11
:100A7000102E4EEA016E10EB0E0041EB11214FEAF1
:100A8000104E4EEA014E10EB0E0041EB11414018A2
:100A900041F100014FEAD00040EA41704FEAD10134
:100AA00010EB80054FEA810444EA907444EB0104A2
:100AB0006D1944EB0404521BA3414FF0000348BFDF
:100AC0000A3200D530BD401C41F1000130BD7047F5
:100AD0002DE9FF4F0C461E464FF0FF378BB0D2E991
:100AE0000001DDF860800A908A46C1F30A5505B915
:100AF0003D46002108464FF00000BAF1000F00F417
:100B0000400005DA00EB80004FF4400101EA50009C
:100B10004FEA9059B9F1010F00DDB9460A9850EA41
:100B20004A000ED044F61050A5F2FF3545432F146D
:100B3000B8F1000F1ED07542291E1EDDC9F100025A
:100B40001CE0B8F1010F4FF0000001D0302103E0AC
:100B5000F24305E02154401CB042FBDB304600224A
:100B6000002121540B99C1F80880C1E900200FB081
:100B7000BDE8F08FBD1B6D1CDEE74A4600DA694216
:100B800006A800F05DFA06AB93E8070003AB83E824
:100B9000070050460A9900F00FFB8DE80700A0F50A
:100BA00000501F3800900398002D09DD42F21F010C
:100BB0004A46084403A90390684600F06EFD08E029
:100BC000A0F500504A461F3803A90390684600F07C
:100BD00078FD8DE807000004000C03D04FF0FF30D3
:100BE000410800E01046B8F1000F03D00022009247
:100BF00015461EE0751E05D4FFF724FF30326255FE
:100C00006D1EF9D5B3460122084302D000227F1C95
:100C100004E02078302801D100227F1E002A0997A5
:100C200086D01DE0112D07DAFFF70CFF3032625538
:100C30006D1C50EA0102F5D1084302D00098C8B1FA
:100C40000EE00021681E05E0235C625C63542254C0
:100C5000401E491C8142F7DBAB46A81B401E099091
:100C6000002004F80B000B98099AC0F80880C0E92E
:100C7000002B7CE711264FF0000859E72DE9F04FD3
:100C800088460446D21D22F0070191B0D1E9000147
:100C9000CDE90A0108F0ADFF02460B98C00F01D064
:100CA0002D2007E02068810701D52B2002E02021BC
:100CB00001EAC000032A099001D0072A05DB034698
:100CC0004146204600F07CF90BE12078800601D5F2
:100CD000E06900E00620B8F1650F814606D0B8F162
:100CE000660F18D0B8F1670F70D131E00020B9F16C
:100CF000110F009001DB112301E009F101030AAAA1
:100D000001A90CA8FFF7E4FEDDE90C70002609F14B
:100D10000105834647E001204B4600904FF0004715
:100D20000AAA01A90CA8FFF7D3FEDDE90DB00C99C2
:100D30005D46002610B909F101000D18B9EB050058
:100D400003D4C0F1FF3609F10105A5EB09002BE042
:100D5000B9F1010F01DA4FF001090020B9F1110FCB
:100D60000090484601DD112300E003460AAA01A9CC
:100D70000CA8FFF7ADFEDDE90C704D46002683465A
:100D8000207800070AD4AB4500DA5D4601A8012DA2
:100D900004DD411911F8011C302907D04F4502DA52
:100DA00017F1040F04DA012082460FE06D1EEEE712
:100DB000002F02DCED1B3E4403E0781CA84200DD5E
:100DC0007D1CB81B00F1010A4FF000472078000796
:100DD00003D4AA4501DB4FF0FF3A0021B7F1004FE1
:100DE0000DF143088DF8431024D002202B23002F4F
:100DF00001DA7F422D230A21021EA0F1010000DC4E
:100E00005FB197FBF1FC97FBF1F201FB1C7C1746ED
:100E10000CF1300C08F801CDEEE7A8F101000370E9
:100E20002188090501D5452100E06521A0F10108CF
:100E300000F8011C09980FA9A1EB0807FF1D00B1DC
:100E40000120411901EBEA70A1693844081A401EDB
:100E5000A0612078C00602D42046FFF733FC099831
:100E600028B1D4E901219047206A401C20622078F3
:100E7000C00622D52046FFF725FC1EE0002E04DB2D
:100E8000B34502DD01A8805D00E03020D4E90121F6
:100E90009047206A401C2062761CAAF101005FEA9C
:100EA000000A0AD100F088F8C0680168405CD4E903
:100EB00001219047206A401C2062281EA5F10105EF
:100EC000DCDC07E0D4E9012118F8010B9047206A27
:100ED000401C2062381EA7F10107F3DC2046FFF713
:100EE00007FC032011B043E610B5436913B1AFF31B
:100EF000008001E0FFF7D2FC012010BD128800F154
:100F0000240182840022C2840122EDE711684FF09F
:100F1000FF32E9E7007B00F08000704770B51646AD
:100F20000C46054600F040F8036893F801010128DB
:100F300006D0FF2C0FD8185D68B101202C7070BD51
:100F4000D3F807013246214603F20713034428462B
:100F5000BDE8704018474FF0FF3070BD754600F097
:100F6000E7F8AE4605006946534620F0070085467F
:100F700018B020B5FFF78EF9BDE820404FF000060D
:100F80004FF000074FF000084FF0000B21F0070171
:100F9000AC46ACE8C009ACE8C009ACE8C009ACE8B4
:100FA000C0098D467047000010B500F005F8001D1F
:100FB00010BD00BF299C000000487047909F002092
:100FC0002DE9F0411F46044603260168072A01F473
:100FD000006004DB08B116A505E016A503E008B122
:100FE00015A500E015A521F010002060A069C01E25
:100FF000A0610FB1401EA0612046FFF763FB4FB117
:10100000D4E9012138469047206A401C2062C01C68
:10101000206206E0206AFAE7D4E9012115F8010B05
:101020009047761EF8D22046FFF762FBBDE8F081BC
:101030004E414E006E616E00494E4600696E66007C
:101040002DE9F047814616468AB0334878440DC8EA
:101050008DE80D0030487844801C03AC0DC884E84E
:101060000D0041F69B300844372190FBF1F290FBD4
:10107000F1F5A5F1800501FB12041B3C02D5644289
:10108000012000E00020DFF890A080460027FA440D
:10109000AAF1BE0A0DE0E00709D03246684607EB28
:1010A00047010AEB810100F00CFB8DE8070064109A
:1010B0007F1C002CEFD1184F7F44AC3F18E0E807AD
:1010C00014D007EB04100DF1180A90E80E008AE81E
:1010D0000E00C068F04201D198190890324606A966
:1010E00003A800F0EEFA03AB83E807006D10641C60
:1010F000002DE4D132466946B8F1000F03A802D0B2
:1011000000F0CBFA01E000F0DCFAC9E90001C9F80F
:1011100008200AB0BDE8F0876019010010B5044648
:10112000AFF300802046BDE81040FFF79EB80000F6
:1011300000487047709F00204FF0013C50F8042B8E
:1011400051F8043B9A4221D1A2EB0C03934313EADA
:10115000CC1317D150F8042B51F8043B9A4215D107
:10116000A2EB0C03934313EACC130BD150F8042BDE
:1011700051F8043B9A4209D1A2EB0C03934313EAC2
:10118000CC13DBD04FF00000704700BFD01A01BA7B
:10119000B1FA81F101F0180122FA01F0CB40C1F15E
:1011A0002001DBB2C0B2C01A2CFA01F3D11A91436C
:1011B00011EAC311E6D170475FEA400C08BF91F015
:1011C000000F4FEA8C234FEAC12243EA51514FEA04
:1011D0001C5018BF00F5F0404FEA300018BF41F036
:1011E00000415FEA6C5C00F02980BCF1FF3F08BF62
:1011F00040F080407047130C06BF12044FF0100CF3
:101200004FF0000C130E04BF12020CF1080C130F68
:1012100004BF12010CF1040C930F04BF92000CF1F7
:10122000020CD30F04BF52000CF1010C11464FF019
:101230000002A0F11F00A0EB0C00704711F0004F5E
:1012400008BF704731F000413FF4D5AF0B0C06BF2B
:1012500009044FF0100C4FF0000C0B0E04BF0902F4
:101260000CF1080C0B0F04BF09010CF1040C8B0FDF
:1012700004BF89000CF1020CCB0F04BF49000CF134
:10128000010CCCF12003A0EB0C0022FA03F302FACC
:101290000CF241EA030100F10100704720F07F4C9D
:1012A00080EA030023F07F47ACEB070303F57C5390
:1012B00000F0004003F1FF032DE980494FEA154B90
:1012C00009B44FEA144325EA0B4E24EA03480FF20F
:1012D000042606EB132749083E785FEA320203FB37
:1012E0000667C7F5000707FB06F64FEA54374FEAD3
:1012F000D64606F1020607FB066CCCF1005C4FEA0D
:101300001C472CEA074C07FB06F40CFB06F504EB24
:1013100015464FEA961634BF00204FF000404FEAC2
:10132000D13706FB07FC4FEA1C4C0CFB0BF7D21B1A
:1013300003FB0CF761EB07010CFB0EF7B0EB07406A
:1013400072EB17420CFB08F734BFA2EB0742B2EB7B
:10135000074261EB17414FEA0C444FEA910706FB45
:1013600007FC4FEA1C4C0CFB0BF7B0EBC74072EBD1
:10137000573203FB0CF734BFA2EBC742B2EBC742B4
:1013800061EB57310CFB0EF7B0EBC70072EB5772F5
:101390000CFB08F734BFA2EBC702B2EBC70261EB4C
:1013A0005771039F4FEA816141EA921104EBCC042B
:1013B0004FEAD1374FEA826206FB07FC42EA9012FD
:1013C0004FEA80604FEA1C4C0CFB0BF7D21B03FB6F
:1013D0000CF761EB07010CFB0EF7B0EB074072EB6B
:1013E00017420CFB08F734BFA2EB0742B2EB0742EF
:1013F00061EB17414FEA8C554FEA910704EB9C24AF
:1014000006FB07FC4FEA1C4C0CFB0BF7B0EBC7408C
:1014100072EB573203FB0CF734BFA2EBC742B2EBBF
:10142000C74261EB57310CFB0EF7B0EBC70072EB14
:1014300057720CFB08F734BFA2EBC702B2EBC7022E
:1014400061EB577115EB4C254FEA816141EA92112E
:101450004FEA82624FEAD13742EA901206FB07FC5C
:1014600044F100044FEA80604FEA1C4C0CFB0BF780
:10147000D21B03FB0CF761EB07010CFB0EF7B0EB83
:10148000074072EB17420CFB08F734BFA2EB074290
:10149000B2EB074261EB174115EB1C154FEA8131A6
:1014A00041EA92414FEA823242EA90424FEA80306A
:1014B0004FEA0C7644F1000448EA03434EEA0B4835
:1014C0004FF0000EB2EB080C71EB030724BF62462D
:1014D00039464EEB0E0E4FF0000B001852414941B9
:1014E0004BEB0B0BB2EB080C71EB03077BF1000B22
:1014F00024BF624639464EEB0E0E4FF0000B00182B
:10150000524149414BEB0B0BB2EB080C71EB03075B
:101510007BF1000B24BF624639464EEB0E0E51EABA
:10152000020718BF46F0010616EB0E7655F10002D1
:1015300054F1000103D5BDE88901BDE80088BDE88C
:101540008901BDE80048B619524141EB0101A3F100
:101550000103704780807F7E7D7C7B7A7978777607
:1015600076757473727171706F6E6E6D6C6C6B6A80
:101570006A6968686766666564646363626161601E
:10158000605F5F5E5E5D5D5C5C5B5B5A5A5959589B
:101590005857575656555555545453535252525105
:1015A000515050504F4F4F4E4E4D4D4D4C4C4C4B5B
:1015B0004B4B4A4A4A4949494848484747474746A2
:1015C00046464545454444444443434343424242DE
:1015D00042414141002B26D4770021D01CB54FEA6F
:1015E000370703B44FF010004FF010014FF0000028
:1015F0000FBCBDE810400BF1010BBBF1010F08BFA0
:101600005FEA170722BF12F1010211F101014FF049
:10161000004143F1000300F0004043EA000070473E
:10162000F9D35708DAE746EA064613F1400F4FEAC6
:1016300016461FDD13F1200FDFBF16430A460021B7
:1016400020335B42C8D0C3F1200746EA064602FABF
:1016500007F74FEA164646EA0706C3F1200722FAC3
:1016600003F201FA07F721FA03F14FF0000342EA0F
:101670000702B1E746EA020646EA06464FEA164680
:1016800046EA0106BCBF46EA0646360C4FF00003A8
:101690004FF000024FF000019EE72DE9C04893464D
:1016A00030B491E8380007C831EA400C48BF34EA4A
:1016B000430C03D5FFF7F2FDFFF78CFFF0BCBDE84C
:1016C00000882DE9C048934630B491E8380007C837
:1016D00010F0804F08BF13F0804F03D100F005F8E1
:1016E000FFF778FFF0BCBDE8008820F07F4780EA74
:1016F000030023F07F4C07EB0C03A3F57C5300F0B1
:101700000040A3F1FE0392F0000F00F0B38095F0CB
:10171000000F00F077802DE901494FEA11404FEAB0
:10172000144621EA004800FB06FC24EA064708FBB1
:1017300006F607FB08F800FB07F718EB06484CEB2A
:10174000164C4FEA124B18EB07484FEA15464CEB84
:10175000174022EA0B4E0BFB06FC25EA06470EFB60
:1017600006F607FB0EFE0BFB07F71EEB064E4CEBD7
:10177000164C4FF000061EEB074E4CEB174B18EBC8
:101780000B0840F1000018EB0E0B58EB000840F17D
:1017900000008F1A4FF000013CBFC943661B14BF05
:1017A000B5EB040C00213CBFC943F61B4FEA1744BC
:1017B0004EEA8E0E27EA04454FEA1C4704FB0762F7
:1017C0002CEA074C05FB07F70CFB05F604FB0CFCA9
:1017D00016EB074642EB174216EB0C4642EB1C4257
:1017E0001BEB060658EB0202414146EA9E0601D574
:1017F000BDE80189B619524141EB0101A3F1010392
:10180000BDE801894FEA14454FEA114724EA05462D
:1018100021EA074C05FB07F406FB07F70CFB06F172
:1018200005FB0CFC11EB074144EB17444FEA124750
:1018300011EB0C4144EB1C4422EA074C05FB07F278
:1018400006FB07F70CFB06F605FB0CFC16EB074640
:1018500042EB174216EB0C4642EB1C456A1854F15A
:10186000000148BF7047B619524141EB0101A3F195
:101870000103704795F0000F37D04FEA11424FEA4D
:10188000144721EA024624EA074C02FB07F106FB53
:1018900007F70CFB06F402FB0CFC14EB074441EBCE
:1018A00017414FEA154714EB0C4441EB1C4125EA64
:1018B000074C02FB07F506FB07F70CFB06F602FBDD
:1018C0000CFC16EB074645EB174516EB0C4645EBB3
:1018D0001C42121951F1000148BF7047B61952411C
:1018E00041EB0101A3F1010370474FEA14454FEAB0
:1018F000114724EA054621EA074C05FB07F106FBE0
:1019000007F70CFB06F24FF0000605FB0CFC12EB90
:10191000074241EB174112EB0C4251EB1C4148BF0F
:101920007047921841EB0101A3F1010370470000D9
:1019300010B5ADF5467DC820C5904FF43C7109A89F
:10194000FEF795FE00200890079006900590049001
:101950000390DDE14FF6FF7001F022FDEDA01821AC
:101960000B46C822CDE900109621192006F0AAFAEC
:10197000F020C59000200890039006901BE0002006
:1019800005900FE00020BDF81810C1EB011109AA65
:1019900002EB4101BDF814208854BDF81400401C2E
:1019A00080B20590BDF814001E28EBDBBDF81800CE
:1019B000401C80B20690BDF818001928DFDB00201B
:1019C0000790069005900490D7490870D749088081
:1019D0000120D7490870D7A009F07AF815E019203E
:1019E00008F02CFED148008800F4004068B10020C7
:1019F000CF490870CD480088C0F30E000490002045
:101A0000C949BDF81020885406E09DF81403401E13
:101A1000C0B2C5900028E2D100BF9DF81403002891
:101A20003BD1C7A0FEF75CFC4FF6FF7001F0B8FC9D
:101A3000CCA018210B46C822CDE90010782119202E
:101A400006F040FACCA018210B46C822CDE90010C0
:101A50009621192006F036FA4FF47A7008F0EEFD60
:101A6000C9A018210B46C822CDE9001096211920E3
:101A700006F028FA4FF47A7008F0E0FDC7A01821AC
:101A80000B46C822CDE900109621192006F01AFA5B
:101A90004FF47A7008F0D2FD3AE1002007904DE053
:101AA000A148BDF81C10405C222825D1BDF81C00BF
:101AB000C01E9D49085C282802D1012008901BE027
:101AC0009DF82000C0B100200890BDF81810C1EBAF
:101AD000011109AA02EB4101BDF814208854BDF898
:101AE0001800401C80B2069000200590BDF81C0034
:101AF0001C3080B207901CE09DF82000C0B18A49DC
:101B0000BDF81C00401C085C222811D00A46BDF814
:101B10001C10491C525CBDF81400411C89B205918F
:101B2000BDF81810C1EB011109AB03EB41010A54D8
:101B300000BFBDF81C00401C80B20790BDF81C001F
:101B4000BDF810108842ABDB4FF6FF702F23EF2259
:101B500000210090084601F023FE1F2094490880D0
:101B600094A010210B46F022CDE900100F21084669
:101B700006F0A8F94EF6EE6040F23F13EF22302156
:101B80000090002001F00CFE0020894908803023DD
:101B9000EF22194601F028FD002007903FE0BDF834
:101BA0001C00C0EB001009A901EB4002BDF81C109D
:101BB00085A0FEF795FBBDF81C00C0EB001009A93D
:101BC00001EB40001021CDE90010BDF81C0000EB36
:101BD000800080003C3081B21023F0223C2006F0CF
:101BE00071F9BDF81800401EBDF81C10884211D0D4
:101BF000BDF81C0000EB800080004E3083B2BDF8C1
:101C00001C0000EB800080004E3081B2EF223C20AF
:101C100001F0EAFCBDF81C00401C80B20790BDF842
:101C20001C00BDF818108842B9DBBDF81C0000EBA1
:101C300080008000443083B2BDF81C0000EB8000BF
:101C40008000443081B2EF22002001F0CDFC5CE046
:101C500061484168002088475F4890F8200000F004
:101C60008000E8B35C4880895C49098888424CDA86
:101C70005948C08A59494988884246DA5648C08A34
:101C80003C2834DD5448C08A3C38142190FBF1F4E0
:101C9000C4EB041009A901EB4000514908604FF45E
:101CA000784043490880C4EB041009A901EB4000C7
:101CB0001021CDE9001004EB840080003C3081B29B
:101CC0001023F0223C2006F0FDF80020384908805F
:101CD0004348016843A0FEF703FB4FF4967000E011
:101CE00006E008F0ABFC00200DF5467D10BD0CE0D1
:101CF0000A2008F0A3FCBDF80C00401C80B2039041
:101D000040F2B631884200D100E0A1E700BF00BF39
:101D100020E6000077696669207363616E6E696E04
:101D2000672E2E2E00000000E0050020820000201B
:101D3000FC00002041542B43574C41503D0D0A00FC
:101D400057696669205363616E2041636B20457259
:101D5000726F722E2E2E5265747279696E670D0A3B
:101D6000000000005468657265206973206E6F2062
:101D70007769666921000000526574727920746881
:101D800065207363616E2E005265747279207468E9
:101D900065207363616E2E2E000000005265747220
:101DA0007920746865207363616E2E2E2E0000000A
:101DB00084000020506C656173652073656C6563F9
:101DC0007420776966693A0041505F5441425B254F
:101DD000645D3A25730D0A0048000020900A002037
:101DE000B0000020776966697374615F737369641A
:101DF0003A25730D0A00000000BFFEE710B500F0A1
:101E0000B3F93A2000F0D6F910BD10B500F0ACF9E6
:101E10003B2000F0CFF910BD10B53B2000F0C8F812
:101E200000F07F0010BD00001FB50121084606F03C
:101E300071FD0121102006F06DFD1020ADF80C00A1
:101E400048208DF80F0003208DF80E0003A92D48BF
:101E500000F0E4FE0421022000F0C0FE10200190FA
:101E600000208DF808000C208DF8090001208DF865
:101E70000A0001A800F0E4FB0A208DF8000002200F
:101E80008DF8010001208DF802008DF803006846EE
:101E900006F0C2FB002000F0A1FB1020ADF80C0002
:101EA0008DF80F0003A9184800F0B8FE102116485D
:101EB00000F093FF052008F0C1FB00F0CBF800F024
:101EC000D3F90B2000F056F8044621460FA0FEF788
:101ED00007FA0321FF2000F02BF94DF2913000F0BA
:101EE00048F92221132000F0A3F9F821142000F072
:101EF0009FF9082206493E2000F074F9052008F0F9
:101F00009DFB1FBD0010014000080140256420001A
:101F1000880000202DE9F04105460E4617461021A5
:101F2000134800F058FF00BF4021114800F04AFF5D
:101F30000028F9D145F0C00006F092FF00240FE020
:101F40004FF0000803E008F1010000F0FF08B8F1CD
:101F5000140FF8DBFF2006F083FF3055601CC4B27D
:101F6000BC42EDDB1021024800F037FFBDE8F081F4
:101F70000008014070B5044610210C4800F02BFF0A
:101F800000BF4021094800F01DFF0028F9D144F0AE
:101F9000800006F065FFFF2006F062FF0546102175
:101FA000024800F01AFF284670BD000000080140FA
:101FB00070B5044610210C4800F00DFF00BF402111
:101FC000094800F0FFFE0028F9D144F0C00006F0F7
:101FD00047FFFF2006F044FF05461021024800F0AD
:101FE000FCFE284670BD000000080140F8B505461B
:101FF0000026FFF711FF50B33F20FFF7BBFF044659
:102000000720FFF7B7FF20F0030018B13F20FFF7CC
:10201000B1FF0646002C01DD0A2C01DD0020F8BDD1
:10202000601EC4B2224629463F20FFF773FF0222FA
:1020300069463F20FFF76EFFFFF7E0FE9DF80100C5
:1020400000F0800008B12046E9E70020E7E7002023
:10205000E5E7000010B510210C4800F0BEFE10218D
:102060000A4800F0B8FE00BF4021084800F0AAFE70
:102070000028F9D11021054800F0AFFE502008F0EB
:1020800003FB302000F096F810BD0000000801406E
:102090002DE9F04107460D4616460EB9002405E02D
:1020A000012E03D10920FFF765FF044621461AA03F
:1020B000FEF716F9FFF7A9FE0720FFF75BFF20F0F8
:1020C000030050B10124681CC1B23F2000F0B0F8F9
:1020D00021463F2000F0ACF803E029463F2000F005
:1020E000A7F82A4639463F2000F07CF8002000F08F
:1020F0004CF800BF10210D4800F064FE0028F9D113
:1021000000BF1021094800F05DFE0028F9D0FFF75C
:102110007CFEBDE8F08100006C6F63616C5F616400
:1021200064726573733A25640D0A00000010014063
:1021300070B506460C460720FFF71CFF20F003058C
:102140003146092000F074F86CB1012C02D145F041
:10215000010508E0022C02D145F0020503E0032C42
:1021600001D145F0030570BD10B5362000F022F80E
:1021700010BD10B50446C4F30721042000F058F840
:10218000E1B2052000F054F810BD10B504463CB98A
:102190004621022000F04CF8352000F00BF808E052
:1021A000012C06D14621022000F042F8342000F034
:1021B00001F810BD10B504461021094800F00BFECF
:1021C00000BF4021064800F0FDFD0028F9D120465F
:1021D00006F046FE1021024800F0FFFD10BD000091
:1021E000000801402DE9F04105460E461746102132
:1021F0000E4800F0F0FD00BF40210C4800F0E2FD69
:102200000028F9D145F0400006F02AFE002404E041
:10221000305D06F025FE601CC4B2BC42F8DB102124
:10222000024800F0DAFDBDE8F0810000000801403E
:1022300070B505460C4610210A4800F0CCFD00BFE1
:102240004021084800F0BEFD0028F9D1284606F0DC
:1022500007FE204606F004FE1021024800F0BDFDF6
:1022600070BD00000008014010B5594801780C20ED
:10227000FFF7DEFF564841780B20FFF7D9FF54489F
:1022800081780C20FFF7D4FF5148C1780D20FFF76B
:10229000CFFF4F4801790E20FFF7CAFF4C48417924
:1022A0000F20FFF7C5FF4A4881791020FFF7C0FFD4
:1022B0004748C1791120FFF7BBFF4548017A12203A
:1022C000FFF7B6FF4248417A1320FFF7B1FF4048BD
:1022D000817A1420FFF7ACFF3D48C17A0A20FFF74E
:1022E000A7FF3B48017B1520FFF7A2FF3848417B41
:1022F0002120FFF79DFF3648817B2220FFF798FFC2
:102300003348C17B1820FFF793FF3148017C192027
:10231000FFF78EFF2E48417C1A20FFF789FF2C48DB
:10232000817C1B20FFF784FF2948C17C1C20FFF71C
:102330007FFF2748017D1D20FFF77AFF2448417D5C
:102340002320FFF775FF2248817D2420FFF770FFCF
:102350001F48C17D2520FFF76BFF1D48017E262009
:10236000FFF766FF1A48417E2920FFF761FF1848F2
:10237000817E2C20FFF75CFF1548C17E2D20FFF7E2
:1023800057FF1348017F2E20FFF752FF1048417F6F
:102390000020FFF74DFF0E48817F0220FFF748FF26
:1023A0000B48C17F0720FFF743FF094890F8201032
:1023B0000820FFF73DFF064890F821100920FFF79D
:1023C00037FF034890F822100620FFF731FF10BDB9
:1023D0007E28010821B1026842F00102026004E097
:1023E00002684FF6FE731A400260704701684FF6AC
:1023F000FE72114001600021016041608160C16096
:102400004B49884208D14A490839496841F00F01CF
:10241000474A083A51608AE045491431884208D158
:1024200043490839496841F0F001414A083A51608E
:102430007DE03F492831884208D13D490839496843
:1024400041F470613A4A083A516070E038493C31D1
:10245000884208D136490839496841F47041344A04
:10246000083A516063E032495031884208D130491E
:102470000839496841F470212D4A083A516056E004
:102480002B496431884208D129490839496841F407
:102490007001274A083A516049E02549783188425D
:1024A00008D123490839496841F07061204A083A47
:1024B00051603CE01F49884206D1011F096841F084
:1024C0000F01021F116032E01A491431884208D10D
:1024D0001849091F096841F0F001164A121F1160DE
:1024E00025E014492831884208D11249091F09689A
:1024F00041F470610F4A121F116018E00D493C3120
:10250000884208D10B49091F096841F47041094A02
:10251000121F11600BE007495031884207D105496D
:10252000091F096841F47021024A121F11607047A7
:1025300008000240080402400146486880B2704723
:1025400010B50022026847F6F0739A430C6A8B6854
:1025500023430C6923434C6923438C692343CC698F
:1025600023434C6A23438C6A23431A430260CB689B
:1025700043600B6883604B68C36010BD4160704767
:102580007047000010B50A2008F058F808480068A5
:1025900048B907487C30006808B9012000E00020F5
:1025A00003497C3108604FF4006000F02FF810BD43
:1025B0002C01224210B5102000F02EF8012808D17D
:1025C00004A0FDF78DFE012003490870002000F0F3
:1025D00005F810BD310D0A009000002010210A4AB4
:1025E000116040B108491439096841F01001064AE8
:1025F000143A116007E004491439096821F0100108
:10260000014A143A116070471404014001490860FE
:102610007047000014040140014600200022074BCF
:102620001B6803EA0102054B14331B680B4013B10E
:102630000AB1012000E000207047000000040140C2
:10264000002123498279002A3AD00A461268036899
:102650009A430B461A600A1D126803689A430B1DC1
:102660001A60027911440A6803681A430A60184A1A
:102670000832126803689A43154B08331A601A1D12
:10268000126803689A43124B0C331A604279102A7D
:102690000ED11A1F126803681A430D4B08331A60D3
:1026A0001A1D126803681A43094B0C331A600DE0B7
:1026B0000749427911440A6803681A430A6005E031
:1026C000027911440A6803689A430A60704700005F
:1026D0000004014010B586B0002005900490012050
:1026E0000390002002904FF6FF7000F059FE1F206B
:1026F000FE490880FEA010210B46C822CDE900103B
:102700001421402005F0DEFBFE48006810210B4636
:10271000C822CDE900102821402005F0D3FB4FF45A
:102720007840F24908804EF6EE60F749088032237F
:10273000342219210090002001F032F8F3A010217A
:102740000B463222CDE900101E21022005F0BAFB13
:1027500048F23040E54908804EF6EE603223EF2221
:1027600019210090CB2001F01BF8EAA010210B46A4
:102770002322CDE900101E21CD2005F0A3FB00206F
:10278000DA4908804FF6FF70DF4908804B23EF22BB
:102790001946002000F028FFE0A010210B46C822B7
:1027A000CDE900105021142005F08CFB6523EF22A9
:1027B0001946002000F018FF002000F0F5FC4FF64D
:1027C000FF70D149088005E2D6484168002088475B
:1027D000D44890F8200000F0800000287ED09DF8BA
:1027E0000C000028FAD0CF488089CF490988884258
:1027F00075DACC48C08ACC4949888842F8DAC94899
:10280000C08A19286CDBC748C08A32287DDCC548DD
:10281000808934283FDA4FF47840B44908804EF676
:10282000EE60B94908804FF6FF7032233422192137
:102830000090002000F0B4FF4EF6EE603423362204
:102840001B210090022000F0ABFFB0A010210B462E
:102850003222CDE900102021042005F033FB4FF493
:10286000FA7007F0EBFE4FF6FF7000F099FD0020C4
:102870009E4908804FF6FF70A3490880ABA018213D
:102880000B46C822CDE900109621192005F01AFB4D
:10289000012006B010BDA3488089CB2835DDA848AB
:1028A0000078082831DB4EF6EE60974908804FF437
:1028B00078408E4908804FF6FF703223EF221921AD
:1028C0000090CB2000F06CFF4EF6EE603423ED223A
:1028D0001B210090C92000F063FF02E04DE194E06D
:1028E00013E08CA010210B462322CDE900102021FB
:1028F000CB2005F0E7FA934993A0FDF7F1FC4FF4E4
:10290000967007F09BFE0020C3E78648C08A7828AF
:102910007BDD002003908348C08A7838322190FB09
:10292000F1F0C0B205907F488089502190FBF1F012
:10293000C0B204909DF8140000EB400088490844A0
:102940009DF81010405C302860DB9DF8140000EB0F
:102950004000834908449DF81010405C392855DC3C
:10296000002000909DF8141001EB41017C4B1944AC
:102970009DF81030CA5C7249097801EB81013C2353
:1029800003EB41001023502105F014FA9DF81410B8
:1029900001EB4101724A11449DF810208A5C68499C
:1029A0000878411C664B197066490A5400201A4683
:1029B000127888546BA0FDF793FC614800780828D2
:1029C0001FDB4FF47840494908804EF6EE604E49CF
:1029D00008803223EF2219210090CB2000F0E0FE86
:1029E0004CA010210B462322CDE900101E21CD2042
:1029F00005F068FA00203D4908804FF6FF70424913
:102A000008804FF4967007F019FEB8E09DF81400A6
:102A100000EB4000524908449DF81010405C4128EA
:102A20000ED105F025FB04460CB9002031E7012C3E
:102A300003D1002000F0B8FB01E0012029E79EE06F
:102A40003F480078002804DD3D480078401E3C499E
:102A5000087000203A490090097801EB81013C227E
:102A600002EB410010232022502105F0A3F90020A1
:102A700033490090097801EB8101462202EB4100C5
:102A800010232022502105F095F900212D482C4AD1
:102A900012788154014633A0FDF722FC28480078C3
:102AA00008281FDA48F23040104908804EF6EE60E0
:102AB000154908803223EF2219210090CB2000F025
:102AC0006FFE14A010210B462322CDE900101E2119
:102AD000CD2005F0F7F90020044908804FF6FF707B
:102AE000094908804FF4967044E0000084000020FB
:102AF000456E7465722054686520505744206F6697
:102B000000000000B00000208600002043616E63DA
:102B1000656C00004A6F696E000000005057443A2F
:102B20000000000048000020900A002077696669D4
:102B3000207363616E6E696E672E2E2E000000009A
:102B4000C3000020B4000020776966697374615F78
:102B500070617373776F72643A25730D0A00000019
:102B6000A12801085057445F54656D703A25730DD4
:102B70000A00000007F062FD01E0012003900A2036
:102B800007F05CFD9DF80800401CC0B2029032289E
:102B90000DD1002010490090097801EB81013C2201
:102BA00002EB410010237C22502105F003F99DF82F
:102BB000080064280ED1002002900749009009788F
:102BC00001EB81013C2202EB410010232022502125
:102BD00005F0F0F8F8E50000C300002030B5002251
:102BE0008B071C0F0F2303FA04F20B4B8C1053F8C6
:102BF00024309343084C8D1044F8253023468C1024
:102C000053F824308C07240F00FA04F42343024CB9
:102C10008D1044F8253030BD080001402DE9F04109
:102C2000024600250026002000230024002791F8FA
:102C300003C00CF00F0591F803C00CF0100CBCF1B0
:102C4000000F03D091F802C04CEA050591F800C0CE
:102C5000BCF1000F31D0146800202BE04FF0010CC4
:102C60000CFA00F3B1F800C00CEA03069E4220D132
:102C700083004FF00F0C0CFA03F7BC4305FA03FC7A
:102C80004CEA040491F803C0BCF1280F06D14FF0C0
:102C9000010C0CFA00FCC2F814C00AE091F803C061
:102CA000BCF1480F05D14FF0010C0CFA00FCC2F842
:102CB00010C0401C0828D1D31460B1F800C0BCF18A
:102CC000FF0F34DD546800202EE000F1080C4FF0B7
:102CD000010808FA0CF3B1F800C00CEA03069E42A2
:102CE00021D183004FF00F0C0CFA03F7BC4305FA17
:102CF00003FC4CEA040491F803C0BCF1280F05D191
:102D000000F1080C08FA0CF8C2F8148091F803C01E
:102D1000BCF1480F07D100F1080C4FF0010808FA88
:102D20000CF8C2F81080401C0828CED35460BDE8CF
:102D3000F0810000F0B50A460023002400210025A0
:102D400000F00046B6F1004F02D11D4EF16901E0DE
:102D50001B4E7168C0F3034583B200F44016B6F50C
:102D6000401F08D121F07061154E766826F070661C
:102D7000134F7E6012E000F48016B6F5801F06D176
:102D8000032606FA05F4A14341F0706106E0460D02
:102D9000360103FA06F6B14341F0706122B1460DE7
:102DA000360103FA06F6314300F00046B6F1004F53
:102DB00002D1034EF16101E0014E7160F0BD0000EF
:102DC000000001400246002093680B400BB1012037
:102DD00000E000207047416170470161704700BF0B
:102DE000FEE700001FB50121102005F093FD012131
:102DF000084605F08FFD01211848FFF79BFF4FF4AF
:102E00000060ADF8000048208DF8030069461448C2
:102E1000FFF704FF0B210220FFF7E0FE4FF40060F4
:102E2000029000208DF80C000C208DF80D00012080
:102E30008DF80E0002A8FFF703FC28208DF804008F
:102E400002208DF8050003208DF8060001208DF882
:102E5000070001A805F0E0FB1FBD000000023000E4
:102E6000001001407FB504460020039002904EF60A
:102E7000EE6040F23F13EF2266210090002000F048
:102E80008FFC4EF6EE60BE4908800020BD490880E8
:102E9000002C7DD00390AFE000200290A2E09DF8CE
:102EA0000C0003281CDA002000909DF80C30C3EBC6
:102EB000C303B54D2B449DF808505A5D9DF80C3066
:102EC00003EB8303DB0003F178019DF8083003EB8B
:102ED00003135B0003F10E00102304F06BFF7BE093
:102EE0009DF80C00032824D19DF8080018B19DF826
:102EF0000800062800D170E0002000909DF80C30FA
:102F0000C3EBC303A04D2B449DF808505A5D9DF8B8
:102F10000C3003EB8303DB0003F178019DF80830EC
:102F200003EB03135B0003F10E00102304F042FFD8
:102F300052E09DF80C00C0EBC000944908449DF895
:102F40000810405C31280FD191A01021CDE900106C
:102F50009DF80C0000EB8000C00000F17801102308
:102F6000C8221C2004F0AEFF9DF80C00C0EBC0008E
:102F7000864908449DF80810405C2B2811D185A093
:102F80001021CDE900109DF80C0000EB800000E05E
:102F900038E0C00000F178011023C822642004F05A
:102FA00091FF9DF80C00C0EBC000784908449DF8E3
:102FB0000810405C32280FD178A01021CDE9001014
:102FC0009DF80C0000EB8000C00000F17801102398
:102FD000C822BC2004F076FF00BF9DF80800401C0A
:102FE000C0B202909DF808000728FFF658AF9DF880
:102FF0000C00401CC0B203909DF80C000528FFF6A1
:103000004BAFB5E000200390ADE000200290A0E0BF
:103010009DF80C0003281CDA002000909DF80C306D
:10302000C3EBC303594D2B449DF808505A5D9DF8DE
:103030000C3003EB8303DB0003F178019DF80830CB
:1030400003EB03135B0003F10E00102304F0B2FE48
:1030500079E09DF80C00032824D19DF8080018B1F0
:103060009DF80800062800D16EE0002000909DF831
:103070000C30C3EBC303454D2B449DF808505A5DFB
:103080009DF80C3003EB8303DB0003F178019DF81E
:10309000083003EB03135B0003F10E00102304F070
:1030A00089FE50E09DF80C00C0EBC0003749084491
:1030B0009DF80810405C31280FD135A01021CDE9D2
:1030C00000109DF80C0000EB8000C00000F17801BA
:1030D0001023C8221C2004F0F5FE9DF80C00C0EB64
:1030E000C0002A4908449DF80810405C2B280FD1E5
:1030F0002BA01021CDE900109DF80C0000EB800002
:10310000C00000F178011023C822642004F0DAFE28
:103110009DF80C00C0EBC0001C4908449DF8081045
:10312000405C32280FD11DA01021CDE900109DF880
:103130000C0000EB8000C00000F178011023C822D1
:10314000BC2004F0BFFE00BF9DF80800401CC0B2C8
:1031500002909DF808000728FFF65AAF9DF80C0072
:10316000401CC0B203909DF80C000528FFF64DAF3F
:103170004FF6FF7002490880002004B070BD0000C7
:103180008600002084000020D0280108AD28010816
:1031900031323300736869667400000064656C0046
:1031A00053686966740000007FB5044600200390F0
:1031B00002904EF6EE6040F23F13EF22662100903F
:1031C000002000F0EDFA4EF6EE606F490880002016
:1031D0006E490880039090E00020029083E09DF803
:1031E0000C0000EB40006A4908449DF80810405C60
:1031F000302826DB9DF80C0000EB400064490844B1
:103200009DF80810405C39281BDC002000909DF8D8
:103210000C3003EB43035E4D2B449DF808505A5D80
:103220009DF80C3032256B4303F178019DF808308E
:1032300003EB83031B0103F12400102304F0BAFD08
:103240004CE09DF80C0000EB4000514908449DF80B
:103250000810405C41282CD1ACB14EA01021CDE922
:1032600000109DF80C2032235A4302F178019DF89A
:10327000082002EB8202120102F11C001023C82276
:1032800004F020FE2AE044A01021CDE900109DF8B2
:103290000C2032235A4302F178019DF8082002EBFA
:1032A0008202120102F11C001023C82204F00AFE5F
:1032B00014E03AA01021CDE900109DF80C20322333
:1032C0005A4302F178019DF8082002EB82021201B4
:1032D00002F11C001023C82204F0F4FD9DF8080040
:1032E000401CC0B202909DF808000328FFF677AF9B
:1032F0009DF80C00401CC0B203909DF80C000428FF
:10330000FFF66AAF0020039013E09DF80C00322214
:10331000504300F199039DF80C00504300F19901CE
:10332000EF22002000F060F99DF80C00401CC0B2B4
:1033300003909DF80C000328E7DB0020039017E0C2
:103340009DF80C1001EB8101090101F150029DF87B
:103350000C1001EB8101090101F1500040F23F1313
:10336000652100F041F99DF80C00401CC0B20390AB
:103370009DF80C000228E3DB4FF6FF70024908803D
:10338000002004B070BD00008600002084000020F2
:10339000A1280108202E20004142430064656C00F2
:1033A00070B5044600261D480588408845431B48E3
:1033B000808846F60401884216D118488079012891
:1033C00012D10020154988712A2048812B2088813C
:1033D0000021084604F010FB0120104988712B20C1
:1033E00048812A20888103E00021084604F004FB7C
:1033F00004F01EFE00260DE04FF4807008490861BD
:1034000040004861074804608020486108618000EE
:103410000861761CAE42EFD370BD0000900A002018
:10342000001001400C0C014010B50446002C66D180
:103430006C498871F02008804FF4A07048800846DD
:10344000808849F2413188420BD06648808846F630
:103450000401884205D06348808845F210318842D3
:103460001AD12C205F4908812A2048812B2088818D
:103470000846808846F60401884205D0594880886D
:1034800045F21031884206D14FF4A07055490880AA
:103490004FF4F0704880A1E05248808845F2105106
:1034A000884210D14FF430504E4908814FF42850D3
:1034B00048814FF42C5088814FF4F07008804FF40D
:1034C000487048808AE04748808841F66311884206
:1034D0000DD12C20434908812B2048812A20888146
:1034E0004FF4F07008804FF44870488076E0222056
:1034F0003C49088120204881212088816EE00120FC
:10350000384988714FF4A0700880F0204880084640
:10351000808849F24131884205D03248808845F29E
:103520001031884207D12C202E4908812A20488159
:103530002B2088813FE02B48808846F60401884292
:1035400007D12C20274908812B2048812A208881F7
:1035500031E02448808845F21051884210D14FF460
:103560003050204908814FF4285048814FF42C50A6
:1035700088814FF4487008804FF4F07048801AE05A
:103580001848808841F6631188420DD12C201549D6
:1035900008812A2048812B2088814FF448700880B8
:1035A0004FF4F070488006E022200E490881212067
:1035B0004881202088810B48808846F60401884293
:1035C00005D00848808845F21031884206D14FF472
:1035D000F070044908804FF4A0704880002003F088
:1035E000DFFF10BD900A00202DE9FF4F84B0814617
:1035F0008A460020039002900698A0EB09050798E0
:10360000A0EB0A06CDF80490CDF800A0002D01DD56
:10361000012705E00DB9002702E04FF0FF376D42AA
:10362000002E02DD4FF0010806E016B94FF0000849
:1036300002E04FF0FF387642B54201DD2C4600E053
:1036400034464FF0000B21E0009A91B2019A90B2FB
:1036500000F022F803982844039002983044029026
:103660000398A04205DD0398001B0390019838449D
:1036700001900298A04205DD0298001B029000987C
:10368000404400900BF101001FFA80FB601C834551
:10369000DADD08B0BDE8F08F30B504460D462946A6
:1036A000204604F0A9F904F0C3FC4FF480700749E8
:1036B000086140004861064800880649086080208B
:1036C0000249486108618000086130BD0010014076
:1036D000840000200C0C014030B503460C46154612
:1036E0002C49488904F092FC4FF480702A49086103
:1036F0004000486118122949086080202649486125
:103700000861800008614010086140004861D8B23B
:1037100022490860802020494861086180000861D2
:103720001C49888904F072FC4FF480701A490861C2
:1037300040004861201219490860802016494861FC
:103740000861800008614010086140004861E0B2F3
:1037500012490860802010494861086180000861B2
:1037600040104861400048610A4800890B490860E0
:1037700080200949486108618000086140100861A3
:10378000400048610548056080204861086180006C
:10379000086130BD900A0020001001400C0C01406F
:1037A0002DE9FC4F05460E4617469846DDF82C904D
:1037B000002001902C48808846F60401884229D1D7
:1037C00029488079012825D1AB463546264800880E
:1037D000C01B401E86B2474623480088A0EB0B0062
:1037E000401E1FFA80F800201F4988712A20488156
:1037F0002B20888143463A4631462846CDF8009032
:10380000FFF7CEFF0120184988712B2048812A201C
:10381000888127E0781B401C80B2019034461FE06D
:103820002146284604F0E8F804F002FC4FF0000AB4
:1038300011E04FF480700D490861400048610C4868
:10384000C0F80090802048610861800008610AF19A
:1038500001001FFA80FA01988245EADB601C84B2FD
:103860004445DDDDBDE8FC8F900A002000100140DA
:103870000C0C014008B50121192005F04BF801217D
:10388000FE48FFF757FA4FF4F860ADF8000010203B
:103890008DF8030003208DF802006946F848FFF711
:1038A000BDF94FF4F861F648FFF797FA4FF6FF704D
:1038B000ADF800006946F348FFF7B0F94FF6FF7125
:1038C000F048FFF78AFA322006F0B8FE0121002006
:1038D00004F0B6FB322006F0B1FE002003F0EEFD4E
:1038E000E949888008468088FF280ADB08468088E6
:1038F0004FF6FF71884204D0E3488088B0F5134F3B
:103900007ED1D32004F082FB03F0A0FD03F09EFDE6
:1039100003F09CFDDC498880084680884FF6FF71E3
:1039200001EA0020D849888003F090FDD6498988B3
:103930000843D54988800846808849F24131884249
:103940005ED0BF2004F062FB03F080FD03F07EFD3B
:1039500003F07CFD03F07AFDCB498880084680881F
:103960004FF6FF7101EA0020C749888003F06EFD21
:10397000C54989880843C44988800846808846F636
:103980000401884274D0D42004F040FB03F05EFDB3
:1039900003F05CFD03F05AFDBB498880084680882F
:1039A0004FF6FF7101EA0020B749888003F04EFD11
:1039B000B54989880843B44988800846808845F21B
:1039C0001031884254D04FF45A4004F01FFB03F0EA
:1039D0003DFD4FF45B4004F019FB03F037FDAA49AD
:1039E0008880084680884FF6FF7101EA0020A649CA
:1039F00088804FF45C4004F009FB03F027FD00E0F1
:103A000036E0A149898808439F4988800846808814
:103A1000B0F5004F02D145F2105088809A48808856
:103A200045F21051884223D0A12004F0EFFA03F0B0
:103A30000DFD9549888003F009FD9349888008466B
:103A400080884FF6FF7101EA00208F49888003F0DB
:103A5000FDFC8D49898808438B4988800846808809
:103A600045F26171884203D141F66310864988802E
:103A70008548818885A0FCF733FC8348808849F21B
:103A8000413188427ED1CF2004F0C0FA002004F0FA
:103A9000ABFAC12004F0A8FA302004F0A5FAED201A
:103AA00004F0B4FA642004F09FFA032004F09CFAB6
:103AB000122004F099FA812004F096FAE82004F02C
:103AC000A5FA852004F090FA102004F08DFA7A20EF
:103AD00004F08AFACB2004F099FA392004F084FA31
:103AE0002C2004F081FA002004F07EFA342004F047
:103AF0007BFA022004F078FAF72004F087FA2020FD
:103B000004F072FAEA2004F081FA002004F06CFA62
:103B1000002004F069FAC02004F078FA1B2004F0B9
:103B200063FAC12004F072FA012004F05DFAC520A6
:103B300004F06CFA302004F057FA302004F054FA04
:103B4000C72004F063FAB72004F04EFA362004F0E0
:103B50005DFA482004F048FA3A2004F057FA55205C
:103B600004F042FAB12004F051FA002004F03CFACB
:103B70001A2004F039FAB62004F048FA0A2004F0BA
:103B800033FA00E0A9E0A22004F02EFAF22004F0BB
:103B90003DFA002004F028FA262004F037FA01202C
:103BA00004F022FAE02004F031FA0F2004F01CFAAD
:103BB0002A2004F019FA282004F016FA082004F04C
:103BC00013FA0E2004F010FA082004F00DFA542025
:103BD00004F00AFAA92004F007FA432004F004FADA
:103BE0000A2004F001FA0F2004F0FEF9002004F08E
:103BF000FBF9002004F0F8F9002004F0F5F90020AA
:103C000004F0F2F9E12004F001FA002004F0ECF9EC
:103C1000152004F0E9F9172004F0E6F9072004F074
:103C2000E3F9112004F0E0F9062004F0DDF92B207F
:103C300004F0DAF9562004F0D7F93C2004F0D4F966
:103C4000052004F0D1F9102004F0CEF90F2004F083
:103C5000CBF93F2004F0C8F93F2004F0C5F90F204C
:103C600004F0C2F92B2004F0D1F9002004F0BCF9D3
:103C7000002004F0B9F9012010E00000000230003B
:103C800000100140000C0140900A0020204C4344E9
:103C90002049443A25780D0A0000000004F0A4F9F8
:103CA0003F2004F0A1F92A2004F0B0F9002004F02C
:103CB0009BF9002004F098F9002004F095F9EF201A
:103CC00004F092F9112004F0A1F9782006F0B6FC76
:103CD000292004F09BF903F09ABBFE48808846F641
:103CE000040188427ED1112004F090F9142006F0DE
:103CF000A5FCD02004F08AF9072004F075F94220D1
:103D000004F072F91D2004F06FF9D12004F07EF95F
:103D1000002004F069F91A2004F066F9092004F083
:103D200063F9D22004F072F9012004F05DF9222039
:103D300004F05AF9C02004F069F9102004F054F995
:103D40003B2004F051F9002004F04EF9022004F069
:103D50004BF9112004F048F9C52004F057F903206D
:103D600004F042F9C82004F051F9002004F03CF9B5
:103D7000252004F039F9212004F036F9052004F05B
:103D800033F9002004F030F90A2004F02DF9652001
:103D900004F02AF9252004F027F9772004F024F90B
:103DA000502004F021F90F2004F01EF9002004F047
:103DB0001BF9F82004F02AF9012004F015F9FE207F
:103DC00004F024F9002004F00FF9022004F00CF9AB
:103DD000202004F01BF9362004F018F9082004F024
:103DE00003F900E02AE03A2004F010F9552004F02D
:103DF000FBF82B2004F00AF9002004F0F5F800206D
:103E000004F0F2F8012004F0EFF83F2004F0ECF8A1
:103E10002A2004F0FBF8002004F0E6F8002004F06B
:103E2000E3F8012004F0E0F8DF2004F0DDF878206A
:103E300006F004FC292004F0E9F84CE7A548808846
:103E400045F21031884240F07C87ED2004F0DEF826
:103E5000012004F0C9F8FE2004F0C6F8EE2004F0BA
:103E6000D5F8DE2004F0C0F8212004F0BDF8F120E0
:103E700004F0CCF8012004F0B7F8DF2004F0C6F815
:103E8000102004F0B1F8C42004F0C0F88F2004F032
:103E9000ABF8C62004F0BAF8002004F0A5F8E22040
:103EA00004F0A2F8E22004F09FF8E22004F09CF86D
:103EB000BF2004F0ABF8AA2004F096F8B02004F07C
:103EC000A5F80D2004F090F8002004F08DF80D20E6
:103ED00004F08AF8002004F087F8112004F084F838
:103EE000002004F081F8192004F07EF8002004F08E
:103EF0007BF8212004F078F8002004F075F82D20DC
:103F000004F072F8002004F06FF83D2004F06CF823
:103F1000002004F069F85D2004F066F8002004F049
:103F200063F85D2004F060F8002004F05DF8B12033
:103F300004F06CF8802004F057F8002004F054F8E6
:103F40008B2004F051F8002004F04EF8962004F085
:103F50004BF8002004F048F8B22004F057F8002095
:103F600004F042F8002004F03FF8022004F03CF88E
:103F7000002004F039F8032004F036F8002004F0A3
:103F800033F8B32004F042F8002004F02DF80020AC
:103F900004F02AF8002004F027F8002004F024F8A8
:103FA000002004F021F8002004F01EF8002004F0A6
:103FB0001BF8002004F018F8002004F015F8002089
:103FC00004F012F8002004F00FF8002004F00CF8C0
:103FD000002004F009F8002004F006F8002004F0A6
:103FE00003F8002004F000F8002003F0FDFF00209B
:103FF00003F0FAFF002003F0F7FF002003F0F4FFC6
:10400000002003F0F1FF002003F0EEFF002003F09A
:10401000EBFF002003F0E8FFB42003F0F7FF8B2054
:1040200003F0E2FF002003F0DFFF962003F0DCFF47
:10403000002003F0D9FFA12003F0D6FF002003F0F9
:10404000D3FFB52003F0E2FF022003F0CDFF0020F4
:1040500003F0CAFF032003F0C7FF002003F0C4FFF2
:10406000042003F0C1FF002003F0BEFFB62003F0E0
:10407000CDFF002003F0B8FF002003F0B5FFB7200C
:1040800003F0C4FF002003F0AFFF002003F0ACFFFB
:104090003F2003F0A9FF002003F0A6FF5E2003F0FD
:1040A000A3FF002003F0A0FF642003F09DFF002089
:1040B00003F09AFF8C2003F097FF002003F094FF99
:1040C000AC2003F091FF002003F08EFFDC2003F012
:1040D0008BFF01E0900A0020002003F085FF702094
:1040E00003F082FF002003F07FFF902003F07CFFAD
:1040F000002003F079FFEB2003F076FF002003F0AF
:1041000073FFDC2003F070FF002003F06DFFB82088
:1041100003F07CFF002003F067FF002003F064FF42
:10412000002003F061FF002003F05EFF002003F099
:104130005BFF002003F058FF002003F055FF002034
:1041400003F052FFBA2003F061FF242003F04CFF7C
:10415000002003F049FF002003F046FF002003F099
:1041600043FFC12003F052FF202003F03DFF002059
:1041700003F03AFF542003F037FF002003F034FF30
:10418000FF2003F031FF002003F02EFFC22003F0D8
:104190003DFF0A2003F028FF002003F025FF042044
:1041A00003F022FF002003F01FFFC32003F02EFFC7
:1041B0003C2003F019FF002003F016FF3A2003F023
:1041C00013FF002003F010FF392003F00DFF002043
:1041D00003F00AFF372003F007FF002003F004FF7D
:1041E0003C2003F001FF002003F0FEFE362003F028
:1041F000FBFE002003F0F8FE322003F0F5FE002065
:1042000003F0F2FE2F2003F0EFFE002003F0ECFE9F
:104210002C2003F0E9FE002003F0E6FE292003F045
:10422000E3FE002003F0E0FE262003F0DDFE002088
:1042300003F0DAFE242003F0D7FE002003F0D4FEC2
:10424000242003F0D1FE002003F0CEFE232003F053
:10425000CBFE002003F0C8FE3C2003F0C5FE00208A
:1042600003F0C2FE362003F0BFFE002003F0BCFEC8
:10427000322003F0B9FE002003F0B6FE2F2003F039
:10428000B3FE002003F0B0FE2C2003F0ADFE0020B2
:1042900003F0AAFE292003F0A7FE002003F0A4FEED
:1042A000262003F0A1FE002003F09EFE242003F050
:1042B0009BFE002003F098FE242003F095FE0020D2
:1042C00003F092FE232003F08FFE002003F08CFE0B
:1042D000C42003F09BFE622003F086FE002003F062
:1042E00083FE052003F080FE002003F07DFE842085
:1042F00003F07AFE002003F077FEF02003F074FE56
:10430000002003F071FE182003F06EFE002003F081
:104310006BFEA42003F068FE002003F065FE182069
:1043200003F062FE002003F05FFE502003F05CFE0D
:10433000002003F059FE0C2003F056FE002003F08D
:1043400053FE172003F050FE002003F04DFE952091
:1043500003F04AFE002003F047FEF32003F044FE82
:10436000002003F041FEE62003F03EFE002003F0B3
:104370003BFEC52003F04AFE322003F035FE00204C
:1043800003F032FE442003F02FFE002003F02CFE49
:10439000652003F029FE002003F026FE762003F0BE
:1043A00023FE002003F020FE882003F01DFE0020E5
:1043B00003F01AFEC62003F029FE202003F014FEAD
:1043C000002003F011FE172003F00EFE002003F082
:1043D0000BFE012003F008FE002003F005FEC720BD
:1043E00003F014FE002003F0FFFD002003F0FCFDAD
:1043F000002003F0F9FD002003F0F6FDC82003F0D3
:1044000005FE002003F0F0FD002003F0EDFD00208C
:1044100003F0EAFD002003F0E7FDC92003F0F6FDFC
:10442000002003F0E1FD002003F0DEFD002003F09A
:10443000DBFD002003F0D8FD002003F0D5FD0020B7
:1044400003F0D2FD002003F0CFFD002003F0CCFDEF
:10445000002003F0C9FD002003F0C6FD002003F09A
:10446000C3FD002003F0C0FD002003F0BDFD0020CF
:1044700003F0BAFD002003F0B7FD002003F0B4FD07
:10448000E02003F0C3FD162003F0AEFD002003F092
:10449000ABFD1C2003F0A8FD002003F0A5FD2120AA
:1044A00003F0A2FD002003F09FFD362003F09CFDE9
:1044B000002003F099FD462003F096FD002003F054
:1044C00093FD522003F090FD002003F08DFD642049
:1044D00003F08AFD002003F087FD7A2003F084FDBD
:1044E000002003F081FD8B2003F07EFD002003F00F
:1044F0007BFD992003F078FD002003F075FDA820D6
:1045000003F072FD002003F06FFDB92003F06CFD95
:10451000002003F069FDC42003F066FD002003F0D5
:1045200063FDCA2003F060FD002003F05DFDD22092
:1045300003F05AFD002003F057FDD92003F054FD8D
:10454000002003F051FDE02003F04EFD002003F0B9
:104550004BFDF32003F048FD002003F045FDE12072
:1045600003F054FD162003F03FFD002003F03CFD56
:104570001C2003F039FD002003F036FD222003F05B
:1045800033FD002003F030FD362003F02DFD002028
:1045900003F02AFD452003F027FD002003F024FD51
:1045A000522003F021FD002003F01EFD642003F0E3
:1045B0001BFD002003F018FD7A2003F015FD0020FC
:1045C00003F012FD8B2003F00FFD002003F00CFD23
:1045D000992003F009FD002003F006FDA82003F058
:1045E00003FD002003F000FDB92003F0FDFC0020D6
:1045F00003F0FAFCC42003F0F7FC002003F0F4FC05
:10460000CA2003F0F1FC002003F0EEFCD22003F0FE
:10461000EBFC002003F0E8FCD82003F0E5FC0020D0
:1046200003F0E2FCE02003F0DFFC002003F0DCFC00
:10463000F32003F0D9FC002003F0D6FCE22003F0C5
:10464000E5FC052003F0D0FC002003F0CDFC0B209E
:1046500003F0CAFC002003F0C7FC1B2003F0C4FCDD
:10466000002003F0C1FC342003F0BEFC002003F066
:10467000BBFC442003F0B8FC002003F0B5FC4F2045
:1046800003F0B2FC002003F0AFFC612003F0ACFCAF
:10469000002003F0A9FC792003F0A6FC002003F021
:1046A000A3FC882003F0A0FC002003F09DFC9720D1
:1046B00003F09AFC002003F097FCA62003F094FC82
:1046C000002003F091FCB72003F08EFC002003F0E3
:1046D0008BFCC22003F088FC002003F085FCC7207F
:1046E00003F082FC002003F07FFCD12003F07CFC6F
:1046F000002003F079FCD62003F076FC002003F0C4
:1047000073FCDD2003F070FC002003F06DFCF3204F
:1047100003F06AFC002003F067FCE32003F076FC62
:10472000052003F061FC002003F05EFC0A2003F08A
:104730005BFC002003F058FC1C2003F055FC00201B
:1047400003F052FC332003F04FFC002003F04CFC3C
:10475000442003F049FC002003F046FC502003F005
:1047600043FC002003F040FC622003F03DFC0020ED
:1047700003F03AFC782003F037FC002003F034FC0F
:10478000882003F031FC002003F02EFC972003F07A
:104790002BFC002003F028FCA62003F025FC0020C1
:1047A00003F022FCB72003F01FFC002003F01CFCE8
:1047B000C22003F019FC002003F016FCC72003F010
:1047C00013FC002003F010FCD12003F00DFC0020AE
:1047D00003F00AFCD52003F007FC002003F004FCE2
:1047E000DD2003F001FC002003F0FEFBF32003F0CA
:1047F000FBFB002003F0F8FBE42003F007FC0120A2
:1048000003F0F2FB002003F0EFFB012003F0ECFBD0
:10481000002003F0E9FB022003F0E6FB002003F098
:10482000E3FB2A2003F0E0FB002003F0DDFB3C204B
:1048300003F0DAFB002003F0D7FB4B2003F0D4FB9E
:10484000002003F0D1FB5D2003F0CEFB002003F03D
:10485000CBFB742003F0C8FB002003F0C5FB8420D1
:1048600003F0C2FB002003F0BFFB932003F0BCFB6E
:10487000002003F0B9FBA22003F0B6FB002003F0F8
:10488000B3FBB32003F0B0FB002003F0ADFBBE2070
:1048900003F0AAFB002003F0A7FBC42003F0A4FB55
:1048A000002003F0A1FBCD2003F09EFB002003F0CD
:1048B0009BFBD32003F098FB002003F095FBDD2049
:1048C00003F092FB002003F08FFBF32003F08CFB3E
:1048D000002003F089FBE52003F098FB002003F0A3
:1048E00083FB002003F080FB002003F07DFB002011
:1048F00003F07AFB022003F077FB002003F074FB47
:10490000292003F071FB002003F06EFB3C2003F034
:104910006BFB002003F068FB4B2003F065FB0020DD
:1049200003F062FB5D2003F05FFB002003F05CFB03
:10493000742003F059FB002003F056FB842003F0A1
:1049400053FB002003F050FB932003F04DFB0020AD
:1049500003F04AFBA22003F047FB002003F044FBD6
:10496000B32003F041FB002003F03EFBBE2003F028
:104970003BFB002003F038FBC42003F035FB002094
:1049800003F032FBCD2003F02FFB002003F02CFBC3
:10499000D32003F029FB002003F026FBDC2003F0EA
:1049A00023FB002003F020FBF32003F01DFB00207D
:1049B00003F01AFBE62003F029FB112003F014FB9F
:1049C000002003F011FB342003F00EFB002003F065
:1049D0000BFB562003F008FB002003F005FB7620BC
:1049E00003F002FB002003F0FFFA772003F0FCFA4B
:1049F000002003F0F9FA662003F0F6FA002003F035
:104A0000F3FA882003F0F0FA002003F0EDFA992081
:104A100003F0EAFA002003F0E7FABB2003F0E4FA1F
:104A2000002003F0E1FA992003F0DEFA002003F001
:104A3000DBFA662003F0D8FA002003F0D5FA5520FF
:104A400003F0D2FA002003F0CFFA552003F0CCFA9D
:104A5000002003F0C9FA452003F0C6FA002003F055
:104A6000C3FA432003F0C0FA002003F0BDFA44204B
:104A700003F0BAFA002003F0B7FAE72003F0C6FA11
:104A8000322003F0B1FA002003F0AEFA552003F013
:104A9000ABFA002003F0A8FA762003F0A5FA002074
:104AA00003F0A2FA662003F09FFA002003F09CFABC
:104AB000672003F099FA002003F096FA672003F0CC
:104AC00093FA002003F090FA872003F08DFA00207B
:104AD00003F08AFA992003F087FA002003F084FAA1
:104AE000BB2003F081FA002003F07EFA992003F046
:104AF0007BFA002003F078FA772003F075FA0020A3
:104B000003F072FA442003F06FFA002003F06CFA0D
:104B1000562003F069FA002003F066FA232003F020
:104B200063FA002003F060FA332003F05DFA0020FE
:104B300003F05AFA452003F057FA002003F054FA24
:104B4000E82003F063FA002003F04EFA002003F09F
:104B50004BFA992003F048FA002003F045FA872029
:104B600003F042FA002003F03FFA882003F03CFAF9
:104B7000002003F039FA772003F036FA002003F022
:104B800033FA662003F030FA002003F02DFA882073
:104B900003F02AFA002003F027FAAA2003F024FAEF
:104BA000002003F021FABB2003F01EFA002003F0DE
:104BB0001BFA992003F018FA002003F015FA66207A
:104BC00003F012FA002003F00FFA552003F00CFA5C
:104BD000002003F009FA552003F006FA002003F044
:104BE00003FA442003F000FA002003F0FDF944200A
:104BF00003F0FAF9002003F0F7F9552003F0F4F977
:104C0000002003F0F1F9E92003F000FAAA2003F0F4
:104C1000EBF9002003F0E8F9002003F0E5F90020AB
:104C200003F0E2F9002003F0F1F9AA2003F0DCF927
:104C3000CF2003F0EBF9002003F0D6F9002003F0B9
:104C4000D3F9002003F0D0F9002003F0CDF90020C3
:104C500003F0CAF9002003F0C7F9002003F0C4F9FB
:104C6000002003F0C1F9002003F0BEF9002003F09A
:104C7000BBF9002003F0B8F9002003F0B5F90020DB
:104C800003F0B2F9002003F0AFF9002003F0ACF913
:104C9000002003F0A9F9002003F0A6F9F02003F0AA
:104CA000B5F9002003F0A0F9502003F09DF9002091
:104CB00003F09AF9002003F097F9002003F094F92B
:104CC000F32003F0A3F9002003F08EF9F92003F09C
:104CD0009DF9062003F088F9102003F085F92920BA
:104CE00003F082F9002003F07FF93A2003F08EF9F7
:104CF000552003F079F9112003F088F9642005F0BC
:104D00009DFC292003F082F9352003F07FF9002073
:104D100003F06AF9512003F079F9FF2003F064F9F8
:104D2000532003F073F92C2003F05EF9552003F0B3
:104D30006DF9822003F058F92C2003F067F902F096
:104D400066BBFE48808845F2105188427ED15521CD
:104D50004FF4704003F074F9AA214FF2010003F000
:104D60006FF952214FF2020003F06AF908214FF265
:104D7000030003F065F901214FF2040003F060F92C
:104D80000D214FF4304003F05BF90D214BF201008F
:104D900003F056F90D214BF2020003F051F93421D2
:104DA0004FF4364003F04CF934214BF2016003F02C
:104DB00047F934214BF2026003F042F90D214FF420
:104DC000314003F03DF90D214BF2011003F038F9A9
:104DD0000D214BF2021003F033F934214FF4374028
:104DE00003F02EF934214BF2017003F029F934213C
:104DF0004BF2027003F024F900214FF4324003F02B
:104E00001FF900214BF2012003F01AF900214BF2A7
:104E1000022003F015F924214FF4384003F010F973
:104E200024214BF6010003F00BF924214BF602007C
:104E300003F006F901214FF43F4003F001F90F217F
:104E40004FF4334003F0FCF80F2100E0FEE34BF297
:104E5000013003F0F5F80F214BF2023003F0F0F8C7
:104E600034214FF4394003F0EBF834214BF60110B4
:104E700003F0E6F834214BF6021003F0E1F80821C4
:104E80004FF4354003F0DCF808214BF2015003F0F9
:104E9000D7F808214BF2025003F0D2F803214FF467
:104EA000424003F0CDF824214FF43A4003F0C8F813
:104EB00024214BF6012003F0C3F824214BF60220F5
:104EC00003F0BEF800214FF43C4003F0B9F878211C
:104ED0004BF6014003F0B4F800214BF6024003F01A
:104EE000AFF800214FF43D4003F0AAF878214BF6CB
:104EF000015003F0A5F800214BF6025003F0A0F892
:104F000000214FF43E4003F09BF864214BF6016012
:104F100003F096F800214FF4514003F091F833214B
:104F20004DF2011003F08CF800214DF2021003F055
:104F300087F834214DF2031003F082F800214DF27E
:104F4000041003F07DF83A214DF2051003F078F8D3
:104F500000214DF2061003F073F84A214DF20710BC
:104F600003F06EF800214DF2081003F069F85C219F
:104F70004DF2091003F064F800214DF20A1003F01D
:104F80005FF881214DF20B1003F05AF800214DF229
:104F90000C1003F055F8A6214DF20D1003F050F857
:104FA00000214DF20E1003F04BF8E5214DF20F10E9
:104FB00003F046F801214DF2101003F041F81321DF
:104FC0004DF2111003F03CF801214DF2121003F0E4
:104FD00037F854214DF2131003F032F801214DF24D
:104FE000141003F02DF882214DF2151003F028F86B
:104FF00001214DF2161003F023F8CA214DF21710CB
:1050000003F01EF802214DF2181003F019F80021E8
:105010004DF2191003F014F802214DF21A1003F0AA
:105020000FF801214DF21B1003F00AF802214DF296
:105030001C1003F005F834214DF21D1003F000F8A8
:1050400002214DF21E1002F0FBFF67214DF21F10EE
:1050500002F0F6FF02214DF2201002F0F1FF842150
:105060004DF2211002F0ECFF02214DF2221002F06D
:10507000E7FFA4214DF2231002F0E2FF02214DF2DE
:10508000241002F0DDFFB7214DF2251002F0D8FF09
:1050900002214DF2261002F0D3FFCF214DF227104E
:1050A00002F0CEFF02214DF2281002F0C9FFDE21EE
:1050B0004DF2291002F0C4FF02214DF22A1002F035
:1050C000BFFFF2214DF22B1002F0BAFF02214DF288
:1050D0002C1002F0B5FFFE214DF22D1002F0B0FFB2
:1050E00003214DF22E1002F0ABFF10214DF22F10D4
:1050F00002F0A6FF03214DF2301002F0A1FF332190
:105100004DF2311002F09CFF03214DF2321002F0FB
:1051100097FF6D214DF2331002F092FF00214FF402
:10512000524002F08DFF33214DF2012002F088FF42
:1051300000214DF2022002F083FF01E0900A0020DE
:1051400034214DF2032002F07BFF00214DF20420B8
:1051500002F076FF3A214DF2052002F071FF0021A6
:105160004DF2062002F06CFF4A214DF2072002F0BA
:1051700067FF00214DF2082002F062FF5C214DF232
:10518000092002F05DFF00214DF20A2002F058FFD5
:1051900081214DF20B2002F053FF00214DF20C2033
:1051A00002F04EFFA6214DF20D2002F049FF002132
:1051B0004DF20E2002F044FFE5214DF20F2002F0E7
:1051C0003FFF01214DF2102002F03AFF13214DF272
:1051D000112002F035FF01214DF2122002F030FFC4
:1051E00054214DF2132002F02BFF01214DF2142027
:1051F00002F026FF82214DF2152002F021FF01214D
:105200004DF2162002F01CFFCA214DF2172002F0C9
:1052100017FF02214DF2182002F012FF00214DF27B
:10522000192002F00DFF02214DF21A2002F008FFB2
:1052300001214DF21B2002F003FF02214DF21C2040
:1052400002F0FEFE34214DF21D2002F0F9FE022193
:105250004DF21E2002F0F4FE67214DF21F2002F0F5
:10526000EFFE02214DF2202002F0EAFE84214DF2F1
:10527000212002F0E5FE02214DF2222002F0E0FEA4
:10528000A4214DF2232002F0DBFE02214DF2242066
:1052900002F0D6FEB7214DF2252002F0D1FE022108
:1052A0004DF2262002F0CCFECF214DF2272002F055
:1052B000C7FE02214DF2282002F0C2FEDE214DF28F
:1052C000292002F0BDFE02214DF22A2002F0B8FE94
:1052D000F2214DF22B2002F0B3FE02214DF22C20E0
:1052E00002F0AEFEFE214DF22D2002F0A9FE0321B8
:1052F0004DF22E2002F0A4FE10214DF22F2002F0DC
:105300009FFE03214DF2302002F09AFE33214DF230
:10531000312002F095FE03214DF2322002F090FE82
:105320006D214DF2332002F08BFE00214FF45340EB
:1053300002F086FE33214DF2013002F081FE0021A1
:105340004DF2023002F07CFE34214DF2033002F0C7
:1053500077FE00214DF2043002F072FE3A214DF248
:10536000053002F06DFE00214DF2063002F068FEBD
:105370004A214DF2073002F063FE00214DF2083061
:1053800002F05EFE5C214DF2093002F059FE002170
:105390004DF20A3002F054FE81214DF20B3002F042
:1053A0004FFE00214DF20C3002F04AFEA6214DF2D4
:1053B0000D3002F045FE00214DF20E3002F040FEAD
:1053C000E5214DF20F3002F03BFE01214DF210308D
:1053D00002F036FE13214DF2113002F031FE0121B0
:1053E0004DF2123002F02CFE54214DF2133002F037
:1053F00027FE01214DF2143002F022FE82214DF2EF
:10540000153002F01DFE01214DF2163002F018FE9B
:10541000CA214DF2173002F013FE02214DF218306E
:1054200002F00EFE00214DF2193002F009FE0221B9
:105430004DF21A3002F004FE01214DF21B3002F051
:10544000FFFD02214DF21C3002F0FAFD34214DF235
:105450001D3002F0F5FD02214DF21E3002F0F0FD8C
:1054600067214DF21F3002F0EBFD02214DF220309A
:1054700002F0E6FD84214DF2213002F0E1FD02212F
:105480004DF2223002F0DCFDA4214DF2233002F077
:10549000D7FD02214DF2243002F0D2FDB7214DF2AA
:1054A000253002F0CDFD02214DF2263002F0C8FD7C
:1054B000CF214DF2273002F0C3FD02214DF22830FA
:1054C00002F0BEFDDE214DF2293002F0B9FD0221CD
:1054D0004DF22A3002F0B4FDF2214DF22B3002F0F1
:1054E000AFFD02214DF22C3002F0AAFDFE214DF25B
:1054F0002D3002F0A5FD03214DF22E3002F0A0FD6B
:1055000010214DF22F3002F09BFD03214DF230307F
:1055100002F096FD33214DF2313002F091FD03216E
:105520004DF2323002F08CFD6D214DF2333002F03D
:1055300087FD00214FF4544002F082FD33214DF2EB
:10554000014002F07DFD00214DF2024002F078FDA5
:1055500034214DF2034002F073FD00214DF204406E
:1055600002F06EFD3A214DF2054002F069FD002186
:105570004DF2064002F064FD4A214DF2074002F070
:105580005FFD00214DF2084002F05AFD5C214DF212
:10559000094002F055FD00214DF20A4002F050FD95
:1055A00081214DF20B4002F04BFD00214DF20C40E9
:1055B00002F046FDA6214DF20D4002F041FD002112
:1055C0004DF20E4002F03CFDE5214DF20F4002F09D
:1055D00037FD01214DF2104002F032FD13214DF252
:1055E000114002F02DFD01214DF2124002F028FD84
:1055F00054214DF2134002F023FD01214DF21440DD
:1056000002F01EFD82214DF2154002F019FD01212C
:105610004DF2164002F014FDCA214DF2174002F07F
:105620000FFD02214DF2184002F00AFD00214DF25B
:10563000194002F005FD02214DF21A4002F000FD72
:1056400001214DF21B4002F0FBFC00E004E30221CB
:105650004DF21C4002F0F4FC34214DF21D4002F0EA
:10566000EFFC02214DF21E4002F0EAFC67214DF2F0
:105670001F4002F0E5FC02214DF2204002F0E0FC68
:1056800084214DF2214002F0DBFC02214DF2224048
:1056900002F0D6FCA4214DF2234002F0D1FC0221FD
:1056A0004DF2244002F0CCFCB7214DF2254002F02F
:1056B000C7FC02214DF2264002F0C2FCCF214DF280
:1056C000274002F0BDFC02214DF2284002F0B8FC58
:1056D000DE214DF2294002F0B3FC02214DF22A40B6
:1056E00002F0AEFCF2214DF22B4002F0A9FC0221A7
:1056F0004DF22C4002F0A4FCFE214DF22D4002F0B0
:105700009FFC03214DF22E4002F09AFC10214DF235
:105710002F4002F095FC03214DF2304002F090FC46
:1057200033214DF2314002F08BFC03214DF2324027
:1057300002F086FC6D214DF2334002F081FC002125
:105740004FF4554002F07CFC33214DF2015002F041
:1057500077FC00214DF2025002F072FC34214DF230
:10576000035002F06DFC00214DF2045002F068FC81
:105770003A214DF2055002F063FC00214DF2065033
:1057800002F05EFC4A214DF2075002F059FC002164
:105790004DF2085002F054FC5C214DF2095002F029
:1057A0004FFC00214DF20A5002F04AFC81214DF2DB
:1057B0000B5002F045FC00214DF20C5002F040FC71
:1057C000A6214DF20D5002F03BFC00214DF20E508F
:1057D00002F036FCE5214DF20F5002F031FC0121C0
:1057E0004DF2105002F02CFC13214DF2115002F03A
:1057F00027FC01214DF2125002F022FC54214DF2FF
:10580000135002F01DFC01214DF2145002F018FC5F
:1058100082214DF2155002F013FC01214DF2165079
:1058200002F00EFCCA214DF2175002F009FC0221D1
:105830004DF2185002F004FC00214DF2195002F014
:10584000FFFB02214DF21A5002F0FAFB01214DF24A
:105850001B5002F0F5FB02214DF21C5002F0F0FB50
:1058600034214DF21D5002F0EBFB02214DF21E508F
:1058700002F0E6FB67214DF21F5002F0E1FB02212E
:105880004DF2205002F0DCFB84214DF2215002F059
:10589000D7FB02214DF2225002F0D2FBA4214DF29F
:1058A000235002F0CDFB02214DF2245002F0C8FB40
:1058B000B7214DF2255002F0C3FB02214DF22650D4
:1058C00002F0BEFBCF214DF2275002F0B9FB0221BE
:1058D0004DF2285002F0B4FBDE214DF2295002F0C7
:1058E000AFFB02214DF22A5002F0AAFBF2214DF249
:1058F0002B5002F0A5FB02214DF22C5002F0A0FB30
:10590000FE214DF22D5002F09BFB03214DF22E5053
:1059100002F096FB10214DF22F5002F091FB032173
:105920004DF2305002F08CFB33214DF2315002F039
:1059300087FB03214DF2325002F082FB6D214DF2C4
:10594000335002F07DFB00214FF4564002F078FB0B
:1059500033214DF2016002F073FB00214DF2026031
:1059600002F06EFB34214DF2036002F069FB00216E
:105970004DF2046002F064FB3A214DF2056002F042
:105980005FFB00214DF2066002F05AFB4A214DF206
:10599000076002F055FB00214DF2086002F050FB59
:1059A0005C214DF2096002F04BFB00214DF20A60D0
:1059B00002F046FB81214DF20B6002F041FB002119
:1059C0004DF20C6002F03CFBA6214DF20D6002F09E
:1059D00037FB00214DF20E6002F032FBE5214DF263
:1059E0000F6002F02DFB01214DF2106002F028FB48
:1059F00013214DF2116002F023FB01214DF21260E0
:105A000002F01EFB54214DF2136002F019FB01213C
:105A10004DF2146002F014FB82214DF2156002F089
:105A20000FFB01214DF2166002F00AFBCA214DF274
:105A3000176002F005FB02214DF2186002F000FB36
:105A400000214DF2196002F0FBFA02214DF21A60BA
:105A500002F0F6FA01214DF21B6002F0F1FA022188
:105A60004DF21C6002F0ECFA34214DF21D6002F0A0
:105A7000E7FA02214DF21E6002F0E2FA67214DF2D0
:105A80001F6002F0DDFA02214DF2206002F0D8FA28
:105A900084214DF2216002F0D3FA02214DF22260FE
:105AA00002F0CEFAA4214DF2236002F0C9FA0221DD
:105AB0004DF2246002F0C4FAB7214DF2256002F0E5
:105AC000BFFA02214DF2266002F0BAFACF214DF260
:105AD000276002F0B5FA02214DF2286002F0B0FA18
