:020000040800F2
:10000000A8A5002079020008577E00087F2F00086D
:10001000557E0008712200080D91000800000000C4
:10002000000000000000000000000000178600082B
:10003000E928000800000000D17E0008D9860008E9
:10004000930200089302000893020008930200083C
:10005000930200089302000893020008930200082C
:1000600093020008930200081D290008930200086B
:10007000930200089302000893020008930200080C
:1000800093020008930200089302000893020008FC
:1000900093020008930200089302000893020008EC
:1000A00093020008930200089302000893020008DC
:1000B00093020008E9870008B58800089302000849
:1000C00093020008930200089302000893020008BC
:1000D000930200087D8D0008E18D0008930200085E
:1000E000ED2800089302000893020008930200081C
:1000F000930200089302000893020008930200088C
:10010000930200089302000893020008930200087B
:10011000930200089302000893020008930200086B
:10012000930200089302000893020008930200085B
:1001300000F002F800F090F80AA090E8000C824469
:100140008344AAF10107DA4501D100F085F8AFF246
:10015000090EBAE80F0013F0010F18BFFB1A43F0A5
:1001600001031847F04B0100104C0100103A24BF66
:1001700078C878C1FAD8520724BF30C830C144BF0C
:1001800004680C607047000000230024002500264E
:10019000103A28BF78C1FBD8520728BF30C148BFEA
:1001A0000B6070476E2900F01F83702900F05F819B
:1001B00066290AF0848265290AF0818267290AF09B
:1001C0007E826129AFF3008003681B0A28BF41F0DB
:1001D0008001692900F0D080642900F0CD80752964
:1001E00000F0CA806F2900F01684782900F02B8176
:1001F000E92900F0B183E42900F0AE83F52900F08D
:10020000AB83EF2900F01384F82900F02A810368FA
:10021000DB0928BF41F08001632900F020837329A6
:1002200000F02583E32900F06986F32900F06E864B
:10023000002070471FB500F0BFFE04000020002121
:1002400009F012FF401C60600020002109F0F6FE5A
:10025000E0601FBD10B510BD00F080FE1146FFF735
:10026000E9FF09F021FD00F059FF03B4FFF7F2FFA9
:1002700003BC08F067FF00000948804709480047B1
:10028000FEE7FEE7FEE7FEE7FEE7FEE7FEE7FEE746
:10029000FEE7FEE704480549054A064B70470000A3
:1002A0009987000831010008A89F0020A8A5002018
:1002B000A8A10020A8A10020704700001CB50C4692
:1002C000064B7B4469460090204600F0A6FA04469F
:1002D0000020694600F0B4FA20461CBD7B050000F2
:1002E0000FB4044910B503AA029800F0C5FA10BC77
:1002F0005DF814FB2C0000200FB41CB5084B06AAB7
:100300007B4469460090059800F087FA0446002077
:10031000694600F095FA20461CBC5DF814FB00000D
:100320003D05000070B50C460546012A05D0287829
:10033000800600D5EA69002302E0012305E05B1C8A
:10034000934202D2E05C0028F9D1A869E618C01AED
:10035000A861286A18442862284600F0B3F904E02E
:10036000D5E9012114F8010B9047B442F8D328468F
:1003700000F0BEF970BD00002DE9F04106460024F2
:1003800010687529314616A510D000F0C2F9002872
:1003900002DA404213A507E031688A0701D512A5A9
:1003A00002E0490704D511A5012401E000F0BAF9E3
:1003B00000210A2206F1240709E0B0FBF2FCB0FBA1
:1003C000F2F302FB1C00303078541846491C002818
:1003D000F3D123462A463046BDE8F04100F0ABB9E0
:1003E000000000002D0000002B0000002000000095
:1003F000F0B40D460188090502D5214C7C4402E089
:100400001F4C7C440E34002100F1240608E002F069
:100410000F071209E75D42EA03721B097754491C72
:1004200052EA0307F3D102780023120704D5702D96
:1004300006D009B1022311342246F0BC00F07BB98A
:1004400001231034F8E770B504460D4621461068C4
:1004500000F068F9024629462046BDE870400023B6
:10046000C6E7D21D22F00703D3E90023C0E70368E3
:10047000126843F0200303600823C3610023B7E739
:100480003C4801002DE9F05F894604464FF0000A20
:10049000DFF874B1FB44C0F820A02046E16888472B
:1004A000002874D0252806D0D4E901219047206A7D
:1004B000401C2062F1E700265F462046E16888473D
:1004C0002028054607DB312D05D2781910F8200CBD
:1004D00008B10643F1E7B00701D526F00406C4F8D9
:1004E0001CA00027C4F818A02A2D09D0284608F01F
:1004F00022FE38B304EB8708303DC8F8185019E0E5
:1005000059F8041B204604EB87029161E168884793
:10051000012F054618D1E069002820DA26F02006D0
:100520001DE0D8F8180000EB800005EB40003038E3
:10053000C8F818002046E1688847054608F0FBFD2A
:100540000028EED1012F0AD02E2D08D12046E168D7
:1005500088477F1C0546022F46F02006C4DBA069B1
:10056000002803DA404246F00106A061F00701D0FE
:1005700026F010066C2D0BD0682D09D04C2D39D0EB
:100580006A2D35D0742D35D07A2D33D016E038E071
:10059000E1682F4620468847B842054609D16C2FAE
:1005A00026D04FF48060E168064320468847054620
:1005B00004E06C2F1AD04FF4807006430DB3A5F100
:1005C0004100192802D8203546F400664A462946DB
:1005D000204626604E46FFF7E5FD80B101280BD08E
:1005E000F61D26F0070000F1080956E74020E4E771
:1005F0008020D8E70020D6E706F104094DE7284619
:1006000052E7206ABDE8F09FCC47010030B50546AF
:100610000B462A4613F8014B12F8010B08B1A04211
:10062000F8D01CB1002802D06D1CF1E7284630BD7F
:1006300010B5431C02E010F8011B71B18107FAD11B
:100640004FF0013202C88C1A8C4314EAC211F9D05F
:10065000C01A0A0603D0C01E10BDC01A10BD0A047D
:1006600001D0801E10BD0902FCD0401E10BD4FF00D
:10067000000200B5134694469646203922BFA0E8F2
:100680000C50A0E80C50B1F12001BFF4F7AF0907FE
:1006900028BFA0E80C5048BF0CC05DF804EB8900EF
:1006A00028BF40F8042B08BF704748BF20F8022B32
:1006B00011F0804F18BF00F8012B7047704770474A
:1006C0007047704770B5044685690068C10601D55A
:1006D000302600E02026C00707D070BDD4E90121F4
:1006E00030469047206A401C20626D1EF6D570BDD2
:1006F00070B5044685690078C00707D170BDD4E99C
:10070000012120209047206A401C20626D1EF6D5F2
:1007100070BD09684A0501D540B27047C905FCD5CE
:1007200000B2704709684A0501D5C0B27047C905D3
:10073000FCD580B270472DE9F0470D4699469246A8
:10074000044600F124080168880604D5E06921F018
:100750001001216000E00120A84201DD471B00E0FC
:100760000027A1697A1902EB0900081AA061207814
:10077000C00602D42046FFF7A5FF002608E0D4E912
:1007800001211AF806009047206A401C761C20625E
:100790004E45F4DB2078C0060AD52046FFF792FFCD
:1007A00006E0D4E9012130209047206A401C2062F5
:1007B000381EA7F10107F4DC07E0D4E9012118F89D
:1007C00005009047206A401C2062281EA5F1010503
:1007D000F3DC2046FFF78CFF2078000602D50220CC
:1007E000BDE8F0870120FBE711680268006A530545
:1007F00001D508700AE0D30501D5088006E013068C
:1008000003D5C217C1E9000200E00860012070476B
:1008100001694A1C02610878704700B58FB0CDE9C4
:1008200001310021059105497944CDE903101146B4
:100830006846FFF727FE0FB000BD0000E5FFFFFF91
:100840000A6802F8010B0A60704710B5436913B1DA
:10085000AFF3008001E0FFF765FD012010BD1278C5
:1008600000F124010A7000224A700122EDE71168AC
:100870004FF0FF32E9E70000074B70B50D467B44AF
:10088000FFF7CBFF0446284600F044FB10B14FF0C1
:10089000FF3070BD204670BD0F9400002DE9FF5F52
:1008A00015468A460446DFF8AC80F8440027D8E9AC
:1008B00000103E46CDE9001010E03AF816106A46E6
:1008C00002A800F02BFB411C07D02178890603D534
:1008D000E269391891420DD80744761C20788006C9
:1008E00002D5E069B84205DDAE42E6DB3AF8160013
:1008F0000028E2D1A069C01BA0612046FFF7E2FEFC
:10090000D8E90010CDE90010002017E03AF81810DF
:100910006A4602A800F002FBB0F1FF3F81460BD00F
:1009200000250DF1080B05E0D4E901211BF80500B5
:1009300090476D1C4D45F7D308F10100B042804649
:10094000E4DB206A384420622046FFF7D1FEBDE890
:10095000FF9F0000CA4301002DE9F0418046D21DEF
:1009600022F007020025D2E90002F52915A614D0CD
:10097000011E72F1000106DA0023D0EB030063EBE5
:10098000020211A608E0D8F800108B0701D50FA6C7
:1009900002E0490701D50EA601251146002408F101
:1009A000240704E000F04EF830323A55641C50EA57
:1009B0000102F7D12B46324621464046BDE8F041C0
:1009C000FFF7B9BE000000002D0000002B00000062
:1009D0002000000030B4002100F1240408E002F0FF
:1009E0000705D208303542EA4372DB086554491CDA
:1009F00052EA0305F3D10468002310A2250707D5A6
:100A0000A40600D421B1C46901230DA2641EC461EF
:100A100030BCFFF790BE10B5044621461068FFF7C2
:100A200081FE02462046BDE810400023D2E7D21DD9
:100A300022F00701D1E90023CCE70000000000000C
:100A40003000000030B5B0F10A024FEA900E71F1AB
:100A500000034EEA817EB0EB0E0061EB91014FEA9C
:100A6000101E4EEA017E10EB0E0041EB11114FEA11
:100A7000102E4EEA016E10EB0E0041EB11214FEAF1
:100A8000104E4EEA014E10EB0E0041EB11414018A2
:100A900041F100014FEAD00040EA41704FEAD10134
:100AA00010EB80054FEA810444EA907444EB0104A2
:100AB0006D1944EB0404521BA3414FF0000348BFDF
:100AC0000A3200D530BD401C41F1000130BD7047F5
:100AD0002DE9FF4F0C461E464FF0FF378BB0D2E991
:100AE0000001DDF860800A908A46C1F30A5505B915
:100AF0003D46002108464FF00000BAF1000F00F417
:100B0000400005DA00EB80004FF4400101EA50009C
:100B10004FEA9059B9F1010F00DDB9460A9850EA41
:100B20004A000ED044F61050A5F2FF3545432F146D
:100B3000B8F1000F1ED07542291E1EDDC9F100025A
:100B40001CE0B8F1010F4FF0000001D0302103E0AC
:100B5000F24305E02154401CB042FBDB304600224A
:100B6000002121540B99C1F80880C1E900200FB081
:100B7000BDE8F08FBD1B6D1CDEE74A4600DA694216
:100B800006A800F05DFA06AB93E8070003AB83E824
:100B9000070050460A9900F00FFB8DE80700A0F50A
:100BA00000501F3800900398002D09DD42F21F010C
:100BB0004A46084403A90390684600F06EFD08E029
:100BC000A0F500504A461F3803A90390684600F07C
:100BD00078FD8DE807000004000C03D04FF0FF30D3
:100BE000410800E01046B8F1000F03D00022009247
:100BF00015461EE0751E05D4FFF724FF30326255FE
:100C00006D1EF9D5B3460122084302D000227F1C95
:100C100004E02078302801D100227F1E002A0997A5
:100C200086D01DE0112D07DAFFF70CFF3032625538
:100C30006D1C50EA0102F5D1084302D00098C8B1FA
:100C40000EE00021681E05E0235C625C63542254C0
:100C5000401E491C8142F7DBAB46A81B401E099091
:100C6000002004F80B000B98099AC0F80880C0E92E
:100C7000002B7CE711264FF0000859E72DE9F04FD3
:100C800088460446D21D22F0070191B0D1E9000147
:100C9000CDE90A0108F03BFA02460B98C00F01D0DB
:100CA0002D2007E02068810701D52B2002E02021BC
:100CB00001EAC000032A099001D0072A05DB034698
:100CC0004146204600F07CF90BE12078800601D5F2
:100CD000E06900E00620B8F1650F814606D0B8F162
:100CE000660F18D0B8F1670F70D131E00020B9F16C
:100CF000110F009001DB112301E009F101030AAAA1
:100D000001A90CA8FFF7E4FEDDE90C70002609F14B
:100D10000105834647E001204B4600904FF0004715
:100D20000AAA01A90CA8FFF7D3FEDDE90DB00C99C2
:100D30005D46002610B909F101000D18B9EB050058
:100D400003D4C0F1FF3609F10105A5EB09002BE042
:100D5000B9F1010F01DA4FF001090020B9F1110FCB
:100D60000090484601DD112300E003460AAA01A9CC
:100D70000CA8FFF7ADFEDDE90C704D46002683465A
:100D8000207800070AD4AB4500DA5D4601A8012DA2
:100D900004DD411911F8011C302907D04F4502DA52
:100DA00017F1040F04DA012082460FE06D1EEEE712
:100DB000002F02DCED1B3E4403E0781CA84200DD5E
:100DC0007D1CB81B00F1010A4FF000472078000796
:100DD00003D4AA4501DB4FF0FF3A0021B7F1004FE1
:100DE0000DF143088DF8431024D002202B23002F4F
:100DF00001DA7F422D230A21021EA0F1010000DC4E
:100E00005FB197FBF1FC97FBF1F201FB1C7C1746ED
:100E10000CF1300C08F801CDEEE7A8F101000370E9
:100E20002188090501D5452100E06521A0F10108CF
:100E300000F8011C09980FA9A1EB0807FF1D00B1DC
:100E40000120411901EBEA70A1693844081A401EDB
:100E5000A0612078C00602D42046FFF733FC099831
:100E600028B1D4E901219047206A401C20622078F3
:100E7000C00622D52046FFF725FC1EE0002E04DB2D
:100E8000B34502DD01A8805D00E03020D4E90121F6
:100E90009047206A401C2062761CAAF101005FEA9C
:100EA000000A0AD100F088F8C0680168405CD4E903
:100EB00001219047206A401C2062281EA5F10105EF
:100EC000DCDC07E0D4E9012118F8010B9047206A27
:100ED000401C2062381EA7F10107F3DC2046FFF713
:100EE00007FC032011B043E610B5436913B1AFF31B
:100EF000008001E0FFF7D2FC012010BD128800F154
:100F0000240182840022C2840122EDE711684FF09F
:100F1000FF32E9E7007B00F08000704770B51646AD
:100F20000C46054600F040F8036893F801010128DB
:100F300006D0FF2C0FD8185D68B101202C7070BD51
:100F4000D3F807013246214603F20713034428462B
:100F5000BDE8704018474FF0FF3070BD754600F097
:100F6000E7F8AE4605006946534620F0070085467F
:100F700018B020B5FFF78EF9BDE820404FF000060D
:100F80004FF000074FF000084FF0000B21F0070171
:100F9000AC46ACE8C009ACE8C009ACE8C009ACE8B4
:100FA000C0098D467047000010B500F005F8001D1F
:100FB00010BD00BFB590000000487047689F00203A
:100FC0002DE9F0411F46044603260168072A01F473
:100FD000006004DB08B116A505E016A503E008B122
:100FE00015A500E015A521F010002060A069C01E25
:100FF000A0610FB1401EA0612046FFF763FB4FB117
:10100000D4E9012138469047206A401C2062C01C68
:10101000206206E0206AFAE7D4E9012115F8010B05
:101020009047761EF8D22046FFF762FBBDE8F081BC
:101030004E414E006E616E00494E4600696E66007C
:101040002DE9F047814616468AB0334878440DC8EA
:101050008DE80D0030487844801C03AC0DC884E84E
:101060000D0041F69B300844372190FBF1F290FBD4
:10107000F1F5A5F1800501FB12041B3C02D5644289
:10108000012000E00020DFF890A080460027FA440D
:10109000AAF1BE0A0DE0E00709D03246684607EB28
:1010A00047010AEB810100F00CFB8DE8070064109A
:1010B0007F1C002CEFD1184F7F44AC3F18E0E807AD
:1010C00014D007EB04100DF1180A90E80E008AE81E
:1010D0000E00C068F04201D198190890324606A966
:1010E00003A800F0EEFA03AB83E807006D10641C60
:1010F000002DE4D132466946B8F1000F03A802D0B2
:1011000000F0CBFA01E000F0DCFAC9E90001C9F80F
:1011100008200AB0BDE8F087AC3C010010B50446D9
:10112000AFF300802046BDE81040FFF79EB80000F6
:1011300000487047489F00204FF0013C50F8042BB6
:1011400051F8043B9A4221D1A2EB0C03934313EADA
:10115000CC1317D150F8042B51F8043B9A4215D107
:10116000A2EB0C03934313EACC130BD150F8042BDE
:1011700051F8043B9A4209D1A2EB0C03934313EAC2
:10118000CC13DBD04FF00000704700BFD01A01BA7B
:10119000B1FA81F101F0180122FA01F0CB40C1F15E
:1011A0002001DBB2C0B2C01A2CFA01F3D11A91436C
:1011B00011EAC311E6D170475FEA400C08BF91F015
:1011C000000F4FEA8C234FEAC12243EA51514FEA04
:1011D0001C5018BF00F5F0404FEA300018BF41F036
:1011E00000415FEA6C5C00F02980BCF1FF3F08BF62
:1011F00040F080407047130C06BF12044FF0100CF3
:101200004FF0000C130E04BF12020CF1080C130F68
:1012100004BF12010CF1040C930F04BF92000CF1F7
:10122000020CD30F04BF52000CF1010C11464FF019
:101230000002A0F11F00A0EB0C00704711F0004F5E
:1012400008BF704731F000413FF4D5AF0B0C06BF2B
:1012500009044FF0100C4FF0000C0B0E04BF0902F4
:101260000CF1080C0B0F04BF09010CF1040C8B0FDF
:1012700004BF89000CF1020CCB0F04BF49000CF134
:10128000010CCCF12003A0EB0C0022FA03F302FACC
:101290000CF241EA030100F10100704720F07F4C9D
:1012A00080EA030023F07F47ACEB070303F57C5390
:1012B00000F0004003F1FF032DE980494FEA154B90
:1012C00009B44FEA144325EA0B4E24EA03480FF20F
:1012D000042606EB132749083E785FEA320203FB37
:1012E0000667C7F5000707FB06F64FEA54374FEAD3
:1012F000D64606F1020607FB066CCCF1005C4FEA0D
:101300001C472CEA074C07FB06F40CFB06F504EB24
:1013100015464FEA961634BF00204FF000404FEAC2
:10132000D13706FB07FC4FEA1C4C0CFB0BF7D21B1A
:1013300003FB0CF761EB07010CFB0EF7B0EB07406A
:1013400072EB17420CFB08F734BFA2EB0742B2EB7B
:10135000074261EB17414FEA0C444FEA910706FB45
:1013600007FC4FEA1C4C0CFB0BF7B0EBC74072EBD1
:10137000573203FB0CF734BFA2EBC742B2EBC742B4
:1013800061EB57310CFB0EF7B0EBC70072EB5772F5
:101390000CFB08F734BFA2EBC702B2EBC70261EB4C
:1013A0005771039F4FEA816141EA921104EBCC042B
:1013B0004FEAD1374FEA826206FB07FC42EA9012FD
:1013C0004FEA80604FEA1C4C0CFB0BF7D21B03FB6F
:1013D0000CF761EB07010CFB0EF7B0EB074072EB6B
:1013E00017420CFB08F734BFA2EB0742B2EB0742EF
:1013F00061EB17414FEA8C554FEA910704EB9C24AF
:1014000006FB07FC4FEA1C4C0CFB0BF7B0EBC7408C
:1014100072EB573203FB0CF734BFA2EBC742B2EBBF
:10142000C74261EB57310CFB0EF7B0EBC70072EB14
:1014300057720CFB08F734BFA2EBC702B2EBC7022E
:1014400061EB577115EB4C254FEA816141EA92112E
:101450004FEA82624FEAD13742EA901206FB07FC5C
:1014600044F100044FEA80604FEA1C4C0CFB0BF780
:10147000D21B03FB0CF761EB07010CFB0EF7B0EB83
:10148000074072EB17420CFB08F734BFA2EB074290
:10149000B2EB074261EB174115EB1C154FEA8131A6
:1014A00041EA92414FEA823242EA90424FEA80306A
:1014B0004FEA0C7644F1000448EA03434EEA0B4835
:1014C0004FF0000EB2EB080C71EB030724BF62462D
:1014D00039464EEB0E0E4FF0000B001852414941B9
:1014E0004BEB0B0BB2EB080C71EB03077BF1000B22
:1014F00024BF624639464EEB0E0E4FF0000B00182B
:10150000524149414BEB0B0BB2EB080C71EB03075B
:101510007BF1000B24BF624639464EEB0E0E51EABA
:10152000020718BF46F0010616EB0E7655F10002D1
:1015300054F1000103D5BDE88901BDE80088BDE88C
:101540008901BDE80048B619524141EB0101A3F100
:101550000103704780807F7E7D7C7B7A7978777607
:1015600076757473727171706F6E6E6D6C6C6B6A80
:101570006A6968686766666564646363626161601E
:10158000605F5F5E5E5D5D5C5C5B5B5A5A5959589B
:101590005857575656555555545453535252525105
:1015A000515050504F4F4F4E4E4D4D4D4C4C4C4B5B
:1015B0004B4B4A4A4A4949494848484747474746A2
:1015C00046464545454444444443434343424242DE
:1015D00042414141002B26D4770021D01CB54FEA6F
:1015E000370703B44FF010004FF010014FF0000028
:1015F0000FBCBDE810400BF1010BBBF1010F08BFA0
:101600005FEA170722BF12F1010211F101014FF049
:10161000004143F1000300F0004043EA000070473E
:10162000F9D35708DAE746EA064613F1400F4FEAC6
:1016300016461FDD13F1200FDFBF16430A460021B7
:1016400020335B42C8D0C3F1200746EA064602FABF
:1016500007F74FEA164646EA0706C3F1200722FAC3
:1016600003F201FA07F721FA03F14FF0000342EA0F
:101670000702B1E746EA020646EA06464FEA164680
:1016800046EA0106BCBF46EA0646360C4FF00003A8
:101690004FF000024FF000019EE72DE9C04893464D
:1016A00030B491E8380007C831EA400C48BF34EA4A
:1016B000430C03D5FFF7F2FDFFF78CFFF0BCBDE84C
:1016C00000882DE9C048934630B491E8380007C837
:1016D00010F0804F08BF13F0804F03D100F005F8E1
:1016E000FFF778FFF0BCBDE8008820F07F4780EA74
:1016F000030023F07F4C07EB0C03A3F57C5300F0B1
:101700000040A3F1FE0392F0000F00F0B38095F0CB
:10171000000F00F077802DE901494FEA11404FEAB0
:10172000144621EA004800FB06FC24EA064708FBB1
:1017300006F607FB08F800FB07F718EB06484CEB2A
:10174000164C4FEA124B18EB07484FEA15464CEB84
:10175000174022EA0B4E0BFB06FC25EA06470EFB60
:1017600006F607FB0EFE0BFB07F71EEB064E4CEBD7
:10177000164C4FF000061EEB074E4CEB174B18EBC8
:101780000B0840F1000018EB0E0B58EB000840F17D
:1017900000008F1A4FF000013CBFC943661B14BF05
:1017A000B5EB040C00213CBFC943F61B4FEA1744BC
:1017B0004EEA8E0E27EA04454FEA1C4704FB0762F7
:1017C0002CEA074C05FB07F70CFB05F604FB0CFCA9
:1017D00016EB074642EB174216EB0C4642EB1C4257
:1017E0001BEB060658EB0202414146EA9E0601D574
:1017F000BDE80189B619524141EB0101A3F1010392
:10180000BDE801894FEA14454FEA114724EA05462D
:1018100021EA074C05FB07F406FB07F70CFB06F172
:1018200005FB0CFC11EB074144EB17444FEA124750
:1018300011EB0C4144EB1C4422EA074C05FB07F278
:1018400006FB07F70CFB06F605FB0CFC16EB074640
:1018500042EB174216EB0C4642EB1C456A1854F15A
:10186000000148BF7047B619524141EB0101A3F195
:101870000103704795F0000F37D04FEA11424FEA4D
:10188000144721EA024624EA074C02FB07F106FB53
:1018900007F70CFB06F402FB0CFC14EB074441EBCE
:1018A00017414FEA154714EB0C4441EB1C4125EA64
:1018B000074C02FB07F506FB07F70CFB06F602FBDD
:1018C0000CFC16EB074645EB174516EB0C4645EBB3
:1018D0001C42121951F1000148BF7047B61952411C
:1018E00041EB0101A3F1010370474FEA14454FEAB0
:1018F000114724EA054621EA074C05FB07F106FBE0
:1019000007F70CFB06F24FF0000605FB0CFC12EB90
:10191000074241EB174112EB0C4251EB1C4148BF0F
:101920007047921841EB0101A3F1010370470000D9
:101930002DE9F04FADF2DC4D4FF0F00A8DF8D0A458
:101940004FF4966102A8FEF792FE00208DF8CC04B9
:101950008DF8C004ADF8B804ADF8BC04ADF8C80407
:10196000ADF8C404ADF8D404814602AC3C274FF076
:101970004E0800BF4FF6FF7B584601F06BFD18255F
:10198000FDA0CDE900502B46C8229621192005F074
:101990008DFF8DF8D0A448468DF8CC94ADF8D49442
:1019A000ADF8BC9419E000BFADF8C8040CE000BF6E
:1019B000C1EB011104EB4102BDF8C8145054BDF84D
:1019C000C814491CADF8C814BDF8C8141E29BDF8C8
:1019D000BC14EDD3491CADF8BC14BDF8BC142829C7
:1019E000E2D38146ADF8B804ADF8BC04ADF8C80444
:1019F000ADF8C4048DF8C004E44E3070E4490880AA
:101A0000E4480121C170E4A008F0ACFA14E0192008
:101A100008F01CF8DE48008800040DD5DD4981F887
:101A20000390DB490988C1F30E01ADF8C414BDF879
:101A3000C41406F8019007E09DF8D004401E10F091
:101A4000FF008DF8D004E2D19DF8D00408B14846DB
:101A50007CE0D4A0FEF744FC584601F0FBFCDAA081
:101A6000CDE900501823C8227821192005F01EFF67
:101A7000DAA0CDE900501823C8229621192005F0DC
:101A800015FF4FF47A76304607F0E0FFD7A0CDE996
:101A900000501823C8229621192005F007FF304670
:101AA00007F0D4FFD6A0CDE900501823C822962114
:101AB000192005F0FBFE304640E100BFBDF8B80438
:101AC000305C222825D1BDF8B804304410F8030C4E
:101AD00028281BD09DF8CC04D8B18DF8CC94BDF843
:101AE000BC14BDF8C824C1EB011104EB410101F89D
:101AF0000290BDF8BC14491CADF8BC14ADF8C894F4
:101B0000BDF8B8041C30ADF8B8041CE001208DF815
:101B1000CC049DF8CC04B0B1BDF8B8043044407892
:101B2000222810D0BDF8B80430444178BDF8C8046C
:101B3000BDF8BC24C2EB021204EB42020244401C7A
:101B4000ADF8C8041170BDF8B804401CADF8B80475
:101B5000BDF8B814BDF8C4048142AFD300212F23CF
:101B6000EF220846CDF800B001F008FEA94D1F2075
:101B700010262880A8A0CDE900600F213346F0226E
:101B8000084605F093FE002008F036F84EF6EE60A9
:101B9000009040F23F13EF223021002001F0EEFDD3
:101BA0003023A5F80090EF221946002001F02CFD0B
:101BB0009DF8C024BDF8BC149CA0FEF791FBBDF8B5
:101BC000BC149DF8C0040D3081429DF8C00435D886
:101BD0007BE000BFBDF8B804BDF8B814C0EB00103E
:101BE00004EB400297A0FEF77BFBBDF8B804C0EB06
:101BF000001004EB4000CDE90060BDF8B8041023EC
:101C000000EB800007EB800081B2F0223C2005F061
:101C10004DFEBDF8B80400EB800108EB81018BB2EA
:101C2000BDF8B814EF2201EB810108EB810081B20D
:101C30003C2001F0E9FCBDF8B804401CADF8B80444
:101C4000BDF8B8149DF8C0040D308142C2D3002005
:101C500007F050FF54E000BFC0EB0010BDF8B8140F
:101C600004EB400277A0FEF73BFBBDF8B804C0EBE5
:101C7000001004EB4000CDE90060BDF8B80410236B
:101C800000EB800007EB800081B2F0223C2005F0E1
:101C90000DFEBDF8B804BDF8BC14491E884211D031
:101CA000BDF8B80400EB800008EB800083B2BDF8FB
:101CB000B804EF2200EB800008EB800081B23C20EA
:101CC00001F0A2FCBDF8B804401CADF8B804BDF8A2
:101CD000B804BDF8BC148842BDF8B804BCD300EB0E
:101CE0008001442000EB81018BB2BDF8B814EF22D3
:101CF00001EB810100EB810081B2002001F084FC46
:101D0000DFF850B100205D46DBF80410884795F8F5
:101D1000200000062ED55049A8890A889042F1D2A9
:101D2000EA8A49888A42EDD2AB46B42809D92D2ADD
:101D300007D2012007F060FF4FF4167007F086FE0F
:101D400018E6BDF8BC149DF8C0340D33994212D981
:101D50003C2810D2B2F5827FF9D940A0FEF7C0FA34
:101D6000012007F0C7FE4FF4967007F06FFE4EF6A5
:101D7000EE607DE054E24BE1776966692073636150
:101D80006E6E696E672E2E2E00000000B8050020D2
:101D900080000020A400002041542B43574C4150A8
:101DA0003D0D0A0057696669205363616E204163E7
:101DB0006B204572726F722E2E2E52657472796985
:101DC0006E670D0A00000000546865726520697333
:101DD000206E6F2077696669210000005265747279
:101DE0007920746865207363616E2E005265747289
:101DF0007920746865207363616E2E2E00000000E8
:101E0000526574727920746865207363616E2E2E3A
:101E10002E00000082000020506C65617365207305
:101E2000656C65637420776966693A006D203D20B2
:101E300025642C204170496E646578203D2025641E
:101E40000D0A000041505F5441425B25645D3A2514
:101E5000730D0A0048000020680A0020446F776E66
:101E60005061676520507265737365640D0A0000E8
:101E7000009040F23F13EF223221002001F07EFC5F
:101E80009DF8C0040D308DF8C004002007F082FEDC
:101E9000BDF8BC149DF8C0040D3081429DF8C0040B
:101EA00035D841E0BDF8B804BDF8B814C0EB001057
:101EB00004EB4002AFF27400FEF712FABDF8B8046A
:101EC000C0EB001004EB4000CDE90060BDF8B804A1
:101ED000102300EB800007EB800081B2F0223C2051
:101EE00005F0E4FCBDF8B80400EB800108EB8101CB
:101EF0008BB2BDF8B814EF2201EB810108EB810031
:101F000081B23C2001F080FBBDF8B804401CADF864
:101F1000B804BDF8B8149DF8C0040D308142C1D397
:101F2000002007F0E7FD73E0ADF8B8040D2544E0AC
:101F3000C0EB0010BDF8B81404EB4002AFF2FC0097
:101F4000FEF7CEF9BDF8B804B0FBF5F105FB1100C2
:101F500000EB800007EB8001BDF8B8041023C0EB54
:101F6000001004EB4000CDE90060F0223C2005F0B9
:101F70009DFCBDF8B814BDF8BC04401E814217D0CA
:101F8000BDF8B804B0FBF5F105FB110000EB8001D2
:101F900008EB8103BDF8B8143C20B1FBF5F205FB5A
:101FA000121101EB810108EB8101EF2201F02CFB02
:101FB000BDF8B804401CADF8B804BDF8B804BDF8CD
:101FC000BC148842BDF8B804B2D3B0FBF5F105FBF0
:101FD0001100032816D9BDF8B804BDF8B824B0FB29
:101FE000F5F105FB110000EB8001442000EB8103BB
:101FF000B2FBF5F105FB112101EB810100EB810141
:10200000EF2202E08023EF221946002001F0FCFAC3
:102010009DF8C0040D2878D3BBF80C103C2974D26D
:10202000BBF8160030287FF66DAE6C28BFF46AAEA0
:1020300082A0FEF755F9012007F0ACFD4FF4967031
:1020400007F004FD4EF6EE60009040F23F13EF22E1
:102050003221002001F092FB9DF8C0040D388DF86C
:10206000C0049DF8C0040D2802D9002007F092FD9D
:10207000002007F03FFDBDF8BC149DF8C0040D30F2
:1020800081429DF8C00436D87AE000BFBDF8B8049C
:10209000BDF8B814C0EB001004EB4002AFF25C20B6
:1020A000FEF71EF9BDF8B804C0EB001004EB4000C9
:1020B000CDE90060BDF8B804102300EB800007EB09
:1020C000800081B2F0223C2005F0F0FBBDF8B8049E
:1020D00000EB800108EB81018BB2BDF8B814EF2250
:1020E00001EB810108EB810081B23C2001F08CFA08
:1020F000BDF8B804401CADF8B804BDF8B8149DF89C
:10210000C0040D30814291D2C0E755E0C0EB001011
:10211000BDF8B81404EB4002AFF2D820FEF7E0F8A7
:10212000BDF8B804C0EB001004EB4000CDE900603E
:10213000BDF8B804102300EB800007EB800081B2EB
:10214000F0223C2005F0B2FBBDF8B814BDF8BC0489
:10215000401E814211D0BDF8B80400EB800108EBAD
:1021600081018BB2BDF8B814EF2201EB810108EBBD
:10217000810081B23C2001F047FABDF8B804401C50
:10218000ADF8B804BDF8B814BDF8BC048142BDF880
:10219000B804BBD300EB8001442000EB81018BB27B
:1021A000BDF8B814EF2201EB810100EB810081B290
:1021B000002001F029FAA5E5BBF80C103C29FAD95A
:1021C000BBF816003C28F6D921481421214DC08ABD
:1021D0004FF478423C3890FBF1F0C0EB001104EB77
:1021E00041011D4CE96000EB800022801022CDE906
:1021F000002107EB800081B21346F0223C2005F05D
:1022000055FBA4F8009015A0E968FEF769F84FF4B3
:10221000967007F01BFC0DF2DC4D0020BDE8F08F3E
:102220000A2007F013FCBDF8D404401C80B2ADF8BE
:10223000D404A0F51061C439BDD181E55570506159
:10224000676520507265737365640D0A00000000B5
:1022500048000020A4000020820000207769666901
:102260007374615F737369643A25730D0A0000002B
:10227000FEE710B5362000F0AFF9BDE810403A2077
:1022800000F0AAB910B5362000F0A6F9BDE810405C
:102290003B2000F0A1B910B53B2000F0C1F800F0E0
:1022A0007F0010BD7FB50121084605F02DFF0121FB
:1022B000102005F029FF1024ADF8004048208DF8CB
:1022C000030003208DF8020069462C4800F0CEFD83
:1022D0000421022000F0B6FD00208DF808000C203B
:1022E0008DF80900012501948DF80A5001A800F02D
:1022F00053FB0A208DF80C0002208DF80D008DF89C
:102300000E508DF80F5003A805F0A6FD002000F038
:102310001BFBADF800408DF80340194C6946204680
:1023200000F0A4FD1021204600F027FE052007F054
:102330008DFB00F0BFF800F0A9F90B2000F052F877
:10234000014610A0FDF7CCFF0321FF2000F018F993
:102350004DF2913000F01FF92221132000F07AF99C
:10236000F821142000F076F9082207493E2000F0F9
:102370004BF9052007F06AFB7FBD0000001001400B
:102380000008014025642000870000202DE9F0416D
:10239000134F0E46044615461021384600F0EBFD5B
:1023A0004021384600F0E0FD0028F9D144F0C0009B
:1023B00006F008F900240AE00020401CC0B21428EE
:1023C000FBD3FF2006F0FEF83055641CE4B2AC42AB
:1023D000F2D33846BDE8F041102100F0CEBD000038
:1023E0000008014070B50D4D04461021284600F04C
:1023F000C2FD4021284600F0B7FD0028F9D144F085
:10240000800006F0DFF8FF2006F0DCF8044610211B
:10241000284600F0B2FD204670BD000000080140D3
:1024200070B50D4D04461021284600F0A4FD402152
:10243000284600F099FD0028F9D144F0C00006F0CC
:10244000C1F8FF2006F0BEF804461021284600F02F
:1024500094FD204670BD00000008014038B50546D7
:10246000FFF719FF002821D03F20FFF7BBFF0446EC
:102470000720FFF7B7FF800802D03F20FFF7B2FF29
:10248000ACB10A2C13D8641EE4B2224629463F2080
:10249000FFF77CFF022269463F20FFF777FFFFF737
:1024A000E8FE9DF80100000601D5204638BD002059
:1024B00038BD000010B50D4C1021204600F05DFD28
:1024C0001021204600F057FD4021204600F04CFD31
:1024D0000028F9D11021204600F04FFD502007F0D0
:1024E000CFFABDE81040302000F076B80008014077
:1024F00070B50C46054612B1012A02D005E0002154
:1025000003E00920FFF76EFF014617A0FDF7E8FE84
:10251000FFF7B8FE0720FFF765FF800807D0601CB3
:10252000C1B201263F2000F095F8314600E0214677
:102530003F2000F08FF8224629463F2000F064F843
:10254000002000F034F80D4C1021204600F00CFD66
:102550000028F9D11021204600F006FD0028F9D00E
:10256000BDE87040FFF78EBE6C6F63616C5F6164A5
:1025700064726573733A25640D0A0000001001400F
:1025800070B505460720FFF72DFF2946BDE87040CE
:10259000092000F05FB810B50446010A042000F0DD
:1025A00059F8E1B2BDE81040052000F053B810B56D
:1025B00050B101280ED14621022000F04BF8342002
:1025C000BDE8104000F008B84621022000F042F8B3
:1025D0003520F5E710BD000070B50A4C0546102106
:1025E000204600F0C8FC4021204600F0BDFC002839
:1025F000F9D1284605F0E6FF2046BDE870401021DD
:1026000000F0BBBC000801402DE9F041104F0E4620
:10261000044615461021384600F0ADFC40213846EE
:1026200000F0A2FC0028F9D144F0400005F0CAFFF8
:10263000002404E0305D05F0C5FF641CE4B2AC4248
:10264000F8D33846BDE8F041102100F096BC0000F8
:102650000008014070B50C4C0D460646102120467E
:1026600000F089FC4021204600F07EFC0028F9D1D2
:10267000304605F0A7FF284605F0A4FF2046BDE838
:102680007040102100F079BC0008014010B5002115
:102690000C20FFF7DFFF08210B20FFF7DBFF0021F5
:1026A0000C20FFF7D7FF23210D20FFF7D3FF3121A7
:1026B0000E20FFF7CFFF3B210F20FFF7CBFF5B2161
:1026C0001020FFF7C7FFF8211120FFF7C3FF0321F8
:1026D0001220FFF7BFFF22211320FFF7BBFFF821D5
:1026E0001420FFF7B7FF00210A20FFF7B3FF4721AF
:1026F0001520FFF7AFFFB6212120FFF7ABFF102118
:102700002220FFF7A7FF18210846FFF7A3FF1D218E
:102710001920FFF79FFF1C211A20FFF79BFFC721FD
:102720001B20FFF797FF00211C20FFF793FFB2212A
:102730001D20FFF78FFFEA212320FFF78BFF2A21BF
:102740002420FFF787FF00212520FFF783FF1121B9
:102750002620FFF77FFF59212920FFF77BFF8121EA
:102760002C20FFF777FF35212D20FFF773FF09217C
:102770002E20FFF76FFF0B210020FFF76BFF0621D4
:102780000220FFF767FF04210720FFF763FF4521C1
:102790000820FFF75FFF00210920FFF75BFF0C21F6
:1027A000BDE810400620FFF755BF0029016802D0A0
:1027B00041F0010102E04FF6FE72114001607047E6
:1027C00001684FF6FE721140016000210160416016
:1027D0008160C1603149314A0839904203D148686B
:1027E00040F00F0006E02D4A1432904204D14868B0
:1027F00040F0F00048607047284A2832904203D1E8
:10280000486840F47060F5E7244A3C32904203D1B6
:10281000486840F47040EDE7204A5032904203D1BE
:10282000486840F47020E5E71C4A6432904203D1C6
:10283000486840F47000DDE7184A7832904203D1CE
:10284000486840F07060D5E7154A111F904203D1E7
:10285000086840F00F0006E0114A1432904204D19B
:10286000086840F0F000086070470D4A2832904236
:1028700003D1086840F47060F5E7094A3C329042A1
:1028800003D1086840F47040EDE7054A50329042A9
:10289000EAD1086840F47020E5E700000800024033
:1028A00008040240406880B2704730B5036847F6BC
:1028B000F07293430C6A8A682243D1E904452C43A1
:1028C00022438C692243CC6922434C6A22438C6A9E
:1028D00022431A430260CA6842600A6882604968FB
:1028E000C16030BD416070477047000010B50A20DC
:1028F00007F0ACF80848D0F82C1129B9D0F8A81185
:1029000041B10021C0F8A811BDE810404FF40060AB
:1029100000F02CB80121F5E70000224210B510208C
:1029200000F02AF801280AD105A0FDF7D9FC0549D5
:1029300001200870BDE81040002000F005B810BD6F
:10294000310D0A0086000020074A10211160064957
:1029500014390028086802D040F0100001E020F08F
:10296000100008607047000014040140014908602D
:102970007047000014040140064A01460020126816
:10298000044B0A4014331B680B4202D0002A00D0CB
:10299000012070470004014030B51A49837902686C
:1029A00053B30B6893430B600A1D13680468A34379
:1029B000136002790A441368046823431360114AC0
:1029C000083213680468A3431360131D1C6805686C
:1029D000AC431C604479102C05D021440A6800687F
:1029E00002430A6030BD1168046821431160196810
:1029F00000680143196030BD0079084401689143C3
:102A0000016030BD000401402DE9F04F87B0002483
:102A10008DF808408DF80C4001208DF814008DF8D9
:102A200010404FF6FF7B584600F014FDDFF894A3EA
:102A30001F201026AAF80000E3A0CDE90060574649
:102A40003346C8221421402004F030FFE34D102308
:102A5000C822E8682821CDE90060402004F026FF64
:102A60004FF47840DFF8789338804EF6EE68A9F896
:102A700000803223342219210020CDF8008000F09C
:102A80007DFED8A0CDE90060102332221E21022055
:102A900004F00CFF48F2304038803223EF22192135
:102AA000CB20CDF8008000F069FED0A0CDE9006019
:102AB000102323221E21CD2004F0F8FE3C804B235E
:102AC000A9F800B0EF221946002000F09DFDC9A032
:102AD000CDE900601023C8225021142004F0E6FE46
:102AE0006523EF221946002000F08EFD002000F043
:102AF000D5FBC24FA9F800B000207968884797F845
:102B00002000000679D59DF81400002875D0BC4A35
:102B1000B9891088814271D2F88A52889042FAD2DB
:102B2000A0F11902192A6BD8342935D24FF4784113
:102B3000AAF80010A9F800804F465D4632233422DF
:102B400019210020CDF800B000F018FE3423362201
:102B50001B210220CDF8008000F010FEA1A0CDE9DD
:102B60000060102332222021042004F09FFE4FF445
:102B7000FA7006F06BFF284600F06CFCAAF80040E3
:102B800018203D809FA1CDE900010346C82296216F
:102B9000192004F08BFEE0E0CB2931D92A78082AED
:102BA0002ED3A9F800804FF47840AAF800004446DC
:102BB0003223EF221921CB20CDF800B000F0DEFD4A
:102BC0003423ED221B21C920009400F0D7FD87A0FB
:102BD000CDE90060102323222021CB2004F066FEE3
:102BE0007E498DA01731FDF77BFB4FF4967006F000
:102BF0002DFF002007B0BDE8F08FB4E080E0FFE7D4
:102C000078287DD98DF814403222783890FBF2F084
:102C10008DF808005020B1FBF0F08DF80C009DF805
:102C200008009DF80C2000EB400181480144895CBC
:102C3000302937D39DF808109DF80C2001EB410195
:102C40000144895C39292DD89DF80810009401EBC6
:102C5000410108449DF80C10425C2878102300EBD9
:102C600080013C2000EB4100502104F0BFFD9DF8A5
:102C7000080000EB40016E4808449DF80C10425CCF
:102C80002878564917310B18401C28701A7028787C
:102C90000C5468A0FDF724FB2878082851D34FF482
:102CA000784035E09DF8081001EB410108449DF89B
:102CB0000C10405C412849D0287810B12878401E7B
:102CC000287000942878102300EB80013C2000EB52
:102CD00041002022502104F089FD009428784621EB
:102CE00000EB800001EB400010232022502104F073
:102CF0007DFD3A4829781730445401464DA000E044
:102D000034E0FDF7EDFA287808281AD248F230406E
:102D1000AAF80000A9F800803223EF221921CB2065
:102D2000CDF8008000F02AFD30A0CDE9006010232E
:102D300023221E21CD2004F0B9FDAAF80040A9F8F5
:102D400000B04FF4967006F081FE0FE004F05CFED8
:102D500000283FF44FAF012801D001204AE70020AE
:102D600000F09CFA02E001208DF814000A2006F021
:102D70006DFE9DF81000401CC0B28DF81000322886
:102D80000BD1009428783C2100EB800001EB40003F
:102D900010237C22502104F029FD9DF810006428A6
:102DA0007FF4AAAE8DF8104000942878102300EB31
:102DB00080013C2000EB41002022502104F016FD50
:102DC0009AE6000082000020456E74657220546807
:102DD0006520505744206F6600000000A4000020CA
:102DE0008400002043616E63656C00004A6F696E69
:102DF000000000005057443A000000004800002046
:102E0000680A002077696669207363616E6E696E77
:102E1000672E2E2E00000000776966697374615F6B
:102E200070617373776F72643A25730D0A00000046
:102E3000EA4B01085057445F54656D703A25730D95
:102E40000A00000010B58A0721F003040649130F99
:102E500021440F228C689A4094438C608A68984081
:102E600002438A6010BD000000000140F0B5CA783E
:102E7000002502F00F03D20601D58A7813430A78A1
:102E80004FF00F0E12F0FF0F4FF001021CD004683C
:102E90000F8802FA05F63740B74211D14FEA850C88
:102EA0000EFA0CF724EA070703FA0CF43C43CF7838
:102EB000282F02D0482F02D002E0466100E00661D0
:102EC0006D1C082DE4D304600C88FF2C1ED94468C7
:102ED0005FF0000606F1080702FA07F50F882F4099
:102EE000AF420FD14FEA860C0EFA0CF7BC4303FA3F
:102EF0000CF73C43CF78282F00D14561CF78482F7D
:102F000000D10561761C082EE4D34460F0BD0000BA
:102F1000F0B5144C002801DAE36900E06368420D63
:102F2000120185B2C0F301579540C0F30346032F49
:102F300005D0C2020AD50322B240934307E023F032
:102F40007062636823F07063636002E0AB4343F038
:102F5000706201B12A43002801DAE261F0BD6260CB
:102F6000F0BD0000000001400246002092680A42C5
:102F700000D0012070474161704701617047FEE752
:102F80001FB50121102005F0BFF80121084605F00A
:102F9000BBF801211648FFF7BBFF4FF40064ADF802
:102FA0000C4048208DF80F0003A91248FFF75EFF80
:102FB0000B210220FFF746FF00208DF804000C20B3
:102FC00000948DF8050001248DF806406846FFF74F
:102FD000E3FC28208DF8080002208DF8090003206A
:102FE0008DF80A008DF80B4002A804F035FF1FBDD4
:102FF00000023000001001402DE9FF470024804608
:103000008DF808408DF80C404EF6EE6540F23F1307
:10301000EF2266212046009500F0B0FB964F9748BE
:1030200078263D800480964D4FF00E094FF0100A2F
:10303000B8F1000F8DF8084073D005F1230884E043
:103040008DF80C4078E0032819D29DF80800009410
:10305000C0EBC00101EB08009DF80C10425C9DF82C
:10306000080000EB800006EBC0019DF80C0000EBAF
:10307000001309EB4300102304F0B8FB57E09DF860
:10308000080003280AD09DF808009DF80C10C0EB3A
:10309000C0002844405C312808D015E09DF80C00A1
:1030A000F0B39DF80C00062841D0CEE775A1CDE91C
:1030B00000A19DF80800102300EB800006EBC00182
:1030C000C8221C2004F0F2FB9DF808009DF80C10AB
:1030D000C0EBC0002844405C2B280DD16AA1CDE98B
:1030E00000A19DF80800102300EB800006EBC00152
:1030F000C822642004F0DAFB9DF808009DF80C104B
:10310000C0EBC0002844405C322810D160A1CDE95A
:1031100000A19DF8080000EB800006EBC00101E073
:1031200005E09CE01023C822BC2004F0BFFB9DF802
:103130000C00401C8DF80C009DF80C0007289DF831
:10314000080080D3401C8DF808009DF80800052871
:10315000FFF476AF88E000BF8DF80C4076E00328DE
:1031600018D29DF808000094C0EBC0009DF80C1028
:103170002844425C9DF8080000EB800006EBC0018B
:103180009DF80C0000EB001309EB4300102304F042
:103190002DFB56E09DF8080003280AD09DF8080092
:1031A0009DF80C10C0EBC0002844405C312808D0CA
:1031B00015E09DF80C00E0B39DF80C00062840D007
:1031C000CFE730A1CDE900A19DF80800102300EB66
:1031D000800006EBC001C8221C2004F067FB9DF8AC
:1031E00008009DF80C10C0EBC0002844405C2B2860
:1031F0000DD128A1CDE900A19DF80800102300EB16
:10320000800006EBC001C822642004F04FFB9DF84B
:103210000800C0EBC00041199DF80C00085C322882
:103220000FD11BA1CDE900A19DF8080000EB8000A3
:1032300000E006E006EBC0011023C822BC2004F029
:1032400035FB9DF80C00401C8DF80C009DF80C001F
:1032500007289DF8080082D3401C8DF808009DF8CF
:1032600008000528FFF478AF4FF6FF70388004B0EF
:103270000020BDE8F08700008400002082000020CC
:10328000F64B010831323300736869667400000040
:1032900064656C0053686966740000002DE9FF5F87
:1032A000002483468DF808408DF80C404EF6EE65FC
:1032B00040F23F1A5346EF2266212046009500F067
:1032C0005DFA5E4F5E483D8004808DF808405D4D9C
:1032D00078264FF010084FF01C0965E08DF80C407F
:1032E00059E000BF00EB40009DF80C102844405C02
:1032F000302825D39DF808009DF80C1000EB400005
:103300002844405C39281BD89DF80800009400EB45
:1033100040009DF80C102844425C9DF8080000EB2A
:10332000C00101EB001006EB40019DF80C002423C6
:1033300000EB800003EB0010102304F057FA25E0A7
:103340009DF808009DF80C1000EB40002844405CFC
:10335000412801D03CA105E0BBF1000F01D03BA109
:1033600000E03BA1CDE900819DF8080000EBC00121
:1033700001EB001006EB40019DF80C00102300EB60
:10338000800209EB0210C82204F090FA9DF80C00AC
:10339000401C8DF80C009DF80C0003289DF80800D7
:1033A000A0D3401C8DF808009DF80800042895D390
:1033B0008DF80840992518E09DF8080000EBC00141
:1033C00001EB001005EB40039DF80800EF2200EB35
:1033D000C00101EB001005EB4001002000F014F9E2
:1033E0009DF80800401C8DF808009DF8080003288F
:1033F000E2D38DF808405546502414E09DF80800AB
:1034000000EB800004EB00129DF808002B4600EB57
:10341000800004EB0010652100F0F6F89DF808002C
:10342000401C8DF808009DF808000228E6D34FF6EE
:10343000FF70388004B00020BDE8F09F84000020B9
:1034400082000020EA4B010864656C00202E2000F9
:10345000414243002DE9F0431B4C81460025208862
:1034600066884643A088A0F5D041043902D1A079EE
:1034700001280CD00021084604F012F804F0A8FA44
:1034800012484FF480734115114C802218E000203F
:10349000A0712A2767814FF02B08A4F80C80014601
:1034A00003F0FEFF0120A071A4F80A80A781E5E7E0
:1034B00003614161C4F800904261026101616D1CC9
:1034C000B542F5D3BDE8F083680A00200010014042
:1034D0000C0C01402DE9F04F4A492A242B258988FC
:1034E00045F2105A4FF4305B4FF4285E4FF44876A3
:1034F0004FF0F00C49F241394FF4A07345F2103708
:103500004FF4F07280B13F484FF00108494580F810
:1035100006800380A0F802C001D0B9423ED12C261B
:1035200006814481858157E036484FF000084945BF
:1035300080F80680A0F800C0438006D0A1F5D04CEA
:10354000BCF1040C01D0B9420CD12C260681448177
:10355000A1F5D0448581043C01D0B94244D1038017
:10356000428041E0514507D1A0F808B0A0F80AE038
:103570004FF42C5181810EE0A1F5C853633B06D076
:103580002221018120214181212181812CE02C21D6
:103590000181458184810280468025E0A1F5D04CDF
:1035A000BCF1040C09D051450BD1A0F808B0A0F82B
:1035B0000AE04FF42C54848121E02C2606814581B9
:1035C00009E0A1F5C85CBCF1630C12D0222404818F
:1035D0002124448120248481A1F5D044043C01D0DD
:1035E000B94201D102804380BDE8F04F002003F0D2
:1035F000AFBD4FF02C0CA0F808C044818581068037
:103600004280E9E7680A00202DE9FE4F161ACDE94D
:1036100000104FF000085D1A47464FF0FF30002EB3
:1036200002DD4FF0010102E003D14FF000018B46B3
:1036300002E08346C6F10006002D02DD4FF00100D6
:1036400002E003D14FF00000824602E08246C5F15D
:103650000005AE4201DD344600E02C46601C4FF010
:103660000009029018E0009881B2019880B200F041
:1036700019F8B0442F44A04504DD0198A8EB0408D4
:1036800058440190A74203DD00983F1B504400902E
:1036900009F101001FFA80F902998945E3DDBDE8CF
:1036A000FE8F000000B503F0FBFE04F091F907481F
:1036B0004FF48071016141154161054A054B128843
:1036C0001A60802242610261016100BD0010014068
:1036D000820000200C0C01402DE9F74FDFF890909C
:1036E00082468B46B9F80A0004F060F9214C4FF489
:1036F0008077276165156561DFF87C804FEA1A21C4
:10370000C8F8001080266661266125612761656121
:103710000AF0FF01C8F80010666126612561B9F85A
:103720000C0004F043F9276165614FEA1B21C8F8DA
:103730000010666126612561276165610BF0FF015C
:10374000C8F8001066612661256167616561B9F896
:103750000810C8F80010666126612561276165615F
:103760000298C8F80000666126612561BDE8FE8FF9
:10377000680A0020001001400C0C01402DE9F84FB0
:10378000274E1D468146B3880A9FA3F5D0400438D2
:1037900002D1B07901280BD0A2EB0900401C86B2FF
:1037A0000C464FF48078DFF87CA04FF4007B33E0C8
:1037B00034880846A11AA4EB09030024B4712A46F0
:1037C0002A2474812B25491E5B1EB58189B29BB2C8
:1037D0000097FFF7D3FF0120B0717581B481BDE878
:1037E000F88F2146484603F05BFE04F0F1F8002113
:1037F00050465A46DFF830C0802309E0C0F81080F8
:103800004261CCF80070436103610261491C89B2D6
:10381000B142F3D3641CA4B2AC42E2D9DFE70000AA
:10382000680A0020001001400C0C01402DE9F84FFF
:103830000121192004F068FC0121FE48FFF768FB14
:103840004FF4F864ADF8004010208DF80300DFF865
:10385000E88303208DF80200694645464046FFF79D
:1038600005FB21462846FFF788FBF44D4FF6FF7411
:10387000ADF8004069462846FFF7F8FA2146284689
:10388000FFF77BFB322006F0E1F80121002004F075
:10389000A5F8322006F0DAF8002003F003FCE84C2B
:1038A00049F2413746F60409A08045F2103A45F244
:1038B0001056FF2806D3A0F57F41FF3902D0B0F59E
:1038C000134F70D1D32004F071F803F0B3FB03F071
:1038D000B1FB03F0AFFB4FF6FF7505EA0020A080B7
:1038E00003F0A8FBA1880843A080B8425BD0BF20AA
:1038F00004F05CF803F09EFB03F09CFB03F09AFBE2
:1039000003F098FB05EA0020A08003F093FBA18858
:103910000843A080484546D0D42004F047F803F07F
:1039200089FB03F087FB03F085FB05EA0020A080FC
:1039300003F080FBA1880843A080504533D04FF4AA
:103940005A4004F033F803F075FB4FF45B4004F089
:103950002DF803F06FFB05EA0020A0804FF45C40D7
:1039600004F024F803F066FBA1880843A080B0F5BA
:10397000004F7DD0B04216D0A12004F017F803F01C
:1039800059FBA08003F056FB05EA0020A08003F05D
:1039900051FBA1880843A0F5AE41A080613902D156
:1039A00041F66310A080A188A6A0FCF799FCA0882E
:1039B000B8427DD1CF2003F0F9FF002003F0E4FFEF
:1039C000C12003F0E1FF302003F0DEFFED2003F023
:1039D000EDFF642003F0D8FF032003F0D5FF122091
:1039E00003F0D2FF812003F0CFFFE82003F0DEFFD9
:1039F000852003F0C9FF102003F0C6FF7A2003F0F2
:103A0000C3FFCB2003F0D2FF392003F0BDFF2C20F1
:103A100003F0BAFF002003F0B7FF342003F0B4FF37
:103A2000022003F0B1FFF72003F0C0FF202003F0D5
:103A3000ABFFEA2003F0BAFF002003F0A5FF00204F
:103A400003F0A2FFC02003F0B1FF1B2003F09CFF96
:103A5000C12003F0ABFF012003F096FFC52003F067
:103A6000A5FF302003F090FF302003F08DFF00E031
:103A7000B3E0C72003F09AFFB72003F085FF36209C
:103A800003F094FF482003F07FFF3A2003F08EFFFD
:103A9000552003F079FFB12003F088FF002003F0E8
:103AA00073FF1A2003F070FFB62003F07FFF00E0E1
:103AB00095E00A2003F068FFA22003F065FFF220E2
:103AC00003F074FF002003F05FFF262003F06EFF79
:103AD000012003F059FFE02003F068FF0F2003F0FE
:103AE00053FF2A2003F050FF282003F04DFF082049
:103AF00003F04AFF0E2003F047FF082003F044FFC5
:103B0000542003F041FFA92003F03EFF432003F0BF
:103B10003BFF0A2003F038FF0F2003F035FF0020A1
:103B200003F032FF002003F02FFF002003F02CFFF2
:103B3000002003F029FFE12003F038FF002003F00C
:103B400023FF152003F020FF172003F01DFF07209F
:103B500003F01AFF112003F017FF062003F014FFF3
:103B60002B2003F011FF562003F00EFF3C2003F042
:103B70000BFF052003F008FF102003F005FF0F20C6
:103B800003F002FF3F2003F0FFFE3F2003F0FCFEA6
:103B90000F2003F0F9FE2B2003F008FF002003F0B4
:103BA000F3FE002003F0F0FE012003F0EDFE3F20C5
:103BB00003F0EAFE2A2003F0F9FE002003F0E4FE01
:103BC000002003F0E1FE002003F0DEFEEF2003F012
:103BD000DBFE112003F0EAFEB8E0A680E3E64845EC
:103BE0007ED1112003F0E2FE142005F02FFFD0203B
:103BF00003F0DCFE072003F0C7FE422003F0C4FE02
:103C00001D2003F0C1FED12003F0D0FE002003F000
:103C1000BBFE1A2003F0B8FE092003F0B5FED22047
:103C200003F0C4FE012003F0AFFE222003F0ACFE3F
:103C3000C0200FE00002300000100140000C0140E5
:103C4000680A0020204C43442049443A25780D0A54
:103C50000000000003F0AAFE102003F095FE3B20B8
:103C600003F092FE002003F08FFE022003F08CFE92
:103C7000112003F089FEC52003F098FE032003F015
:103C800083FEC82003F092FE002003F07DFE252075
:103C900003F07AFE212003F077FE052003F074FE86
:103CA000002003F071FE0A2003F06EFE652003F091
:103CB0006BFE252003F068FE772003F065FE5020A0
:103CC00003F062FE0F2003F05FFE002003F05CFEB5
:103CD000F82003F06BFE012003F056FEFE2000E00A
:103CE0003AE003F063FE002003F04EFE022003F0F2
:103CF0004BFE202003F05AFE362003F057FE08202A
:103D000003F042FE3A2003F051FE552003F03CFE42
:103D10002B2003F04BFE002003F036FE002003F0C2
:103D200033FE012003F030FE3F2003F02DFE2A2059
:103D300003F03CFE002003F027FE002003F024FEE9
:103D4000012003F021FEDF2003F01EFE782005F0A5
:103D50007DFE292001F0FBBE50457CD1ED2003F013
:103D600025FE012003F010FEFE2003F00DFEEE20E4
:103D700003F01CFEDE2003F007FE212003F004FE0A
:103D8000F12003F013FE012003F0FEFDDF2003F01D
:103D90000DFE102003F0F8FDC42003F007FE8F2075
:103DA00003F0F2FDC62003F001FE002003F0ECFD5D
:103DB000E22003F0E9FDE22003F0E6FDE22003F05B
:103DC000E3FDBF2003F0F2FDAA2003F0DDFDB020EB
:103DD00003F0ECFD0D2003F0D7FD002003F0D4FD2F
:103DE0000D2003F0D1FD002003F0CEFD112003F0E3
:103DF000CBFD002003F0C8FD192003F0C5FD002015
:103E000003F0C2FD212003F0BFFD002003F0BCFD44
:103E10002D2003F0B9FD002003F0B6FD3D2003F096
:103E2000B3FD002003F0B0FD5D2003F0ADFD0020E8
:103E300003F0AAFD5D2003F0A7FD002003F0A4FD20
:103E4000B12003F0B3FD802003F09EFD002003F0BD
:103E50009BFD8B2000E0FCE303F096FD002003F0C7
:103E600093FD962003F090FD002003F08DFDB2201D
:103E700003F09CFD002003F087FD002003F084FD8B
:103E8000022003F081FD002003F07EFD032003F0FB
:103E90007BFD002003F078FDB32003F087FD0020B8
:103EA00003F072FD002003F06FFD002003F06CFDB5
:103EB000002003F069FD002003F066FD002003F000
:103EC00063FD002003F060FD002003F05DFD002095
:103ED00003F05AFD002003F057FD002003F054FDCD
:103EE000002003F051FD002003F04EFD002003F000
:103EF0004BFD002003F048FD002003F045FD0020AD
:103F000003F042FD002003F03FFD002003F03CFDE4
:103F1000002003F039FD002003F036FD002003F0FF
:103F200033FD002003F030FD002003F02DFDB42010
:103F300003F03CFD8B2003F027FD002003F024FD5F
:103F4000962003F021FD002003F01EFDA12003F0C8
:103F50001BFD002003F018FDB52003F027FD022013
:103F600003F012FD002003F00FFD032003F00CFD11
:103F7000002003F009FD042003F006FD002003F0FB
:103F800003FDB62003F012FD002003F0FDFC00202D
:103F900003F0FAFCB72003F009FD002003F0F4FC65
:103FA000002003F0F1FC3F2003F0EEFC002003F0C2
:103FB000EBFC5E2003F0E8FC002003F0E5FC64204D
:103FC00003F0E2FC002003F0DFFC8C2003F0DCFCBB
:103FD000002003F0D9FCAC2003F0D6FC002003F055
:103FE000D3FCDC2003F0D0FC002003F0CDFC7020DB
:103FF00003F0CAFC002003F0C7FC902003F0C4FCCF
:10400000002003F0C1FCEB2003F0BEFC002003F015
:10401000BBFCDC2003F0B8FC002003F0B5FCB820AA
:1040200003F0C4FC002003F0AFFC002003F0ACFC64
:10403000002003F0A9FC002003F0A6FC002003F000
:10404000A3FC002003F0A0FC002003F09DFC002056
:1040500003F09AFCBA2003F0A9FC242003F094FC9E
:10406000002003F091FC002003F08EFC002003F000
:104070008BFCC12003F09AFC202003F085FC00207B
:1040800003F082FC542003F07FFC002003F07CFC52
:10409000FF2003F079FC002003F076FCC22003F03F
:1040A00085FC0A2003F070FC002003F06DFC042066
:1040B00003F06AFC002003F067FCC32003F076FCE9
:1040C0003C2003F061FC002003F05EFC3A2003F08A
:1040D0005BFC002003F058FC392003F055FC002065
:1040E00003F052FC372003F04FFC002003F04CFC9F
:1040F0003C2003F049FC002003F046FC362003F08E
:1041000043FC002003F040FC322003F03DFC002083
:1041100003F03AFC2F2003F037FC002003F034FCBE
:104120002C2003F031FC002003F02EFC292003F0AA
:104130002BFC002003F028FC262003F025FC0020A7
:1041400003F022FC242003F01FFC002003F01CFCE1
:10415000242003F019FC002003F016FC232003F0B8
:1041600013FC002003F010FC3C2003F00DFC0020A9
:1041700003F00AFC362003F007FC002003F004FCE7
:10418000322003F001FC002003F0FEFB2F2003F09F
:10419000FBFB002003F0F8FB2C2003F0F5FB0020D4
:1041A00003F0F2FB292003F0EFFB002003F0ECFB0F
:1041B000262003F0E9FB002003F0E6FB242003F0B7
:1041C000E3FB002003F0E0FB242003F0DDFB0020F4
:1041D00003F0DAFB232003F0D7FB002003F0D4FB2D
:1041E000C42003F0E3FB622003F0CEFB002003F0C9
:1041F000CBFB052003F0C8FB002003F0C5FB8420A7
:1042000003F0C2FB002003F0BFFBF02003F0BCFB77
:10421000002003F0B9FB182003F0B6FB002003F0E8
:10422000B3FBA42003F0B0FB002003F0ADFB18208B
:1042300003F0AAFB002003F0A7FB502003F0A4FB2F
:10424000002003F0A1FB0C2003F09EFB002003F0F4
:104250009BFB172003F098FB002003F095FB9520B3
:1042600003F092FB002003F08FFBF32003F08CFBA4
:10427000002003F089FBE62003F086FB002003F01A
:1042800083FBC52003F092FB322003F07DFB00206E
:1042900003F07AFB442003F077FB002003F074FB6B
:1042A000652003F071FB002003F06EFB762003F025
:1042B0006BFB002003F068FB882003F065FB002007
:1042C00003F062FBC62003F071FB202003F05CFBCF
:1042D000002003F059FB172003F056FB002003F0E9
:1042E00053FB012003F050FB002003F04DFBC720DF
:1042F00003F05CFB002003F047FB002003F044FBCD
:10430000002003F041FB002003F03EFBC82003F037
:104310004DFB002003F038FB002003F035FB0020AC
:1043200003F032FB002003F02FFBC92003F03EFB1B
:10433000002003F029FB002003F026FB002003F0FF
:1043400023FB002003F020FB002003F01DFB0020D6
:1043500003F01AFB002003F017FB002003F014FB0E
:10436000002003F011FB002003F00EFB002003F0FF
:104370000BFB002003F008FB002003F005FB0020EE
:1043800003F002FB002003F0FFFA002003F0FCFA28
:10439000E02003F00BFB162003F0F6FA002003F0F8
:1043A000F3FA1C2003F0F0FA002003F0EDFA2120CC
:1043B00003F0EAFA002003F0E7FA362003F0E4FA0B
:1043C000002003F0E1FA462003F0DEFA002003F0BB
:1043D000DBFA522003F0D8FA002003F0D5FA64206B
:1043E00003F0D2FA002003F0CFFA7A2003F0CCFADF
:1043F000002003F0C9FA8B2003F0C6FA002003F076
:10440000C3FA992003F0C0FA002003F0BDFAA820F7
:1044100003F0BAFA002003F0B7FAB92003F0B4FAB7
:10442000002003F0B1FAC42003F0AEFA002003F03C
:10443000ABFACA2003F0A8FA002003F0A5FAD220B4
:1044400003F0A2FA002003F09FFAD92003F09CFAAF
:10445000002003F099FAE02003F096FA002003F020
:1044600093FAF32003F090FA002003F08DFAE12094
:1044700003F09CFA162003F087FA002003F084FA78
:104480001C2003F081FA002003F07EFA222003F0C2
:104490007BFA002003F078FA362003F075FA00204A
:1044A00003F072FA452003F06FFA002003F06CFA73
:1044B000522003F069FA002003F066FA642003F04A
:1044C00063FA002003F060FA7A2003F05DFA00201E
:1044D00003F05AFA8B2003F057FA002003F054FA45
:1044E000992003F051FA002003F04EFAA82003F0BF
:1044F0004BFA002003F048FAB92003F045FA0020F7
:1045000003F042FAC42003F03FFA002003F03CFA23
:10451000CA2003F039FA002003F036FAD22003F063
:1045200033FA002003F030FAD82003F02DFA0020EF
:1045300003F02AFAE02003F027FA002003F024FA1F
:10454000F32003F021FA002003F01EFAE22003F02A
:104550002DFA052003F018FA002003F015FA0B20BD
:1045600003F012FA002003F00FFA1B2003F00CFAFC
:10457000002003F009FA342003F006FA002003F0CB
:1045800003FA442003F000FA002003F0FDF94F2065
:1045900003F0FAF9002003F0F7F9612003F0F4F9D1
:1045A000002003F0F1F9792003F0EEF9002003F088
:1045B000EBF9882003F0E8F9002003F0E5F99720F3
:1045C00003F0E2F9002003F0DFF9A62003F0DCF9A4
:1045D000002003F0D9F9B72003F0D6F9002003F04A
:1045E000D3F9C22003F0D0F9002003F0CDF9C720A1
:1045F00003F0CAF9002003F0C7F9D12003F0C4F991
:10460000002003F0C1F9D62003F0BEF9002003F02A
:10461000BBF9DD2003F0B8F9002003F0B5F9F32071
:1046200003F0B2F9002003F0AFF9E32003F0BEF984
:10463000052003F0A9F9002003F0A6F90A2003F0F1
:10464000A3F9002003F0A0F91C2003F09DF900203D
:1046500000E0FDE203F098F9332003F095F9002023
:1046600003F092F9442003F08FF9002003F08CF955
:10467000502003F089F9002003F086F9622003F04E
:1046800083F9002003F080F9782003F07DF9002001
:1046900003F07AF9882003F077F9002003F074F929
:1046A000972003F071F9002003F06EF9A62003F0C3
:1046B0006BF9002003F068F9B72003F065F90020DA
:1046C00003F062F9C22003F05FF9002003F05CF907
:1046D000C72003F059F9002003F056F9D12003F068
:1046E00053F9002003F050F9D52003F04DF90020D4
:1046F00003F04AF9DD2003F047F9002003F044F904
:10470000F32003F041F9002003F03EF9E42003F028
:104710004DF9012003F038F9002003F035F90120AC
:1047200003F032F9002003F02FF9022003F02CF9F6
:10473000002003F029F92A2003F026F9002003F0D5
:1047400023F93C2003F020F9002003F01DF94B2051
:1047500003F01AF9002003F017F95D2003F014F9B3
:10476000002003F011F9742003F00EF9002003F08B
:104770000BF9842003F008F9002003F005F99320D9
:1047800003F002F9002003F0FFF8A22003F0FCF888
:10479000002003F0F9F8B32003F0F6F8002003F04E
:1047A000F3F8BE2003F0F0F8002003F0EDF8C42089
:1047B00003F0EAF8002003F0E7F8CD2003F0E4F876
:1047C000002003F0E1F8D32003F0DEF8002003F02E
:1047D000DBF8DD2003F0D8F8002003F0D5F8F32053
:1047E00003F0D2F8002003F0CFF8E52003F0DEF864
:1047F000002003F0C9F8002003F0C6F8002003F001
:10480000C3F8002003F0C0F8022003F0BDF8002038
:1048100003F0BAF8292003F0B7F8002003F0B4F849
:104820003C2003F0B1F8002003F0AEF84B2003F079
:10483000ABF8002003F0A8F85D2003F0A5F80020F5
:1048400003F0A2F8742003F09FF8002003F09CF816
:10485000842003F099F8002003F096F8932003F0E9
:1048600093F8002003F090F8A22003F08DF80020C8
:1048700003F08AF8B32003F087F8002003F084F8EF
:10488000BE2003F081F8002003F07EF8C42003F07E
:104890007BF8002003F078F8CD2003F075F80020B5
:1048A00003F072F8D32003F06FF8002003F06CF8E7
:1048B000DC2003F069F8002003F066F8F32003F031
:1048C00063F8002003F060F8E62003F06FF8112091
:1048D00003F05AF8002003F057F8342003F054F89E
:1048E000002003F051F8562003F04EF8002003F0AA
:1048F0004BF8762003F048F8002003F045F87720C5
:1049000003F042F8002003F03FF8662003F03CF883
:10491000002003F039F8882003F036F8002003F077
:1049200033F8992003F030F8002003F02DF8BB2075
:1049300003F02AF8002003F027F8992003F024F868
:10494000002003F021F8662003F01EF8002003F099
:104950001BF8552003F018F8002003F015F8552037
:1049600003F012F8002003F00FF8452003F00CF8D4
:10497000002003F009F8432003F006F8002003F0BC
:1049800003F8442003F000F8002002F0FDFFE720C8
:1049900003F00CF8322002F0F7FF002002F0F4FFE1
:1049A000552002F0F1FF002002F0EEFF762002F029
:1049B000EBFF002002F0E8FF662002F0E5FF002098
:1049C00002F0E2FF672002F0DFFF002002F0DCFFD0
:1049D000672002F0D9FF002002F0D6FF872002F006
:1049E000D3FF002002F0D0FF992002F0CDFF00207D
:1049F00002F0CAFFBB2002F0C7FF002002F0C4FF94
:104A0000992002F0C1FF002002F0BEFF772002F0E3
:104A1000BBFF002002F0B8FF442002F0B5FF0020E9
:104A200002F0B2FF562002F0AFFF002002F0ACFF10
:104A3000232002F0A9FF002002F0A6FF332002F09D
:104A4000A3FF002002F0A0FF452002F09DFF002000
:104A500002F09AFFE82002F0A9FF002002F094FF84
:104A6000002002F091FF992002F08EFF002002F05A
:104A70008BFF872002F088FF002002F085FF88204E
:104A800002F082FF002002F07FFF772002F07CFF1F
:104A9000002002F079FF662002F076FF002002F08D
:104AA00073FF882002F070FF002002F06DFFAA2043
:104AB00002F06AFF002002F067FFBB2002F064FFF3
:104AC000002002F061FF992002F05EFF002002F05A
:104AD0005BFF662002F058FF002002F055FF5520D2
:104AE00002F052FF002002F04FFF552002F04CFF71
:104AF000002002F049FF442002F046FF002002F0AF
:104B000043FF442002F040FF002002F03DFF55200B
:104B100002F03AFF002002F037FFE92002F046FFE2
:104B2000AA2002F031FF002002F02EFF002002F048
:104B30002BFF002002F028FF002002F037FFAA2000
:104B400002F022FFCF2002F031FF002002F01CFF14
:104B5000002002F019FF002002F016FF002002F0F2
:104B600013FF002002F010FF002002F00DFF0020D4
:104B700002F00AFF002002F007FF002002F004FF0D
:104B8000002002F001FF002002F0FEFE002002F0F3
:104B9000FBFE002002F0F8FE002002F0F5FE0020EF
:104BA00002F0F2FE002002F0EFFE002002F0ECFE28
:104BB000F02002F0FBFE002002F0E6FE502002F0A2
:104BC000E3FE002002F0E0FE002002F0DDFE002007
:104BD00002F0DAFEF32002F0E9FE002002F0D4FE3B
:104BE000F92002F0E3FE062002F0CEFE102002F0D3
:104BF000CBFE292002F0C8FE002002F0C5FE3A20BC
:104C000002F0D4FE552002F0BFFE112002F0CEFECD
:104C1000642004F01BFF292002F0C8FE352002F0BA
:104C2000C5FE002002F0B0FE512002F0BFFEFF20C2
:104C300002F0AAFE532002F0B9FE2C2002F0A4FEDE
:104C4000552002F0B3FE822002F09EFE2C20FCE3F1
:104C5000B0427DD14FF470445521204602F0BEFE93
:104C6000651CAA21284602F0B9FEA61C5221304636
:104C700002F0B4FEE71C0821384602F0AFFE4FF206
:104C800004080121404602F0A9FE0D214FF43040F6
:104C900002F0A4FE0D214BF2010002F09FFE0D2157
:104CA0004BF2020002F09AFE4FF436493421484696
:104CB00002F094FE34214BF2016002F08FFE3421A9
:104CC0004BF2026002F08AFE4FF4314A0D21504649
:104CD00002F084FE4BF2011B0D21584602F07EFECD
:104CE0000D214BF2021002F079FE34214FF43740CF
:104CF00002F074FE34214BF2017002F06FFE342199
:104D00004BF2027002F06AFE00214FF4324002F0D2
:104D100065FE00214BF2012002F060FE00214BF203
:104D2000022002F05BFE24214FF4384002F056FED0
:104D300024214BF6010002F051FE24214BF6020023
:104D400002F04CFE01214FF43F4002F047FE00E02C
:104D5000FEE30F214FF4334002F040FE0F214BF2EF
:104D6000013002F03BFE0F214BF2023002F036FE22
:104D700034214FF4394002F031FE34214BF601105A
:104D800002F02CFE34214BF6021002F027FE08211F
:104D90004FF4354002F022FE08214BF2015002F0A0
:104DA0001DFE08214BF2025002F018FE03214FF4C1
:104DB000424002F013FE24214FF43A4002F00EFE6E
:104DC00024214BF6012002F009FE24214BF602209B
:104DD00002F004FE00214FF43C4002F0FFFD782178
:104DE0004BF6014002F0FAFD00214BF6024002F0C2
:104DF000F5FD00214FF43D4002F0F0FD78214BF627
:104E0000015002F0EBFD00214BF6025002F0E6FDEE
:104E100000214FF43E4002F0E1FD64214BF60160B9
:104E200002F0DCFD00214FF4514002F0D7FD3321A8
:104E30004DF2011002F0D2FD00214DF2021002F0FD
:104E4000CDFD34214DF2031002F0C8FD00214DF2DA
:104E5000041002F0C3FD3A214DF2051002F0BEFD30
:104E600000214DF2061002F0B9FD4A214DF2071063
:104E700002F0B4FD00214DF2081002F0AFFD5C21FC
:104E80004DF2091002F0AAFD00214DF20A1002F0C5
:104E9000A5FD81214DF20B1002F0A0FD00214DF285
:104EA0000C1002F09BFDA6214DF20D1002F096FDB4
:104EB00000214DF20E1002F091FDE5214DF20F1090
:104EC00002F08CFD01214DF2101002F087FD13213C
:104ED0004DF2111002F082FD01214DF2121002F08C
:104EE0007DFD54214DF2131002F078FD01214DF2A9
:104EF000141002F073FD82214DF2151002F06EFDC8
:104F000001214DF2161002F069FDCA214DF2171071
:104F100002F064FD02214DF2181002F05FFD002145
:104F20004DF2191002F05AFD02214DF21A1002F052
:104F300055FD01214DF21B1002F050FD02214DF2F2
:104F40001C1002F04BFD34214DF21D1002F046FD05
:104F500002214DF21E1002F041FD67214DF21F109B
:104F600002F03CFD02214DF2201002F037FD8421B9
:104F70004DF2211002F032FD02214DF2221002F01A
:104F80002DFDA4214DF2231002F028FD02214DF247
:104F9000241002F023FDB7214DF2251002F01EFD72
:104FA00002214DF2261002F019FDCF214DF22710FB
:104FB00002F014FD02214DF2281002F00FFDDE2157
:104FC0004DF2291002F00AFD02214DF22A1002F0E2
:104FD00005FDF2214DF22B1002F000FD02214DF2F1
:104FE0002C1002F0FBFCFE214DF22D1002F0F6FC1D
:104FF00003214DF22E1002F0F1FC10214DF22F1082
:1050000002F0ECFC03214DF2301002F0E7FC3321FA
:105010004DF2311002F0E2FC03214DF2321002F0A9
:10502000DDFC6D214DF2331002F0D8FC00214FF46D
:10503000524002F0D3FC33214DF2012002F0CEFCAD
:1050400000214DF2022002F0C9FC34214DF2032070
:1050500002F0C4FC00214DF2042002F0BFFC3A2112
:105060004DF2052002F0BAFC00214DF2062002F0BC
:10507000B5FC4A214DF2072002F0B0FC00214DF2B0
:10508000082002F0ABFC5C214DF2092002F0A6FCE6
:1050900000214DF20A2002F0A1FC81214DF20B20EB
:1050A00002F09CFC00214DF20C2002F097FCA6219E
:1050B0004DF20D2002F092FC00214DF20E2002F084
:1050C0008DFCE5214DF20F2002F088FC01214DF20C
:1050D000102002F083FC13214DF2112002F07EFC1F
:1050E00001214DF2122002F079FC54214DF21320DF
:1050F00002F074FC01214DF2142002F06FFC8221B9
:105100004DF2152002F06AFC01214DF2162002F04A
:1051100065FCCA214DF2172002F060FC02214DF21D
:10512000182002F05BFC00214DF2192002F056FC21
:1051300002214DF21A2002F051FC01214DF21B20F8
:1051400002F04CFC02214DF21C2002F047FC3421FD
:105150004DF21D2002F042FC02214DF21E2002F011
:105160003DFC67214DF21F2002F038FC02214DF278
:10517000202002F033FC84214DF2212002F02EFC8D
:1051800002214DF2222002F029FCA4214DF223201D
:1051900002F024FC02214DF2242002F01FFCB72172
:1051A0004DF2252002F01AFC02214DF2262002F0D9
:1051B00015FCCF214DF2272002F010FC02214DF208
:1051C000282002F00BFCDE214DF2292002F006FC23
:1051D00002214DF22A2002F001FCF2214DF22B2097
:1051E00002F0FCFB02214DF22C2002F0F7FBFE2125
:1051F0004DF22D2002F0F2FB03214DF22E2002F0A1
:10520000EDFB10214DF22F2002F0E8FB03214DF2BF
:10521000302002F0E3FB33214DF2312002F0DEFBBF
:1052200003214DF2322002F0D9FB6D214DF23320E3
:1052300002F0D4FB00214FF4534002F0CFFB3321A6
:105240004DF2013002F0CAFB00214DF2023002F0B3
:10525000C5FB34214DF2033002F0C0FB00214DF2BA
:10526000043002F0BBFB3A214DF2053002F0B6FBF0
:1052700000214DF2063002F0B1FB4A214DF2073019
:1052800002F0ACFB00214DF2083002F0A7FB5C21DC
:105290004DF2093002F0A2FB00214DF20A3002F07B
:1052A0009DFB81214DF20B3002F098FB00214DF265
:1052B0000C3002F093FBA6214DF20D3002F08EFB74
:1052C00000214DF20E3002F089FBE5214DF20F3046
:1052D00002F084FB01214DF2103002F07FFB13211C
:1052E0004DF2113002F07AFB01214DF2123002F042
:1052F00075FB54214DF2133002F070FB01214DF289
:10530000143002F06BFB82214DF2153002F066FB87
:1053100001214DF2163002F061FBCA214DF2173027
:1053200002F05CFB02214DF2183002F057FB002125
:105330004DF2193002F052FB02214DF21A3002F008
:105340004DFB01214DF21B3002F048FB02214DF2D2
:105350001C3002F043FB34214DF21D3002F03EFBC5
:1053600002214DF21E3002F039FB67214DF21F3051
:1053700002F034FB02214DF2203002F02FFB842199
:105380004DF2213002F02AFB02214DF2223002F0D0
:1053900025FBA4214DF2233002F020FB02214DF227
:1053A000243002F01BFBB7214DF2253002F016FB32
:1053B00002214DF2263002F011FBCF214DF22730B1
:1053C00002F00CFB02214DF2283002F007FBDE2137
:1053D0004DF2293002F002FB02214DF22A3002F098
:1053E000FDFAF2214DF22B3002F0F8FA02214DF2D3
:1053F0002C3002F0F3FAFE214DF22D3002F0EEFADD
:1054000003214DF22E3002F0E9FA10214DF22F3037
:1054100002F0E4FA03214DF2303002F0DFFA3321DA
:105420004DF2313002F0DAFA03214DF2323002F05F
:10543000D5FA6D214DF2333002F0D0FA00214FF44D
:10544000544002F0CBFA332100E080E34DF20140FA
:1054500002F0C4FA00214DF2024002F0BFFA3421FA
:105460004DF2034002F0BAFA00214DF2044002F07E
:10547000B5FA3A214DF2054002F0B0FA00214DF2A2
:10548000064002F0ABFA4A214DF2074002F0A6FABC
:1054900000214DF2084002F0A1FA5C214DF20940D2
:1054A00002F09CFA00214DF20A4002F097FA8121A5
:1054B0004DF20B4002F092FA00214DF20C4002F046
:1054C0008DFAA6214DF20D4002F088FA00214DF22E
:1054D0000E4002F083FAE5214DF20F4002F07EFA11
:1054E00001214DF2104002F079FA13214DF21140E2
:1054F00002F074FA01214DF2124002F06FFA5421C9
:105500004DF2134002F06AFA01214DF2144002F00C
:1055100065FA82214DF2154002F060FA01214DF248
:10552000164002F05BFACA214DF2174002F056FA1B
:1055300002214DF2184002F051FA00214DF21940BB
:1055400002F04CFA02214DF21A4002F047FA00E054
:1055500001E301214DF21B4002F040FA02214DF21D
:105560001C4002F03BFA34214DF21D4002F036FAA5
:1055700002214DF21E4002F031FA67214DF21F4028
:1055800002F02CFA02214DF2204002F027FA842189
:105590004DF2214002F022FA02214DF2224002F0A7
:1055A0001DFAA4214DF2234002F018FA02214DF217
:1055B000244002F013FAB7214DF2254002F00EFA12
:1055C00002214DF2264002F009FACF214DF2274088
:1055D00002F004FA02214DF2284002F0FFF9DE2128
:1055E0004DF2294002F0FAF902214DF22A4002F070
:1055F000F5F9F2214DF22B4002F0F0F902214DF2C3
:105600002C4002F0EBF9FE214DF22D4002F0E6F9BC
:1056100003214DF22E4002F0E1F910214DF22F400E
:1056200002F0DCF903214DF2304002F0D7F93321CA
:105630004DF2314002F0D2F903214DF2324002F036
:10564000CDF96D214DF2334002F0C8F900214FF43D
:10565000554002F0C3F933214DF2015002F0BEF97A
:1056600000214DF2025002F0B9F934214DF20350FD
:1056700002F0B4F900214DF2045002F0AFF93A21E2
:105680004DF2055002F0AAF900214DF2065002F049
:10569000A5F94A214DF2075002F0A0F900214DF280
:1056A000085002F09BF95C214DF2095002F096F986
:1056B00000214DF20A5002F091F981214DF20B5078
:1056C00002F08CF900214DF20C5002F087F9A6216E
:1056D0004DF20D5002F082F900214DF20E5002F011
:1056E0007DF9E5214DF20F5002F078F901214DF2DC
:1056F000105002F073F913214DF2115002F06EF9BF
:1057000001214DF2125002F069F954214DF213506B
:1057100002F064F901214DF2145002F05FF9822188
:105720004DF2155002F05AF901214DF2165002F0D7
:1057300055F9CA214DF2175002F050F902214DF2ED
:10574000185002F04BF900214DF2195002F046F9C1
:1057500002214DF21A5002F041F901214DF21B5085
:1057600002F03CF902214DF21C5002F037F93421CD
:105770004DF21D5002F032F902214DF21E5002F09E
:105780002DF967214DF21F5002F028F902214DF248
:10579000205002F023F984214DF2215002F01EF92D
:1057A00002214DF2225002F019F9A4214DF22350AA
:1057B00002F014F902214DF2245002F00FF9B72142
:1057C0004DF2255002F00AF902214DF2265002F066
:1057D00005F9CF214DF2275002F000F902214DF2D8
:1057E000285002F0FBF8DE214DF2295002F0F6F8C5
:1057F00002214DF22A5002F0F1F8F2214DF22B5025
:1058000002F0ECF802214DF22C5002F0E7F8FE21F4
:105810004DF22D5002F0E2F803214DF22E5002F02D
:10582000DDF810214DF22F5002F0D8F803214DF28F
:10583000305002F0D3F833214DF2315002F0CEF85F
:1058400003214DF2325002F0C9F86D214DF2335070
:1058500002F0C4F800214FF4564002F0BFF83321A3
:105860004DF2016002F0BAF800214DF2026002F040
:10587000B5F834214DF2036002F0B0F800214DF28A
:10588000046002F0ABF83A214DF2056002F0A6F890
:1058900000214DF2066002F0A1F84A214DF20760A6
:1058A00002F09CF800214DF2086002F097F85C21AC
:1058B0004DF2096002F092F800214DF20A6002F008
:1058C0008DF881214DF20B6002F088F800214DF235
:1058D0000C6002F083F8A6214DF20D6002F07EF814
:1058E00000214DF20E6002F079F8E5214DF20F60D3
:1058F00002F074F801214DF2106002F06FF81321EC
:105900004DF2116002F06AF801214DF2126002F0CE
:1059100065F854214DF2136002F060F801214DF258
:10592000146002F05BF882214DF2156002F056F827
:1059300001214DF2166002F051F8CA214DF21760B4
:1059400002F04CF802214DF2186002F047F80021F5
:105950004DF2196002F042F802214DF21A6002F095
:105960003DF801214DF21B6002F038F802214DF2A2
:105970001C6002F033F834214DF21D6002F02EF865
:1059800002214DF21E6002F029F867214DF21F60DE
:1059900002F024F802214DF2206002F01FF8842169
:1059A0004DF2216002F01AF802214DF2226002F05D
:1059B00015F8A4214DF2236002F010F802214DF2F7
:1059C000246002F00BF8B7214DF2256002F006F8D2
:1059D00002214DF2266002F001F8CF214DF227603E
:1059E00001F0FCFF02214DF2286001F0F7FFDE21FB
:1059F0004DF2296001F0F2FF02214DF22A6001F020
:105A0000EDFFF2214DF22B6001F0E8FF02214DF293
:105A10002C6001F0E3FFFE214DF22D6001F0DEFF6E
:105A200003214DF22E6001F0D9FF10214DF22F60BD
:105A300001F0D4FF03214DF2306001F0CFFF33219C
:105A40004DF2316001F0CAFF03214DF2326001F0E6
:105A5000C5FF6D214DF2336001F0C0FF5521204696
:105A600001F0BCFFAA21284601F0B8FF52213046C0
:105A700001F0B4FF0821384601F0B0FF0021404694
:105A800001F0ACFFCC21504601F0A8FF00215846A0
:105A900001F0A4FF0521484601F0A0FF70214FF45A
:105AA000374001F09BFF70214BF2017001F096FF2F
:105AB00001214FF4384001F091FF03214BF6010022
:105AC00001F08CFF03214BF6020001F087FF032158
:105AD0004BF6030001F082FF02214FF43C4001F03D
